:020000040000fa
:080000000002040000000000f2
:020000040000fa
:04000800da03000017
:020000040000fa
:04000c001c040000d0
:020000040000fa
:040010005c0400008c
:020000040000fa
:04001400fa030000eb
:020000040000fa
:040018003c040000a4
:020000040000fa
:04001c007c0600005e
:020000040000fa
:040020007c0400005c
:020000040000fa
:040024007c06000056
:020000040000fa
:040028007c06000052
:020000040000fa
:04002c001a050000b1
:020000040000fa
:040030007c0600004a
:020000040000fa
:040034007c06000046
:020000040000fa
:040038007c06000042
:020000040000fa
:04003c007c0600003e
:020000040000fa
:040040007c0600003a
:020000040000fa
:040044007c06000036
:020000040000fa
:040048007c06000032
:020000040000fa
:04004c007c0600002e
:020000040000fa
:040050007c0600002a
:020000040000fa
:040054007c06000026
:020000040000fa
:040058007c06000022
:020000040000fa
:04005c007c0600001e
:020000040000fa
:040060007c0600001a
:020000040000fa
:040064007c06000016
:020000040000fa
:040068007c06000012
:020000040000fa
:04006c007c0600000e
:020000040000fa
:040070007c0600000a
:020000040000fa
:040074007c06000006
:020000040000fa
:040078007c06000002
:020000040000fa
:04007c007c060000fe
:020000040000fa
:040080007c060000fa
:020000040000fa
:040084007c060000f6
:020000040000fa
:040088007c060000f2
:020000040000fa
:04008c00f00400007c
:020000040000fa
:040090007c060000ea
:020000040000fa
:040094007c060000e6
:020000040000fa
:040098007c060000e2
:020000040000fa
:04009c007c060000de
:020000040000fa
:0400a0007c060000da
:020000040000fa
:0400a4007c060000d6
:020000040000fa
:0400a8007c060000d2
:020000040000fa
:0400ac00c604000086
:020000040000fa
:0400b0007c060000ca
:020000040000fa
:0400b4007c060000c6
:020000040000fa
:0400b8007c060000c2
:020000040000fa
:0400bc007c060000be
:020000040000fa
:0400c0007c060000ba
:020000040000fa
:0400c4007c060000b6
:020000040000fa
:0400c8007c060000b2
:020000040000fa
:0400cc007c060000ae
:020000040000fa
:0400d0007c060000aa
:020000040000fa
:0400d4007c060000a6
:020000040000fa
:0400d8007c060000a2
:020000040000fa
:0400dc007c0600009e
:020000040000fa
:0400e0007c0600009a
:020000040000fa
:0400e4007c06000096
:020000040000fa
:0400e8007c06000092
:020000040000fa
:0400ec007c0600008e
:020000040000fa
:0400f0007c0600008a
:020000040000fa
:0400f4007c06000086
:020000040000fa
:0400f8007c06000082
:020000040000fa
:0400fc007c0600007e
:020000040000fa
:040100007c06000079
:020000040000fa
:040104007c06000075
:020000040000fa
:040108007c06000071
:020000040000fa
:04010c007c0600006d
:020000040000fa
:040110007c06000069
:020000040000fa
:040114007c06000065
:020000040000fa
:040118007c06000061
:020000040000fa
:04011c007c0600005d
:020000040000fa
:040120007c06000059
:020000040000fa
:040124007c06000055
:020000040000fa
:040128007c06000051
:020000040000fa
:04012c007c0600004d
:020000040000fa
:040130007c06000049
:020000040000fa
:040134007c06000045
:020000040000fa
:040138007c06000041
:020000040000fa
:04013c007c0600003d
:020000040000fa
:040140007c06000039
:020000040000fa
:040144007c06000035
:020000040000fa
:040148007c06000031
:020000040000fa
:04014c007c0600002d
:020000040000fa
:040150007c06000029
:020000040000fa
:040154007c06000025
:020000040000fa
:040158007c06000021
:020000040000fa
:04015c007c0600001d
:020000040000fa
:040160007c06000019
:020000040000fa
:040164007c06000015
:020000040000fa
:040168007c06000011
:020000040000fa
:04016c007c0600000d
:020000040000fa
:040170007c06000009
:020000040000fa
:040174007c06000005
:020000040000fa
:040178007c06000001
:020000040000fa
:04017c007c060000fd
:020000040000fa
:040180007c060000f9
:020000040000fa
:040184007c060000f5
:020000040000fa
:040188007c060000f1
:020000040000fa
:04018c007c060000ed
:020000040000fa
:040190007c060000e9
:020000040000fa
:040194007c060000e5
:020000040000fa
:040198007c060000e1
:020000040000fa
:04019c007c060000dd
:020000040000fa
:0401a0007c060000d9
:020000040000fa
:0401a4007c060000d5
:020000040000fa
:0401a8007c060000d1
:020000040000fa
:0401ac007c060000cd
:020000040000fa
:0401b0007c060000c9
:020000040000fa
:0401b4007c060000c5
:020000040000fa
:0401b8007c060000c1
:020000040000fa
:0401bc007c060000bd
:020000040000fa
:0401c0007c060000b9
:020000040000fa
:0401c4007c060000b5
:020000040000fa
:0401c8007c060000b1
:020000040000fa
:0401cc007c060000ad
:020000040000fa
:0401d0007c060000a9
:020000040000fa
:0401d40050050000d2
:020000040000fa
:0401d8008c05000092
:020000040000fa
:0401dc00c805000052
:020000040000fa
:0401e0000406000011
:020000040000fa
:0401e40040060000d1
:020000040000fa
:0401e8007c06000091
:020000040000fa
:0401ec007c0600008d
:020000040000fa
:0401f0007c06000089
:020000040000fa
:0401f4007c06000085
:020000040000fa
:0401f8007c06000081
:020000040000fa
:0401fc007c0600007d
:020000040000fa
:040200007c06000078
:020000040000fa
:040204007c06000074
:020000040000fa
:040208007c06000070
:020000040000fa
:04020c007c0600006c
:020000040000fa
:040210007c06000068
:020000040000fa
:040214007c06000064
:020000040000fa
:040218007c06000060
:020000040000fa
:04021c007c0600005c
:020000040000fa
:040220007c06000058
:020000040000fa
:040224007c06000054
:020000040000fa
:040228007c06000050
:020000040000fa
:04022c007c0600004c
:020000040000fa
:040230007c06000048
:020000040000fa
:040234007c06000044
:020000040000fa
:040238007c06000040
:020000040000fa
:04023c007c0600003c
:020000040000fa
:040240007c06000038
:020000040000fa
:040244007c06000034
:020000040000fa
:040248007c06000030
:020000040000fa
:04024c007c0600002c
:020000040000fa
:040250007c06000028
:020000040000fa
:040254007c06000024
:020000040000fa
:040258007c06000020
:020000040000fa
:04025c007c0600001c
:020000040000fa
:040260007c06000018
:020000040000fa
:040264007c06000014
:020000040000fa
:040268007c06000010
:020000040000fa
:04026c007c0600000c
:020000040000fa
:040270007c06000008
:020000040000fa
:040274007c06000004
:020000040000fa
:040278007c06000000
:020000040000fa
:04027c007c060000fc
:020000040000fa
:040280007c060000f8
:020000040000fa
:040284007c060000f4
:020000040000fa
:040288007c060000f0
:020000040000fa
:04028c007c060000ec
:020000040000fa
:040290007c060000e8
:020000040000fa
:040294007c060000e4
:020000040000fa
:040298007c060000e0
:020000040000fa
:04029c007c060000dc
:020000040000fa
:0402a0007c060000d8
:020000040000fa
:0402a4007c060000d4
:020000040000fa
:0402a8007c060000d0
:020000040000fa
:0402ac007c060000cc
:020000040000fa
:0402b0007c060000c8
:020000040000fa
:0402b4007c060000c4
:020000040000fa
:0402b8007c060000c0
:020000040000fa
:0402bc007c060000bc
:020000040000fa
:0402c0007c060000b8
:020000040000fa
:0402c4007c060000b4
:020000040000fa
:0402c8007c060000b0
:020000040000fa
:0402cc007c060000ac
:020000040000fa
:0402d0007c060000a8
:020000040000fa
:0402d4007c060000a4
:020000040000fa
:0402d8007c060000a0
:020000040000fa
:0402dc007c0600009c
:020000040000fa
:0402e0007c06000098
:020000040000fa
:0402e4007c06000094
:020000040000fa
:0402e8007c06000090
:020000040000fa
:0402ec007c0600008c
:020000040000fa
:0402f0007c06000088
:020000040000fa
:0402f4007c06000084
:020000040000fa
:0402f8007c06000080
:020000040000fa
:0402fc007c0600007c
:020000040000fa
:040300007c06000077
:020000040000fa
:040304007c06000073
:020000040000fa
:040308007c0600006f
:020000040000fa
:04030c007c0600006b
:020000040000fa
:040310007c06000067
:020000040000fa
:040314007c06000063
:020000040000fa
:040318007c0600005f
:020000040000fa
:04031c007c0600005b
:020000040000fa
:040320007c06000057
:020000040000fa
:100400008f1421000eff27000e018800000020003d
:100410000000e000020032000001200020028800fd
:10042000140007006c0207000000e00003003a001f
:1004300080d02300010020000200370000002000cf
:1004400001002000810f70004220ae000f00070065
:10045000000020000000e0004220ae00000002008a
:1004600000000000bc320200000000000040da0082
:100470000000fe00e01520000000e0000200320055
:10048000002020009001880000000600a1028800e2
:10049000800478000000eb001f003700e284440075
:1004a00054a0b4009905ba00e284440054a0b400fa
:1004b0009906ba00e284440054a0b4000006eb00a0
:1004c000476fde00fd07b200ae018800636ce100fb
:1004d00003003a000ad801000000eb000e003700cc
:1004e000606ce10008003a00004deb000a05e800ee
:1004f000020039003420ec000af0a0008b05e9006e
:10050000f9ff3e00040037006168e100010032009d
:100510000086eb000b00070019c7ba001905ba00e6
:100520000e04e00003003a000a00e000dbff3a009e
:1005300000000600fe07b200ae0288008a047800c0
:10054000f5ff37000cd0a300e20f4d001c003b006c
:1005500089027800354dba000a05e800020039002a
:100560003420ec000af0a0008b05e9000f003200f7
:10057000254dba000a05e800020039003420ec00dd
:100580000af0a0008b05e900080032000c00e00032
:100590000600320015cdba000a05e8000200390055
:1005a0003420ec000af0a0008b05e9008984e80003
:1005b00054a0b4000b00e000e2ff3a000000060087
:1005c0009902ba00055d78008b05e900f7ff32005b
:1005d000c82ade00055d78008b05e900f3ff3200d4
:1005e0000c00e000f1ff320019ddba00eeff370029
:1005f0006100e10001003200100005005400f80025
:1006000020102000a002880000f92b001000ba0082
:100610005400f9000700260000f0a6008703d1006f
:100620000703780001c4fe000003eb000120200056
:1006300091018800a11a2c00111303008703e9001f
:10064000fdff3a0000f0a7000000050000f0a00048
:1006500080c4fe0086037800f3ff37000408200002
:10066000010037000002eb006100e10001003200f0
:10067000100005003200f8003400f8008102780014
:10068000930188003200be000100e0000c0032003f
:100690000470a70000f0a00032037800c733de002a
:1006a000848343004220af008703e800a70188004d
:1006b000f607b2007f30e100040032002000200085
:1006c0003400f9003200f900000006008100e90062
:1006d0000500e00003003a00018009003210030029
:1006e000e8ff37000180090032900300d561ae00b9
:1006f000e4ff370030002000f1ff370050052000f4
:10070000b00e8800a00a2000b00e8800d3e1a80037
:100710000000060050052000b00e8800a00a20004e
:10072000b00e8800d3e1a900000006002e3f0400af
:1007300000000000dc350400000000000a36040060
:10074000000000003c360400000000006e3604008b
:1007500000000000a036040000000000d2360400b3
:1007600000000000043704000000000038370400d7
:10077000000000004c370400000000006037040057
:1007800000000000743704000000000088370400f7
:10079000000000008834040000000000b2140400cf
:1007a000000000005614040000000000f0130400d4
:1007b000000000003600f800809fbe00829fbe004f
:1007c000849fbe00869fbe000000fa00c028a900da
:1007d0000000eb00d31e07000080fa004f03be00ac
:1007e0004f02be004f01be004f00be003600f900b0
:1007f000004006003600f800809fbe00829fbe00c9
:10080000849fbe00869fbe000000fa00ca1e07003b
:10081000c048a90010002000c21e07000080fa0096
:100820004f03be004f02be004f01be004f00be008e
:100830003600f900004006003600f800809fbe0038
:10084000829fbe00849fbe00869fbe000000fa000b
:10085000c068a90020002000b21e07000080fa0036
:100860004f03be004f02be004f01be004f00be004e
:100870003600f900004006003600f800809fbe00f8
:10088000829fbe00849fbe00869fbe000000fa00cb
:10089000c088a90030002000a21e07000080fa00d6
:1008a0004f03be004f02be004f01be004f00be000e
:1008b0003600f900004006003600f800809fbe00b8
:1008c000829fbe00849fbe00869fbe000000fa008b
:1008d000c608a90070002000921e07000080fa00e0
:1008e0004f03be004f02be004f01be004f00be00ce
:1008f0003600f900004006003600f800809fbe0078
:10090000829fbe00849fbe00869fbe000000fa004a
:100910002146800000102000008060000000e00000
:1009200003003200c508a900c00020007d1e07009a
:100930002146800000022000008060000000e000ee
:1009400003003200c4a8a90090002000751e070013
:1009500020468000700060000000e00003003200cc
:10096000c488a900a00020006e1e07002046800059
:10097000610060000000e00003003200c408a9002c
:10098000b0002000671e0700ffff37003600f800a8
:10099000809fbe00829fbe00849fbe00869fbe00d7
:1009a0000000fa00e12280000000240000806000c6
:1009b0000000e00002003200021407005dc4a9003c
:1009c0000428a9000080fa004f03be004f02be00b9
:1009d0004f01be004f00be003600f9000040060087
:1009e0003600f800809fbe00829fbe00849fbe003c
:1009f000869fbe000000fa00e12e80000000240067
:100a0000008060000000e00002003200cc1007000f
:100a1000ddc5a9000328a9000080fa004f03be002d
:100a20004f02be004f01be004f00be003600f9006d
:100a3000004006003600f800809fbe00829fbe0086
:100a4000849fbe00869fbe000000fa00e082800006
:100a50000000e00002003200e0828000000001009f
:100a6000b00c2100104078008040e800b00c21005c
:100a700001487800a00c210011c0b30001487800a3
:100a80000028a9000080fa004f03be004f02be00fc
:100a90004f01be004f00be003600f90000400600c6
:100aa0003600f800809fbe00829fbe00849fbe007b
:100ab000869fbe003200f8003400f80010002000cd
:100ac000a00188000020200000d0fe000200fa00f3
:100ad00061618000010f7800708080000000e000fc
:100ae00003003200718080001e00780001000100c8
:100af0000d68a9000080fa003400f9003200f90006
:100b00004f03be004f02be004f01be004f00be00ab
:100b10003600f900004006003600f800809fbe0055
:100b2000829fbe00849fbe00869fbe003200f800f8
:100b30003400f80010002000a001880000202000f0
:100b400000d0fe000200fa0071618000010f780001
:100b5000808080000000e00003003200818080007f
:100b60001e007800010001000d88a9000080fa0035
:100b70003400f9003200f9004f03be004f02be00fe
:100b80004f01be004f00be003600f90000400600d5
:100b90003600f800809fbe00829fbe00849fbe008a
:100ba000869fbe003200f8003400f80010002000dc
:100bb000a00188000020200000d0fe000200fa0002
:100bc00081618000010f7800908080000000e000cb
:100bd00003003200918080001e00780001000100b7
:100be0000da8a9000080fa003400f9003200f900d5
:100bf0004f03be004f02be004f01be004f00be00bb
:100c00003600f900004006003600f800809fbe0064
:100c1000829fbe00849fbe00869fbe003200f80007
:100c20003400f80010002000a001880000202000ff
:100c300000d0fe000200fa0091618000010f7800f0
:100c4000a08080000000e00003003200a18080004e
:100c50001e007800010001000dc8a9000080fa0004
:100c60003400f9003200f9004f03be004f02be000d
:100c70004f01be004f00be003600f90000400600e4
:100c80003600f800809fbe00829fbe00849fbe0099
:100c9000869fbe003200f8003400f80010002000eb
:100ca000a00188000020200000d0fe000200fa0011
:100cb000a1618000010f7800b08080000000e0009a
:100cc00003003200b18080001e00780001000100a6
:100cd0000de8a9000080fa003400f9003200f900a4
:100ce0004f03be004f02be004f01be004f00be00ca
:100cf0003600f900004006000040da000000fe0067
:100d0000ec8747008e1f78006c8757004400200056
:100d1000041f7800000f78006c87570002afbe00f8
:100d2000e1bf9f006c8057001b0a07001e00be0039
:100d30004f077800cf00b10000000600ec874700a5
:100d40008e1f780011002000a1bf9f006c87570004
:100d5000002f78006c805700110a07001e007800f1
:100d60004f077800cf00b100000006000800fa002d
:100d70008e81e8008009780064004700010878004f
:100d8000660047000208780066004700100f7800f0
:100d90000a00370064004700100078001040780017
:100da000e4004700910078000101e800e4004700fa
:100db00082087800b31b07001e0fe9001e007800b0
:100dc0000000e000f3ff3a006600470010007800e2
:100dd0000080fa0000000600000005000001be00cf
:100de0001b0007000470a70003f0a10003f8a30094
:100df00013003a006509b100100032000900350007
:100e00006928e1000200350001002800000005000b
:100e100000004000818048008502e900fcff3a00a4
:100e200000000600f88f4200050035008100d10067
:100e30000080d3008502e800fcff3a0000000600b5
:100e40008000eb00000005006011b8007a03370055
:100e5000c70ade00f107b200f50fb2000800320049
:100e6000e1cf4200020032000170a0002400050022
:100e7000810f7000010032000408050044000500e5
:100e8000810f700002003a00140005008502e9009d
:100e90000000400081c04800fcff3b000170a00042
:100ea000240005006022b800060220000000d000e7
:100eb0008180d2000482d2008582d2000000a0008e
:100ec0000202520083825a000300310002024200f3
:100ed00083824a000000a1000603e900f3ff3a0004
:100ee0000000060007f82700078361000638e100cc
:100ef00004003a00f7072000878361008703710030
:100f000001003a0003f0a200889fbe008a9fbe0045
:100f10008c9fbe00470ade000480a100c71ade00d5
:100f20000580a10007002800078560008785610013
:100f3000f70f20000720e1009e0032000728e100a3
:100f40009c003200010678000400e000b40032008a
:100f5000f7072000878060000170a0000500e00016
:100f6000c0003200f7072000878161000370a000f5
:100f7000050652000f003a000b50e1000b00320052
:100f80000308e10002003a000200e1007e003200a6
:100f90000204500083845800040031000001fd0069
:100fa0008101fd008402fd008a05fd006044b80057
:100fb000210037000520e10005003d000001fd0093
:100fc0008101fd008402fd008a05fd000506520036
:100fd0007a60e100050035000170a1004722dd00c4
:100fe000848070008a807000630037006044b8001d
:100ff000ef02660007ff2f00070666000500e0000d
:1010000006003400f08312008714dd000511de00b5
:10101000071bdd00060171008519de007060e1002c
:101020000500350009047800820478000301780087
:101030008001eb00700656000b50e10003003a00ff
:101040000200400083804800040037006004140060
:10105000e0841c0002005800838058000188a3002f
:10106000060032008100d1000080d3008984d300c3
:101070000884d3000402e800270037000178a300a9
:1010800025003a000100e000030032008186cf0015
:10109000698656000a0037008c0020000000e0003e
:1010a00004003a0009007800880478000004eb008e
:1010b000700252008086cf000d0646000c06e90043
:1010c0007060e100060035008000780009007800bb
:1010d000880478000004eb0070065600700252008d
:1010e0000c00e0000c0034008c08dd00f00316005a
:1010f0000703de00868070000c00dd00074bde0079
:10110000060070008c4cdd000743de00868474000e
:101110000c44dd000c0252006120e100200035008b
:10112000610160000700280087816400f7ff270045
:1011300087836400070374000300e00006003200a8
:1011400082037300040032000000e800e0804800e1
:101150000188a3000e003a00f70f20000720e100ed
:101160004a003d000170a1004722dd0081007200ad
:101170008a8070000000be004f06be004f05be0012
:101180004f04be00000006006000b800faff370000
:101190008100d1000080d3000402e800eeff370098
:1011a0000401780089017400a10107008a807000a1
:1011b000f1ff3700f7010700070278000001fd008a
:1011c0008101fd00f30107008702780085037200aa
:1011d0000778a300040032000001fd008101fd003a
:1011e00006020700e4ff3700850362000768a300da
:1011f000080032000b50e10003003200f0ff2f0026
:10120000f1ff2700dcff37000001fd008101fd0038
:10121000d9ff37000468a300d7ff3200faff370078
:10122000f8ff2700888360000b003a000000e00010
:1012300009003a00830364008283730002003200d5
:101240000200be00ccff37000b50e100ceff3a0099
:101250000200be00c8ff37001400200081006400b7
:101260003eff3700f8ff27008883610004003a0042
:101270000200e00002003a008c007800beff370058
:10128000150020008301640039ff370001f82700b2
:101290000000200081007500b7ff3700889fbe0066
:1012a0008a9fbe008c9fbe001b0020000202be0071
:1012b0000586680006002800060666004709de006d
:1012c000f20fb200820032000243e80080003200d8
:1012d000c729de00f30fb2007d0032000343e800af
:1012e0007b003200f107b2000170a000f507b200e8
:1012f0000570a000c708dd004903de00868070008d
:101300004700dd00c72add004923de008682720027
:101310004722dd0003055100040350008583580077
:101320000300310000004000818048000a05e90008
:101330008c1f78008a9fbe000400500085805800f2
:101340000402420085824a0000004000818048007b
:101350000005eb000004be006033b8000406be00c8
:101360000d48e10056003100050009004dccd800c1
:101370000c01b8000d02b8008481410060824a006f
:101380008283530003045c0084845c0060055d007c
:101390000a00e00025003a00800578000d40e100d9
:1013a0004900310088007800070078000500090036
:1013b0004d88d8000c01b8000d02b80084814100ae
:1013c00060824a006003110083835b0004045c00b8
:1013d000e0845c000900e00021003a004f01be00fb
:1013e0000300e0002b003200e301600007067300f9
:1013f0008c81710001003200640070004200de0048
:101400004e5edd000c007000c258de0001e0a0005e
:1014100083010700cf017800818071004f06be0074
:101420004f05be004f04be00000006008c83430041
:101430000d044c00e0844c0060054d000000e90004
:101440000a00e000d4ff32008c8343000d044c00fe
:10145000e0844c0060054d000000e900ceff37003d
:101460000c0343008d834b0060044c00e0844c006f
:101470000000e9000900e000d8ff32000c0343003f
:101480008d834b0060044c00e0844c000000e900b8
:10149000d2ff37004200de004e5edd000c0070001f
:1014a000c258de0001e0a000cf0178000300e00098
:1014b000daff320060001000e0801800d7ff37002c
:1014c000f0ff2f00aaff3700f0ff2f00b9ff370011
:1014d0000404be002f010700870678000004fd0009
:1014e0008104fd002b010700078366000678a30036
:1014f000030032000960a7000800be002c0037007e
:101500000d78a300020032000800be00280037005a
:101510000778a30026003a0001f0a10009f0a1001d
:101520000668a30003003200f1ff2700f0ff2f0040
:10153000baff37000d68a300030032000800be00a8
:101540008c807000b5ff37000768a30007003a00e1
:101550000648a30003003200f1ff2700f0ff2f0030
:10156000aeff37000d48a300030032006000b80052
:101570008c807000a9ff37000748a30004003200e8
:1015800001f82700000020008c807000a3ff3700c6
:10159000760107000004fd008104fd0002057800cb
:1015a000720107000802be008a01780059ff370067
:1015b0000160a000120220003283880097ff3700ec
:1015c0000100e000120032000500e00010003200cf
:1015d000889fbe008a9fbe008c9fbe000006eb0065
:1015e00001f8a3000300320060001000e080180042
:1015f0000cf0a00005f8a300030032006002120006
:10160000e0821a000cf0a2008005eb0041ff3700d9
:101610006000b8000200050003836800070028008e
:1016200007036300470ade000480a100c71ade003a
:101630000580a100f70f20000720e10042003200e2
:101640000728e10040003200889fbe008a9fbe004c
:101650008c1f7800f107b200f307b2000400e0002d
:10166000640032000170a0000500e0006800320054
:101670000370a00085054200eb07b1000204b8002a
:101680000302b8008484440060854a00020ab8005e
:10169000848444000a854a00030ab8000405450012
:1016a000040033000804d0008984d2000a85d200e7
:1016b0008b05e9006158e1003d0035000210200073
:1016c000090161000308200089816100f7072000fb
:1016d0008783640008867300c84cde00c853dd00b1
:1016e000878474004855de000300e00006003200e5
:1016f00082037600040032008904e80060054d0092
:101700000a88a3000c003a00f70f20000758e100f8
:1017100044003d000a70a100c75ddd000a85750028
:101720008a007300090078004f0678004f05be005c
:101730004f04be00000006000a05d1008984d300d2
:101740008b05e800f0ff3700881f7800060478005a
:1017500090000700070278000001fd008101fd00f4
:101760008c00070087027800850372000778a300c9
:10177000050032000001fd008101fd009f0007000f
:101780004f04780000000600850372000748a3009c
:1017900003003200f0ff2f00f1ff2700f8ff3700b1
:1017a0000000200001f8270088807000f4ff370057
:1017b000880178004848dd00808171004848de00db
:1017c000c850dd0001007000c850de00060478003b
:1017d0000b0178001600070088807000d2ff3700e8
:1017e0000500e00005003200170020003a00070065
:1017f0009dff370081037000f9ff3a0086007800f2
:101800004f0678004f05be004f04be0000000500e3
:1018100083037100f9ff3200270020002e0007002b
:1018200094ff370001f8270086807000f4ff37002e
:101830000100e00026003200610111007810e10093
:1018400023003c006022b8007010e1000400350065
:1018500080027800010078008000eb0070015100e8
:101860000200e0000900340070031100062add00c8
:10187000822ade008603dd00878272000200de001d
:10188000860bdd00070070008208de008481710095
:10189000f4ff2700048262008481710004002800a4
:1018a000848262006102600005f0a600000006006c
:1018b00004827100070032000000e800e080480068
:1018c000000006000002be006000b800efff370015
:1018d0006000b80000000600889fbe000004eb0016
:1018e0006138e10016003a000100e00008003a000b
:1018f000c800de004800dd00880020000100e00094
:1019000003003a00c800de004800dd00680444001f
:101910008184cf00e9845400060034008908dd008a
:10192000f08314008703de00878070000900dd006b
:1019300009044400610214004f04be0000000600c8
:101940000300e00008003a00c811de004811dd0085
:10195000880020000300e00003003a00c811de0008
:101960004811dd00680444008384cf00e9845400fa
:10197000060034008919dd00f08314008713de00af
:10198000878171000911dd0009044400e10214009f
:10199000e9ff37002700200001f0a7001700200012
:1019a000470bde00f60fb200040032000643e800e9
:1019b0000a0032004702b30000000600010378006d
:1019c000f607b2000603700002003a000703b300f6
:1019d000000006008702b300000006000103780043
:1019e000f607b20006037000020032000770a00084
:1019f000000006000760a000000006000478a300b5
:101a0000040032000578a300030032000168a3003f
:101a100001003a000200be000160a00000000600c4
:101a200081017000270032008002eb0001f8a30062
:101a30000300320060001000e08018001500200054
:101a4000f40720000202420020003400f7032000c7
:101a500087036000060420000003630002082000e2
:101a6000000161004700de00c909dd00008071004f
:101a7000c708de000600e00008003200870371009e
:101a8000060032001000b0000180b0000188a30001
:101a900002003200c108de000402e800f107b200d3
:101aa000f30f20000320e10003003d004722dd008a
:101ab000810072002900370001f827000000eb00c8
:101ac000260037006000b80000000600680212001f
:101ad0007f20e100020034006000b8001f003700e2
:101ae0006011b8007020e10004003500800178002a
:101af000010078008000eb00700252000400e0005a
:101b000009003400f00312000719dd008419de001b
:101b10000703dd00868171000400de00070bdd0095
:101b2000060070008408de00f7ff2700838363004f
:101b300087037100060028000303630007003200da
:101b40000700e00003003a006101600002817300b9
:101b5000020032001000b0000180b0000500a600b5
:101b60000000060001f0a000000006004f0ade00a1
:101b70004709de00f107b200f20fb2000b0032009d
:101b8000f207b1000170a000c708dd00c901de0046
:101b9000838070004700dd000400a60000000600fe
:101ba00060001000e080180000000600810f700047
:101bb00001003a00000006008182cf000500e0002d
:101bc00010003e008082cf00ee8242007028e100cb
:101bd0000400390007003e00800078000000eb00a0
:101be0000e003700708312008600de000500dd0065
:101bf0000a003700708352008600dd000000eb0011
:101c000006003700e28252008508dd007083120072
:101c10000603de00868070000500dd007507b00059
:101c20000501ea000400a6000000060060001000a4
:101c3000e080180000000600889fbe008a9fbe005a
:101c400000827000040271000482710026003200dc
:101c50000004be000200be006011b8006b09200045
:101c6000950220000182cf000a0039000541b10031
:101c70000082cf00070039000541b1000982cf0082
:101c8000040039000541b1000882cf00010039008d
:101c90000541b10005425200120032000a003b002b
:101ca00082817100610164008100d1000080d30055
:101cb0008984d3000884d3008b05e8000442e8003f
:101cc000f7ff3a00070037000804440089844c00fd
:101cd00000004800818048008b05e9000442e900cb
:101ce000f9ff3a00030007004f05be004f04be0095
:101cf0000000060081002000618055000b003d00bf
:101d00000b00200061fe2f000100e1001d003400e7
:101d100082817100610164008904d1000884d300cc
:101d20000000e800faff3a00710020006100640042
:101d300003007000020060000900320061044400ea
:101d4000e0844c000988a500050032008b05e800fe
:101d50006808e10002003a008904d1000884d30039
:101d6000f20f20000258e10005003d00c75ddd00d4
:101d7000f907b200898075000800780000000600ad
:101d80000bf827008b007800000005008001780028
:101d900002003700b15978000201e9000200e000ba
:101da000fcff3a0000000600889fbe008a9fbe002c
:101db000800478000200e0005a0032000140780000
:101dc000814c780082814400f1f99f00e20f5100bc
:101dd0005400360091449800a1449800e1f99f0016
:101de000d1f99f00e60f51004e003600b144980033
:101df000c1f99f00e80f51004a0036000905ea00ca
:101e0000630565000a8444000a055100c1ff2f00e4
:101e1000010565000080fb008000eb00121020002f
:101e200013102000d6050700008cbe000a014400f4
:101e300060b99f0071b99f00e80f55003900360066
:101e40002004980031049800400498005104980040
:101e500020b99f0031b99f0040b99f0051b99f0040
:101e6000f80f55002f0036006004980071049800a8
:101e7000000c9800110c9800200c9800310c980070
:101e8000400c9800510c980020b19f0031b19f0088
:101e900040b19f0051b19f0060b19f0071b19f00a0
:101ea00000b99f0011b99f006401640078014100ee
:101eb00002044400020555006011b8000203be0090
:101ec0000002be000403be006022b80000007200e1
:101ed0008180720002017300838173000f0037005c
:101ee00008027800009abe00029abe00009abe0066
:101ef0000292be00000c9800110c9800220c980071
:101f0000330c9800400c9800510c9800620c98001b
:101f1000730c98000a02b1000802b000ff0f5500d0
:101f2000efff3e00090078004f05be004f04be00e1
:101f3000000006000000fa00cfb897006881570043
:101f400040838000100078002d0007000080fa0018
:101f50000000060000003700ea874700889fbe00a7
:101f60008a9fbe008e1f780000047800030078006e
:101f70007287570084e2260055c72600049fbe00e2
:101f8000c3962200030f78006c875700004feb00c8
:101f900011059000a1049000910578000200e00076
:101fa00002003200020778000100370072875700f4
:101fb0000000e00002003a000e0078000f02070067
:101fc0000a00e000030035008a0f500001003600cf
:101fd0000a0078000b02780089017800000178007f
:101fe0008e00780008007800270007004f0778006f
:101ff0004f05be004f04be00af00b1000000060058
:102000000200fa00881f780000047800e2bf9f00f9
:102010006481570008007800d10107009800900003
:102020000148a300010032000080eb004f0478005b
:102030000080fa0000000600889fbe008a1f78001a
:10204000800478004900900002047800800f54005a
:102050000100360000047800080178006a85440019
:102060001a00780049ff07001a004400000d7800ac
:10207000e8844400990c14000048eb004f057800f8
:102080004f04be0000000600f2874700889fbe0094
:102090008a9fbe008c9fbe008e1f7800800478004f
:1020a000010578000204780083057800610762006a
:1020b00002003a008b0f5400080039000801780034
:1020c0008a00780009007800fa0107008b0f54009d
:1020d00002003900880578001e0037000886550088
:1020e0000c017800f00f56000100360002012000bc
:1020f000010220007e8057002bff07008c0678002d
:102100000500370002012000fe805700090078001a
:10211000e8010700f0865600ef8f5600f9ff3e00f9
:102120004461de0000ff2f008091b9000c014100e6
:10213000fe80570009007800de0107000e00e00075
:1021400004003a00080178008a007800090078004d
:10215000d80107000b0078004f0778004f06be003b
:102160004f05be004f04be002f01b1000000060065
:1021700000000500000005000000050000017800d7
:102180000040eb008080fb008180400003112100b3
:1021900081814100134278000404e00004003a0009
:1021a000101121008100400011407800000006005d
:1021b00092017800934f520005003a00101121005f
:1021c00081004000114078000309e8000100370059
:1021d0000040e800ea4f5000eaff36000000060029
:1021e000f6874700889fbe008a9fbe008c9fbe0076
:1021f0008e1f780080047800010478008305780041
:10220000040678000000eb00c0b79f008080eb0060
:10221000d1b79f00e0b79f00f2b79f0000082000f1
:1022200080bf9f0098007800010078000005eb0057
:10223000010037000a05e800304178000204e000a0
:102240000300320053c2b300834f5100f9ff3a003c
:102250000a00e000040032000a017800090078005a
:1022600094010700180c45001807780050c2b3000d
:102270009e4f100033013a000e07e8000e0c780064
:1022800010003700cfb097000100a0000b0037000e
:10229000cfb097000110a00008003700cfb0970022
:1022a0000120a00005003700cfb097000130a0004a
:1022b00002003700cfb097000140a000c1b79f00d7
:1022c000000ce8001800780090407800b2c2b3001b
:1022d00082cf5000f1ff320007003c0002c2b30081
:1022e00082cf5000f0ff320032c2b30082cf5000e4
:1022f00007003a00efff3700d2c2b30082cf500090
:10230000e0ff320002c3b30082cf5000e0ff320092
:10231000a2c2b30082cf50000d003a00000ce800ca
:102320001c80e900000e780010007800e0b79f00e4
:102330000000e0000f003d00cfb097000100a200b8
:10234000c1b79f000000ea00e0b79f000900370016
:1023500082030700e0b79f0001003700000ce8008f
:10236000180078009000fb000103b100e98f5000d5
:10237000faff36004fb097000008a30002003200b9
:102380000010a100c0b79f0018007800e1c2b300a0
:1023900090cf100016003a008000eb00d1b79f00ec
:1023a0000000e800000c7800a1c2b30090cf10003c
:1023b00006003a00000ce8001c80e900000e7800de
:1023c00010007800d0b79f000900370063030700b2
:1023d000d0b79f0001003700000ce800180078001b
:1023e0009000fb000103b100e98f5000faff3600b6
:1023f0000800780061ff0700804678001800780028
:102400001000fb007b03070091062000810f5000a5
:102410003800320012003c0041062000810f5000bd
:10242000340032000a003c0011062000810f5000e9
:102430002000320031062000810f50009a00320047
:1024400051022000810f5000ae003a00a700370073
:1024500071062000810f5000aa003c008200370066
:1024600001072000810f50005c00320007003c0093
:10247000e1062000810f500074003200f1062000b8
:10248000810f50009f003a003900370051072000ab
:10249000810f50002700320081072000810f50007b
:1024a0004200320031072000810f500095003a00b1
:1024b000850037008d80fb000c01780000fe2f00a6
:1024c0000f004000520307000000e0009c003200b3
:1024d00018007800000ce8009041780002fe2f0000
:1024e0000f014100f88057000900780021ff070024
:1024f0000e0037008d80fb008c0178001200200058
:1025000000fe2f000f004000600307000000e00005
:102510008b003200180ce80002fe2f000f01410072
:10252000f8805700090078004d01070000054500bc
:10253000840037008d80fb008c0178000001eb00e7
:1025400000fe2f000f004000500307000000e000d5
:102550007b003200180ce80002fe2f000f01410042
:10256000f88057000900780020020700efff3700cd
:102570008d80fb008c0178000001eb0000fe2f0035
:102580000f004000410307000000e0006c00320033
:10259000180ce80002fe2f000f014100f8805700e0
:1025a0000900780088010700e0ff37008d80fb00fc
:1025b0008c0178000001eb0000fe2f000f004000ae
:1025c000320307000000e0005d00320018007800d0
:1025d000000ce80090417800160037008c0178006c
:1025e0000001eb00010f200000fe2f000f00400053
:1025f000260307000000e00051003200180ce8003c
:102600000fb097009fb097002fb19700bfb1970010
:10261000e00f5000e08f5800e00f5900e08f5900a4
:1026200003003a008001eb00a210210040003700b7
:1026300083c7b30002fe2f000f014100f88057004e
:102640000900780012020700b8ff37000b014500af
:102650008d80fb008c01780000fe2f000f004000f1
:1026600063030700360037008d80fb000c01780003
:1026700000fe2f000f004000e50207000000e00010
:102680002f00320018007800000ce800904178001c
:1026900002fe2f000f014100f8805700090078006a
:1026a000b4fe0700a1ff370000c8b30080cf56007a
:1026b00023003a00180ce8001c80e900000e7800a6
:1026c000104078000d00370000c8b30080cf5600de
:1026d0001b003a00180ce8001c80e900000e78008e
:1026e0008001eb00100178001100370001c8b30031
:1026f00081cf560012003a00180ce800e0df9f007e
:102700000800370050c2b300e0df9f000e0c7800d5
:102710000000eb00c0b79f00e0b79f008080eb0097
:10272000d1b79f0013002000e2fd2f000f014100f0
:10273000f88057000900780007fe07007bff37008c
:10274000180ce8000a0078004f0778004f06be001a
:102750004f05be004f04be006f01b100000006002f
:102760008200fa00889fbe008a1f7800000578006a
:1027700082047800c13f9f000004eb001000370086
:102780000902780088017800a2f72f000f014100ac
:1027900081f72f008f8040000a00780090fe07002c
:1027a00008004000880f500004003d00b0042000e5
:1027b000308988000084eb000400370000047800b2
:1027c0004f3897001004e000edff3a000800780051
:1027d0004f0578004f04be000080fa00000006009c
:1027e00000000600e006210000000600fdff0700d3
:1027f0006083880050838800000006008000780015
:10280000040037003104e00002003a0000005100eb
:1028100000000600010178000108a300f9ff3a005a
:102820008101780031017800f4ef2f0002024200ac
:102830000281ea000201620004082800040161002c
:10284000f7ff320083007800010178003104e000d6
:10285000fdff3a000000510000000600889fbe0006
:102860008a1f7800800478004900900002047800f4
:10287000800f540001003600000478000801780041
:102880006a8544001a00780040fd07001a004400e1
:10289000000d7800e8844400990c14000048eb0017
:1028a0004f0578004f04be000000060010007800bd
:1028b0002ef93700900190000388a3000100320038
:1028c000e6ff37000348a30001003a00f7ff0700c6
:1028d00000000600889fbe008a1f78000004780070
:1028e000010578000000eb000800e0001a0032004b
:1028f000180090000058a3000c003200ea044400c5
:1029000068009000990f100008003600b809900088
:102910000001eb008200780008007800030001004d
:102920000080eb001900e0000b003200740044004e
:102930000008eb006c0044000008eb006a00440053
:102940000008eb000000eb000a00e000020032008b
:1029500018007800f9f807004f0578004f04be0012
:1029600000000600889fbe008a1f78000004be0099
:102970000000eb000800e000290032001800900081
:102980000058a300120032006a054400680090005d
:102990009a0f100008003600b80990000001eb0003
:1029a0008200780008007800030001000080eb003e
:1029b0001a00e0001a003200740044000008eb0026
:1029c0006c0044000008eb006a0044000008eb00c3
:1029d000780a900008109000800f52000600310025
:1029e0000002520011002000cfa2de00612bb900ce
:1029f00018007800c2f8070000022000080040001c
:102a00000008eb007e0044000008eb000000eb0033
:102a10000900e0000200320018007800c7f8070043
:102a20004f0578004f04be00000006000000fa00c9
:102a3000cfb897006881570040838000100078006d
:102a40006ffd07000080fa00000006000400070088
:102a50005d000700e50007000d0107003efd37009f
:102a6000ec874700889fbe008a9fbe008c9fbe00f7
:102a70008e1f780000067800010478001807900087
:102a80002805900098067800cdb79f00b805900003
:102a90003202be002203be000400be000601be00da
:102aa0004f18de006011b8008000eb00d0b79f0027
:102ab000e1b79f00f2b79f0083bf9f0080047800ba
:102ac0000900e000060032006000b8006011b800a4
:102ad000040250008582580006035900878359007c
:102ae0000e00e000020035000d10a100cdb79f00e0
:102af0000900e00005003a004fb097000028a3004d
:102b000002003a000038a300020032008a00e90007
:102b1000010037008a007800f8815700a2002000e9
:102b2000080078005f0007000900e00003003a0099
:102b3000cfb097000128a300080032000000e90090
:102b400000814500b1c2b3000900e000010032007d
:102b5000d1c2b30001497800060037000138a30054
:102b6000040032000000e9008080450002c2b3008a
:102b700082487800480190000201e90000015100fc
:102b8000808045004fb297008a0178000c007800e1
:102b90003dfd07009c0090000188a3000400320066
:102ba00098009000810f500001003d000100780066
:102bb0004f0778004f06be004f05be004f04be0011
:102bc000cf00b100000006000200fa00889fbe009e
:102bd0008a9fbe000005780001047800020078009a
:102be00018019000a805900098007800b1bf9f00e0
:102bf000b80490000200e000020035000110a100be
:102c0000b1bf9f00ea815700820020008b0078004e
:102c10003002be002003be0008007800210007003b
:102c20003fb99700f0006100040032000000e900a5
:102c30008080440002c3b300824878003fb9970007
:102c4000e8006100040032000000e90080804400d8
:102c500002c2b30082487800480190000201e900f6
:102c600000015100808044003fba97008b0178003a
:102c70000a00780004fd07009a0090000188a30074
:102c80000400320098009000810f500001003d00c8
:102c9000010078004f05be004f04be000080fa001e
:102ca00000000600f4874700889fbe008a9fbe0090
:102cb0008c9fbe008e1f78000605be000404be0077
:102cc00081bf9f0082b79f00f3b79f00b0009000c4
:102cd000e1b79f001301780092b79f009006900023
:102ce000400690000c06e9000d00e00001003d00e8
:102cf0001d002000efb197000c8041000048eb0060
:102d00001e0020001f0037000c06e9000fb09700de
:102d1000cf80de006109b900a0b79f00b1b79f0066
:102d2000c2b79f00d3b79f000203be000002be00df
:102d30000800be000a01be00c402070000077800b8
:102d4000efb097000c80400003c3b3000348470076
:102d50008d06e9000fb897000000e90080bf9f00d2
:102d60002fb29700bfb297004fb39700dfb3970021
:102d70000800be000a01be00ad0207000205be0049
:102d80000004be000c00e0000d003200e00f540013
:102d9000e08f5c00e00f5d00e08f5d00daff3a003d
:102da0000d00e000d8ff3c008fb897000100e00064
:102db000030034001fb197000218a300d2ff3a00ad
:102dc0000e00e00002003a00ffb197001340a1009e
:102dd0000c0078004f0778004f06be004f05be007c
:102de0004f04be004f01b100000006000200fa00cf
:102df000889fbe008a9fbe0080047800010478008e
:102e000002007800180190002805900098007800d2
:102e1000b1bf9f00b80590000200e000020035003d
:102e20000110a100b1bf9f00ea815700a20020005d
:102e30008a0078003002be002003be00080078003f
:102e400098ff0700480190000201e90000015100cd
:102e5000808045003fba97008a0178000900780019
:102e600089fc0700990090000188a300040032004b
:102e700098009000810f500001003d000100780093
:102e80004f05be004f04be000080fa00000006009f
:102e9000fa874700889fbe008a9fbe008c9fbe00b5
:102ea0008e1f780080047800010478008205780085
:102eb000180190002805900018077800b8009000cd
:102ec0000200e000020035000e10a10001003700f2
:102ed0001200200070006700e0b79f000900320078
:102ee0003b02be002b03be00e00f5200e08f5a00f1
:102ef000e00f5b00e08f5b00020032008a86e90091
:102f0000010037008a067800e8026700f5b79f00e5
:102f1000010032008d06e9003b02be002b03be001b
:102f2000e4af9f00f5af9f0086b79f0097b79f0063
:102f3000480690000c06e9000c8040000048eb00b9
:102f4000efb297007fb29700890378008104780080
:102f5000d8af9f00020478008bbf9f008a057800dd
:102f6000034578002b0037000c06e9006fab970093
:102f70006f006300e90f500002003c000003b00046
:102f8000010037007005b0000a03fb001604b10011
:102f9000f90f53000c003e00000378000650a0001b
:102fa0001606b100f90f530007003e00b4b79f00aa
:102fb000a5b79f00c7b79f0047010700cfb3970091
:102fc000afb297003fb297000c834400004b7800eb
:102fd0000804e9008d06e9006fa89700ffa8970094
:102fe0000fb197009fb19700460020008301d100e8
:102ff0000281d3008180d3000080d3000603e90062
:10300000faff3a00e0af9f00f1af9f0082b79f0048
:1030100093b79f00e10f56000f0036006fa897008e
:10302000ffa897000fb197009fb19700e00f5000e5
:10303000e08f5800e00f5900e08f5900caff3a00b6
:103040000800e000c8ff3c000d00e0000200340072
:103050000e18a300c4ff3a0089007800f4b79f005f
:10306000870478005fac97008a4178000b057800f0
:103070008fbd97000500e000120032003b02be0049
:103080002b03be00e4af9f00f5af9f0086b79f0003
:1030900097b79f00e00f5200e08f5a00e00f5b00ef
:1030a000e08f5b00070032000c06e9000c80400056
:1030b000034878000c06e9000c80400002c3b3000e
:1030c00002487800ffb297000500e00004003200db
:1030d0000c06e9000c80400002c2b30002487800f0
:1030e000480190000201e9000c0151008c80400071
:1030f0000e0278008a01780009007800e2fb0700e0
:10310000990090000188a30004003200980090000c
:10311000810f500001003d00010078004f0778004a
:103120004f06be004f05be004f04be00af01b10008
:10313000000006008000780010002000020220003d
:10314000828f500004003200e9805000e48f50006c
:10315000010036000000eb0000000600889fbe0062
:103160008a1f7800800478000904780088047800b9
:10317000394578000a00fb00eeff07000000e00080
:10318000f9ff3a00b0c2b300804f5500050032008d
:10319000d0c2b3008000eb00804f550005003a001c
:1031a000020037008000eb00010037001100200012
:1031b0000804e8000000eb0003003700ea00b90053
:1031c000020050000003b0003801fb0003fd2f0097
:1031d00082814100e98f5100f8ff36000100e000d4
:1031e00001003a000000ea004f0578004f04be00dd
:1031f00000000600f1fb2f0080804000f98f500096
:1032000001003e000050a00000000600f9ff37005a
:10321000881f78000004780000082000808f50008c
:103220001700350010082000808f50000b0034007c
:1032300030082000808f500011003a009200780082
:1032400068805000000978003002be002003be00f4
:10325000049cbe000694be0007003700920278006e
:1032600064805200000978001000be00a50007002d
:10327000009cbe000294be00100020000100370038
:103280000000eb004f0478000000060084082000d6
:10329000848f50001d0032000d003c0014082000f7
:1032a000848f50002700320002003c0004082000f8
:1032b0000400370024082000848f50002a003200c8
:1032c00044082000848f500048003a003b0037003b
:1032d000040a2000848f50002c00320004003c00bf
:1032e00004092000848f500040003a002d00370070
:1032f000020c2000828f50001e003200020f2000be
:10330000828f500039003a00300037009380e90086
:103310000200e00005003200810978001102fb0084
:10332000cfa2de00612bb9002d00370081097800a3
:10333000114278000482fb008002eb006033b80089
:103340002700370013027800e40052000200e0007a
:103350000a003200810978001102be004fabde0086
:10336000860378001e00370093027800e880520040
:103370000e00370093027800e48052008109780043
:103380001102be006033b800150037009380e900d9
:103390008109780011027800cfa2de00612bb9000c
:1033a0000f00370013037800e8005300810978000c
:1033b0003102be002103be00090037009380e900fe
:1033c0000200e00002003200f1ff37009380e900c4
:1033d00081097800110278008002eb006033b800a8
:1033e0000498be000690be00100005000000050015
:1033f00044082000848f5000270032000a003c005f
:1034000014082000848f50001c0032002408200083
:10341000848f50002600320004082000848f500062
:103420002c003a001c00370004092000848f500053
:103430001f00320004003c0084082000848f5000ec
:1034400024003a0007003700040a2000848f50004f
:1034500011003200040c2000848f50001d003a003f
:10346000060037009380e900810978009100780018
:103470000108780082487800150037009380e90041
:10348000810978009100780001087800cf91de0072
:103490008288be000e0037009380e9008109780021
:1034a0009100780001087800820878000800370051
:1034b0009380e90081097800910078000108780084
:1034c0006112b900612bb9008498be008690be00dd
:1034d0001000050000000500f1f92f008080400079
:1034e000f98f500001003e00f005b2000000060018
:1034f000f9ff370000000600bcfc0700fdff0700d5
:10350000fcff37008103780051f607000001be0080
:103510006000b8000478a30013003a006220e100c4
:1035200015003e000d0039008301d1000281d30057
:103530008180d3008301d1000281d3008180d30038
:103540008301d1000281d3008180d3000538b0000f
:10355000c42add00f300b2008381720007f0a700e7
:1035600003f0a0000000060083ff270002002000f7
:103570006110b900f9ff370003ff2700f7ff37009c
:10358000020ab900001bb9000200b8008100420025
:10359000810043000000060000c0da0000000600c1
:1035a00000c0da0000000600889fbe008a9fbe00af
:1035b00030044200b0844a0030054b0090854b0037
:1035c0006000b1000898be000a90be000440e1000f
:1035d00005c8e10006d0e10007d8e1000200310093
:1035e000680040001008e8004f05be004f04be0010
:1035f00000000600889fbe008a9fbe003004be0007
:103600002005be000418540005985c0006185d00f3
:1036100007985d00110020000440e10005c8e100aa
:1036200006d0e10007d8e100010039008000eb007e
:10363000108810004f05be004f04be0000000600b9
:10364000f4874700889fbe008a9fbe008c9fbe0003
:103650008e1f7800d0b79f00e1b79f00f2b79f00a0
:1036600083bf9f000605be000404be00cfae9700d6
:103670000000eb00c0b79f00b0b79f00a0b79f004d
:1036800090b79f0080b79f00000678004fb097006a
:10369000000140000000e00006003d003c00070083
:1036a0000f074700450007000f004000beff07005e
:1036b00005003700360007000f0747003f000700ee
:1036c0000f004000cbff07004fb797000e00e0004f
:1036d0000c0035005fb29700efb297007fb3970000
:1036e0008fbb970010002000010020006011b8007f
:1036f00000027200818272000203730083837300f0
:103700001c0007000c06e80001042000810f560091
:10371000deff3a000e00e00005003d000802be009a
:103720000a03be0000fe2f000f0040009eff0700ae
:103730000d00e00005003a000fb297009fb297001d
:103740002fb39700bfb397000a0007005fb0970040
:10375000efb097007fb197008fb997004f077800bf
:103760004f06be004f05be004f04be004f01b10022
:1037700000000600010007000000060094b79f004b
:10378000a5b79f00b6b79f00c7b79f00000006000f
:103790009fb097004f08de0002017000a2b79f00a3
:1037a0000fb097004f01de00818040008100710062
:1037b00091b79f000efe2f0000000600de0078008b
:1037c0004f09de00000040000000710080b79f003c
:1037d0006fa897004f01de0081804000010f71004b
:1037e0000e0007004f3ade000000400004007000a9
:1037f000e0af9f00090007000402420085824a00f2
:1038000006034b0087834b00dcff07000802be0065
:103810000a03be0000fe2f00000006001fb2970042
:10382000afb297003fb39700cfb3970000000600f8
:10383000881f780018002000881f780080ff07008c
:103840008f87e9004f04780000000600801feb001e
:103850007bff07008f87e90000000600889fbe00fd
:103860008a9fbe00e00f5000e08f5800e00f590023
:10387000e08f59000c003d006044b8006055b8006e
:103880000000540081805c0002015d0083815d00c6
:10389000180020001500070008003d001800070070
:1038a0000004eb00050037000004eb000f000700e8
:1038b00002003d001200070018002000dcff070096
:1038c0000800e000060032006022b8006033b80053
:1038d0000000520081805a0002015b0083815b007e
:1038e0004f05be004f04be0000000600e00f52006e
:1038f000e08f5a00e00f5b00e08f5b0000000600e5
:103900006044b8006055b8000402540085825c0031
:1039100006035d0087835d0000000600889fbe00ef
:103920008a9fbe008c1f7800e00f5000e08f580087
:10393000e00f5900e08f59000d003d006044b800d1
:103940006055b8000000540081805c0002015d00f9
:1039500083815d001c0020000820e10009a8e1002f
:103960000ab0e1000bb8e1000d003d00080037008f
:103970000006eb00e00f5200e08f5a00e00f5b0002
:10398000e08f5b0006003d006044b8006055b80061
:103990000402540085825c0006035d0087835d009d
:1039a000aaff07000c00e000060032006022b80009
:1039b0006033b8000000520081805a0002015b00b1
:1039c00083815b004f0678004f05be004f04be00a8
:0439d00000000600ed
:020000040000fa
:1039d4005354000041540000453a00002000000008
:1039e40053540000415200005455000050000000a0
:1039f4004c560000005000005245000043480000af
:103a040041520000474900004e47000000480000b2
:103a140056200000454e0000414200004c45000085
:103a240044000000445200004956000045000000d4
:103a340046410000554c0000542000002d20000099
:103a44000044000052490000564500002052000086
:103a54004551000055450000535400002046000025
:103a6400524f00004d2000004c5600000050000052
:103a74005245000043480000415200004745000001
:103a840020540000494d0000454f000055540000eb
:103a940000420000524100004b450000204e00004f
:103aa4004f540000205000005245000053530000c2
:103ab400454400000048000056200000444900002e
:103ac40053410000424c00004544000020570000d0
:103ad400484900004c4500002044000052490000c1
:103ae400564900004e47000000530000454e0000b8
:103af400534f00005220000044490000534300008b
:103b040052450000504100004e430000590000009f
:103b1400534f000046540000204200005350000060
:103b24004420000054520000495000005045000059
:103b3400440000005348000055540000444f000066
:103b4400574e000020430000495200004355000036
:103b540049540000204f0000504500004e00000072
:103b640050450000444100004c530000204e00002a
:103b74004f54000020430000414c00004942000023
:103b84005241000054450000440000004841000038
:103b94005244000020420000535000004420000022
:103ba40054520000495000005045000044000000f9
:103bb400594900004b450000530000000a0d000065
:103bc4000041000050500000533100003a20000032
:103bd40025750000252500000a0d000000410000a5
:103be40050500000533200003a20000025750000b8
:103bf400252500000a0d000000420000524100008b
:103c04004b4500003a2000002575000025250000e2
:103c14000a0d0000001b00005b3100003b31000076
:103c2400481b00005b3200004a000000c3f500009e
:103c34004840000000000000003f00003c0000007d
:103c4400cdcc0000cc3d00000000000000000000ce
:103c540064000000000100000203000004050000ed
:103c64000607000008000000000100000203000035
:103c74000405000006070000080000005f4700007c
:0c3c84003b2f0000231700000b05000080
:020000040000fa
:103c90000200fa00000f780060e329001e004000d7
:103ca000104078000080fa00000006000400fa00ce
:103cb000004f78000e80e800010878001e80fb00ad
:103cc0000000e00003003200e10f5000100032005d
:103cd0001e0037000e80e80010007800816120008f
:103ce0000080e800010878000e80e800900078006d
:103cf00080c0b300804878000e80e8001000780093
:103d000011c0b3000000e800014878001e00370031
:103d10000e80e80010007800416220000080e8007a
:103d2000010878000e80e8009000780080c0b300a1
:103d3000804878000e80e8001000780011c0b300c1
:103d40000000e800014878000f0037000e80e8000e
:103d5000100078008000eb000080e8000108780087
:103d60000e80e800900078000040eb00804878006a
:103d70000e80e800100078008040eb000000e800b2
:103d800001487800000000000080fa0000000600f2
:103d90000200fa000040eb00004f780007003700f7
:103da0001e80fb00c200dd00800521000080400075
:103db0008040eb00014878001e4fe8001e4078006c
:103dc0000004e000f6ff32000080fa000000060068
:103dd0000400fa008e80e800800878000e80e80079
:103de00010007800e10f500003003a00003180001d
:103df000690f6000030037000000eb00000f78003f
:103e0000000000001e0078000080fa00000006009c
:103e10000200fa00000f78001e007800e10f500049
:103e200003003a002066a9000000000001003700ee
:103e3000000000000080fa00000006000200fa0006
:103e4000004f78001e80fb00e10f500003003a0095
:103e50001d06a8000000000001003700000000005f
:103e60000080fa00000006000400fa008e80e800de
:103e7000800878000e80e80010007800e10f500004
:103e800006003a0000318000c8800a0000000000ef
:103e90000080fb00000f7800030037000000eb00fb
:103ea000000f7800000000001e0078000080fa007b
:103eb000000006000200fa00000f78001e007800e3
:103ec0000000e00006003a00813080000030200051
:103ed0000100700080308800000000000100370001
:103ee000000000000080fa00000006000a00fa004e
:103ef000889fbe008a9fbe0066054700000d7800bf
:103f000068004700010878000040eb00004f78008f
:103f100066004700900078000e80e80011087800e5
:103f200066004700100078008080e80066004700c7
:103f300001087800660047009000780064004700a0
:103f40001108780066004700100078008080e800c3
:103f500066004700010878006600470010007800fe
:103f600010007800004078006f4060006f406000f3
:103f70006f406000e8004700910078000080fb007f
:103f80006f0060004200dd00648540009a05780003
:103f90003afc2f000a8565000a0570006480400025
:103fa0000a087800660047001000780010007800ca
:103fb000700060004400de0000407800e1406000d6
:103fc00068004700100078008180fb00e1806000fd
:103fd000640540001a0578000a00a1008a8070007c
:103fe0006400400001087800660047001000780077
:103ff0009000780000022000008060004500de0094
:104000000040780061406000e800470091007800bf
:104010000080fb00610060000000400064854000fb
:104020001a0578000a10a1000a057000648040009b
:104030000a087800660047001000780090007800b9
:1040400000042000008060004600de000040780090
:10405000e140600068004700100078008180fb00ac
:10406000e1806000c708dd00640540001a057800a3
:104070000a70a1008a807000640040000108780086
:1040800066004700100078009000780000082000cb
:10409000008060004700de0000407800e1406000e2
:1040a00068004700100078008180fb00e18060001c
:1040b000c608dd00640540001a0578000a60a1000a
:1040c0008a807000640040000108780068004700a2
:1040d000100078006400400010007800610060006b
:1040e0000000e00012003a000e80e80010007800a6
:1040f0006101b800f07f200001002000020278007a
:1041000003017800800178008100780003006200dc
:104110008100610081047800000478000800be007e
:1041200068014700120178000089be0031003700a5
:104130000e80e800100078006104b800f07f2000d5
:104140000100200008057800090478008004780048
:104150008100780009006500810064008103780017
:10416000000378000600be00c204dd000800200045
:1041700064004700100078006103b800f0ff2100e0
:10418000010020000605780007037800800378000e
:1041900081007800070065008100630081027800db
:1041a000000278004528dd00cb20de008100700091
:1041b0004520dd0000027400818274000e80e8005a
:1041c000100078004b00de008000eb00000078005b
:1041d0007f0060008001eb00000178000200be005b
:1041e00000007200818072006801470012017800af
:1041f0000089be006600470010007800e40040001f
:104200006600470001087800680047001000780049
:10421000640040001000780052800a000000000096
:104220000080fb009afe0700004f7800820020000b
:104230008000eb0000142100dbf607001e80fb006d
:10424000000178006600470090007800001421000b
:10425000cef6070068004700100078000114210026
:1042600066004000010878004f05be004f04be0004
:104270000080fa00000006000600fa000e81e80047
:104280000009780064004700010878000040eb0056
:10429000004f780064004700100078006400400080
:1042a00010007800610060000000e0000f003a009c
:1042b00064004700100078001000be008000780005
:1042c000f07f2000808060000e80e8001000780001
:1042d000010878000e80e80010007800e40040003b
:1042e0000e80e800010878002700370064004700ce
:1042f000100078001000be004208de008000780048
:10430000f07f20000081600064004700100078000a
:104310001000be00000078004b00dd00820070003d
:104320000e80e80010007800010878000e80e80098
:10433000100078008080e8000e80e8000108780016
:1043400064004700100078001000be004b09dd003b
:104350004500de0000007100c508de008000780026
:10436000f0ff2100808060000e80e80010007800df
:10437000010878000e80e800100078008080e800d6
:104380000e80e80001087800640047001000780003
:10439000640040001000780052800a000000000015
:1043a0008080fb006400470010007800640040003b
:1043b0001000780000800a00000000000080fb0070
:1043c0004400dd0070006000810070006400470060
:1043d00010007800640040001000780011800a008e
:1043e000000000000080fb004500dd0000017800b7
:1043f000000220000000610081007000640047009e
:1044000010007800640040001000780077800a00f7
:10441000000000000080fb004600dd000001780085
:10442000000420000000610081007000640047006b
:1044300010007800640040001000780066800a00d8
:10444000000000000080fb004700dd000001780054
:10445000f00f200000006100810070000e80e80075
:104460001000780001087800640047001000780010
:104470006400400010007800620060000000e0006e
:1044800017003a000e80e80010007800e4004000b9
:104490000e80e800010878006400470010007800f2
:1044a000640040001000780052800a000000000004
:1044b0000080fb00f6fd0700004f78001e80fb0027
:1044c000e400470091007800e68040009100780009
:1044d000000178000e80e800100078002bf607003d
:1044e0000080fa00000006000000fa0000402000f2
:1044f0008030880000042000903088000080fa009e
:10450000000006000000fa0000402000e0308800b3
:104510001e26ef000080fa00000006000000fa00ee
:104520008133800000fe2f00008060000000a000aa
:1045300080338800000d2000003488008226ef00c0
:104540008426ef00000024003034880070e6a800c4
:104550000080fa00000006000000fa0010102000a1
:10456000202e880040302100302e88000080fa0084
:10457000000006000000fa00c1e5a800004120008c
:10458000102e880040002000110007000000e0000d
:104590000d003a00c00c2100603088000076290030
:1045a000002e8800c265a900c285a800eaff0700a6
:1045b000cdff0700d3ff0700d8ff0700f4fd070079
:1045c00060002000020007000080fa0000000600e2
:1045d0000400fa008e80e800800878000000eb00fc
:1045e000000f78002e000700e40f50000800320092
:1045f0000e80e80010007800e10f50000400320047
:104600000e80e80010007800e40f50001f003a0010
:104610000e80e800100078000040780067406000dd
:104620000080fb00670060004800dd00122e800063
:10463000f18f2f008100610001007000102e8800b2
:1046400009003700e12e800000002100008060009a
:104650000000e0000400320020002000000f78007d
:10466000000000000b003700102e800075800a004b
:10467000000000000080fb008e80e80091007800c0
:10468000810f5000efff3a000200370010002000b9
:10469000000f78001e0078000080fa00000006007d
:1046a0000000fa00102e800075800a000000000053
:1046b0000080fb000080fa00000006000c00fa00f9
:1046c000ea004700800878008040eb000e00e80018
:1046d000014878000040eb00004f7800510037009f
:1046e0001e80fb00c200dd0060052100008040004c
:1046f000900078000e80e8000148780066004700ce
:10470000800078000e80e8001040780067fd070008
:104710000e80e800104078000080fb00acfd070030
:1047200080007800640047000108780064004700ba
:104730001000780061006000004078000004e00094
:104740003700320068004700100078001000780041
:104750000000e000370032006800470010007800d9
:1047600010007800ea00470091007800dffd0700a4
:104770000e80e80010407800b0fd07001e80fb00ae
:104780009e80fb00c208dd000181e8006105210078
:1047900081004100914078008140e8004201dd0045
:1047a0008005210000004100014878001e80fb00c8
:1047b0004200dd008080e8006005210000804000ac
:1047c00090407800670047001040780080cf50008c
:1047d000060039001e80fb00c200dd0080052100bc
:1047e000008040008040eb000148780064004700f2
:1047f00010007800680060000000e0000400320053
:104800000e80e800104078000080fb0080fd07006b
:1048100011c0b3000e00e800014878000600370020
:104820001e4fe8001e4078000004e000acff32009c
:1048300001003700000000000e00e8001040780082
:104840000080fa00000006000a00fa006601470036
:1048500000097800680047000108780066004700fa
:1048600010007800004078008e80e8000ffd0700ff
:104870000000eb00000f780068004700100078008f
:104880006400400090007800000820000080600074
:104890000000e00006003200012e80000000210030
:1048a000008060000000e000010032001e10a00047
:1048b0006800470010007800640040001000780095
:1048c00052800a00000000000080fb00e80f50004a
:1048d000010034001e00a0006800470010007800ae
:1048e000640040001000780052800a0000000000c0
:1048f0000080fb00e6fc07008e80e8009140780015
:10490000814f5000010036001e00a0001e007800fc
:104910000000e00016003a00660047001000780032
:1049200016000700e10f50000f003a006400470036
:1049300010007800100078000000e0000c00320049
:10494000640047001000780010007800e80047007d
:104950009100780048fe07006600470010007800cc
:1049600054fd0700020037009e007800638f70003e
:104970001e0078000080fa00000006000400fa0023
:104980008e80e800800878000e80e8001000780033
:104990000000e00004003a00a030800061006000e8
:1049a000000f7800030037000000eb00000f7800d4
:1049b000000000001e0078000080fa0000000600e1
:1049c0000c00fa008040eb006300470001487800cb
:1049d0000040eb00004f78008040eb000e00e80044
:1049e000014878008040eb000e80e8000148780024
:1049f0000040eb00004f7800670037001e80fb008e
:104a0000c200dd00600521000080400090007800b9
:104a10006300470001487800680047008000780084
:104a20006300470010407800a0fc070063004700c7
:104a3000104078000080fb00e5fc07008000780053
:104a40006400470001087800640047001000780007
:104a500061006000004078000004e0004d0032007a
:104a60006400470010007800680060000000e0006b
:104a7000040032000e00e800e90047001148780009
:104a80003d00370063004700104078000080fb00c5
:104a9000f5fc0700800078006600470001087800f8
:104aa0001e80fb004200dd008080e80060052100e0
:104ab00000804000104078000080fb00e6004700c6
:104ac00091007800810f5000100036006900470007
:104ad00090407800660047001000780000407800a1
:104ae00080c040001e80fb004200dd000081e80025
:104af00060052100000041001040780080c0500097
:104b00000e00e800014878001b0037001e80fb0003
:104b10004200dd008080e800600521000080400048
:104b2000104078000080fb00e6004700910078000c
:104b3000810f50000d003100660047001000780022
:104b4000804078001e80fb004200dd000081e8000c
:104b500060052100000041001040780080c0500036
:104b60000e00e80001487800030037000e00e8005e
:104b7000e9004700114878000e80e8009040780076
:104b80000e00e8001040780080c040000e80e80071
:104b9000014878001e4fe8001e4078000004e00045
:104ba00096ff32000e80e800104078000080fa0086
:104bb000000006000000fa00b02f800055800a00b7
:104bc000000000000080fb0000f0a7000000ea00e9
:104bd0000000ea004f00de00004078000080fa008c
:104be000000006000000fa00b02f800033800a00a9
:104bf000000000000080fb0000f0a7000000ea00b9
:104c00000000ea004f00de00004078000080fa005b
:104c1000000006000000fa00b02f800011800a009a
:104c2000000000000080fb0000f0a7000000ea0088
:104c30000000ea004f00de00004078000080fa002b
:104c4000000006000200fa000040eb00004f780070
:104c5000f4c5bf000004e00005003200f4c5bf0049
:104c60000004e0000200350010c0b300004f7800df
:104c70001e4078000080fa00000006000000fa00e4
:104c8000b02f800044800a00000000000080fb007c
:104c900000f0a7000000ea000000ea004f00de007c
:104ca000004078000080fa00000006000000fa00d2
:104cb000b02f800022800a00000000000080fb006e
:104cc00000f0a7000000ea000000ea004f00de004c
:104cd000004078000080fa00000006000200fa00a0
:104ce0000040eb00004f7800f5c5bf000004e00075
:104cf00005003200f5c5bf000004e00002003500e9
:104d000010c0b300004f78001e4078000080fa0009
:104d1000000006000000fa00ddc5a900dfc5a800fc
:104d20002328a8001000200029fe07000080fa00b8
:104d3000000006000000fa000080fa0000000600f3
:104d40000000fa000080fa00000006000000fa00ef
:104d50000080fa00000006000000fa000080fa005f
:104d6000000006000000fa000080fa0000000600c3
:104d70000000fa000080fa00000006000000fa00bf
:104d80000080fa00000006000000fa00e12e80001a
:104d900000002800008060000000e00002003200f7
:104da000e4ff0700dde5a900e12e800000002200fd
:104db000008060000000e00002003200e3ff070016
:104dc000dda5a900e02e8000680060000000e00082
:104dd00002003200e0ff0700dc65a900e12e800040
:104de00000002100008060000000e00002003200ae
:104df000dcff0700dd85a900e12e800000402000d7
:104e0000008060000000e00001003200d8ff0700d1
:104e100000318000680060000000e0000200320005
:104e2000d6ff07002066a9000080fa0000000600f7
:104e30000200fa00000f7800c0e229001e004000c6
:104e4000104078000080fa00000006000400fa001c
:104e5000004f78000e80e800010878001e80fb00fb
:104e6000e10f50000f003a000e80e80010007800bb
:104e7000414a20000080e800010878000e80e80028
:104e80009000780080c0b300804878000e80e80071
:104e90001000780011c0b3000000e800014878005d
:104ea0000f0037000e80e800100078008000eb0053
:104eb0000080e800010878000e80e800900078008b
:104ec0000040eb00804878000e80e8001000780079
:104ed0008040eb000000e80001487800000000007e
:104ee0000080fa00000006000200fa000040eb001b
:104ef000004f7800070037001e80fb00c200dd0075
:104f000040052100008040008040eb00014878000f
:104f10001e4fe8001e4078000004e000f6ff32005b
:104f20000080fa00000006000400fa008e80e8000d
:104f3000800878000e80e80010007800e10f500033
:104f400003003a0000258000690f6000030037006d
:104f50000000eb00000f7800000000001e00780049
:104f60000080fa00000006000200fa00000f78003e
:104f70001e007800e10f500003003a00a064a90071
:104f80000000000001003700000000000080fa006f
:104f9000000006000200fa00004f78001e80fb00af
:104fa000e10f500003003a009d04a800000000003b
:104fb00001003700000000000080fa000000060039
:104fc0000400fa008e80e800800878000e80e80077
:104fd00010007800e10f500006003a000025800024
:104fe000c8800a00000000000080fb00000f78006d
:104ff000030037000000eb00000f78000000000005
:105000001e0078000080fa00000006000a00fa0086
:10501000889fbe008a9fbe0066054700000d78008d
:1050200068004700010878000040eb00004f78005e
:1050300066004700900078000e80e80011087800b4
:1050400066004700100078008080e8006600470096
:10505000010878006600470090007800640047006f
:105060001108780066004700100078008080e80092
:1050700066004700010878006600470010007800cd
:1050800010007800004078006f4060006f406000c2
:105090006f406000e8004700910078000080fb004e
:1050a0006f0060004200dd00648540009a057800d2
:1050b0003afc2f000a8565000a05700064804000f4
:1050c0000a08780066004700100078001000780099
:1050d000700060004400de0000407800e1406000a5
:1050e00068004700100078008180fb00e1806000cc
:1050f000640540001a0578000a00a1008a8070004b
:105100006400400001087800660047001000780045
:105110009000780000022000008060004500de0062
:105120000040780061406000e8004700910078008e
:105130000080fb00610060000000400064854000ca
:105140001a0578000a10a1000a057000648040006a
:105150000a08780066004700100078009000780088
:1051600000042000008060004600de00004078005f
:10517000e140600068004700100078008180fb007b
:10518000e1806000c708dd00640540001a05780072
:105190000a70a1008a807000640040000108780055
:1051a000660047001000780090007800000820009a
:1051b000008060004700de0000407800e1406000b1
:1051c00068004700100078008180fb00e1806000eb
:1051d000c608dd00640540001a0578000a60a100d9
:1051e0008a80700064004000010878006800470071
:1051f000100078006400400010007800610060003a
:105200000000e00012003a000e80e8001000780074
:105210006101b800f07f2000010020000202780048
:1052200003017800800178008100780003006200ab
:105230008100610081047800000478000800be004d
:1052400068014700120178000089be003100370074
:105250000e80e800100078006104b800f07f2000a4
:105260000100200008057800090478008004780017
:1052700081007800090065008100640081037800e6
:10528000000378000600be00c204dd000800200014
:1052900064004700100078006103b800f0ff2100af
:1052a00001002000060578000703780080037800dd
:1052b00081007800070065008100630081027800aa
:1052c000000278004528dd00cb20de008100700060
:1052d0004520dd0000027400818274000e80e80029
:1052e000100078004b00de008000eb00000078002a
:1052f0007f0060008001eb00000178000200be002a
:10530000000072008180720068014700120178007d
:105310000089be006600470010007800e4004000ed
:105320006600470001087800680047001000780018
:10533000640040001000780052800a000000000065
:105340000080fb00bafe0700004f780082002000ba
:105350008000eb008013210093f207001e80fb0009
:10536000000178006600470090007800801321005b
:1053700086f20700680047001000780081132100c2
:1053800066004000010878004f05be004f04be00d3
:105390000080fa00000006000000fa000040200033
:1053a000e02488009e24ef000080fa000000060040
:1053b0000000fa008127800000fe2f0000806000be
:1053c0000000a000802788000047200000288800f7
:1053d0000225ef00e07f2000202888000000240044
:1053e00030288800f0e4a8000080fa0000000600e1
:1053f0000000fa00f0f1210020228800e0072000e0
:10540000302288000080fa00000006000000fa0048
:1054100041e4a80000402000102288004000200045
:10542000100007000000e0000c003a00801221008c
:105430006024880000762900002288004264a900c8
:105440004284a900eaff0700d3ff0700d8ff070046
:10545000a5fe070060002000020007000080fa009f
:10546000000006000400fa008e80e8008008780042
:105470000000eb00000f78002e000700e40f500042
:10548000080032000e80e80010007800e10f5000a4
