:020000040000fa
:080000000002040000000000f2
:020000040000fa
:04000800d20300001f
:020000040000fa
:04000c0014040000d8
:020000040000fa
:040010005404000094
:020000040000fa
:04001400f2030000f3
:020000040000fa
:0400180034040000ac
:020000040000fa
:04001c007406000066
:020000040000fa
:040020007404000064
:020000040000fa
:04002400740600005e
:020000040000fa
:04002800740600005a
:020000040000fa
:04002c0012050000b9
:020000040000fa
:040030007406000052
:020000040000fa
:04003400740600004e
:020000040000fa
:04003800740600004a
:020000040000fa
:04003c007406000046
:020000040000fa
:040040007406000042
:020000040000fa
:04004400740600003e
:020000040000fa
:04004800740600003a
:020000040000fa
:04004c007406000036
:020000040000fa
:040050007406000032
:020000040000fa
:04005400740600002e
:020000040000fa
:04005800740600002a
:020000040000fa
:04005c007406000026
:020000040000fa
:040060007406000022
:020000040000fa
:04006400740600001e
:020000040000fa
:04006800740600001a
:020000040000fa
:04006c007406000016
:020000040000fa
:040070007406000012
:020000040000fa
:04007400740600000e
:020000040000fa
:04007800740600000a
:020000040000fa
:04007c007406000006
:020000040000fa
:040080007406000002
:020000040000fa
:0400840074060000fe
:020000040000fa
:0400880074060000fa
:020000040000fa
:04008c00e804000084
:020000040000fa
:0400900074060000f2
:020000040000fa
:0400940074060000ee
:020000040000fa
:0400980074060000ea
:020000040000fa
:04009c0074060000e6
:020000040000fa
:0400a00074060000e2
:020000040000fa
:0400a40074060000de
:020000040000fa
:0400a80074060000da
:020000040000fa
:0400ac00be0400008e
:020000040000fa
:0400b00074060000d2
:020000040000fa
:0400b40074060000ce
:020000040000fa
:0400b80074060000ca
:020000040000fa
:0400bc0074060000c6
:020000040000fa
:0400c00074060000c2
:020000040000fa
:0400c40074060000be
:020000040000fa
:0400c80074060000ba
:020000040000fa
:0400cc0074060000b6
:020000040000fa
:0400d00074060000b2
:020000040000fa
:0400d40074060000ae
:020000040000fa
:0400d80074060000aa
:020000040000fa
:0400dc0074060000a6
:020000040000fa
:0400e00074060000a2
:020000040000fa
:0400e400740600009e
:020000040000fa
:0400e800740600009a
:020000040000fa
:0400ec007406000096
:020000040000fa
:0400f0007406000092
:020000040000fa
:0400f400740600008e
:020000040000fa
:0400f800740600008a
:020000040000fa
:0400fc007406000086
:020000040000fa
:040100007406000081
:020000040000fa
:04010400740600007d
:020000040000fa
:040108007406000079
:020000040000fa
:04010c007406000075
:020000040000fa
:040110007406000071
:020000040000fa
:04011400740600006d
:020000040000fa
:040118007406000069
:020000040000fa
:04011c007406000065
:020000040000fa
:040120007406000061
:020000040000fa
:04012400740600005d
:020000040000fa
:040128007406000059
:020000040000fa
:04012c007406000055
:020000040000fa
:040130007406000051
:020000040000fa
:04013400740600004d
:020000040000fa
:040138007406000049
:020000040000fa
:04013c007406000045
:020000040000fa
:040140007406000041
:020000040000fa
:04014400740600003d
:020000040000fa
:040148007406000039
:020000040000fa
:04014c007406000035
:020000040000fa
:040150007406000031
:020000040000fa
:04015400740600002d
:020000040000fa
:040158007406000029
:020000040000fa
:04015c007406000025
:020000040000fa
:040160007406000021
:020000040000fa
:04016400740600001d
:020000040000fa
:040168007406000019
:020000040000fa
:04016c007406000015
:020000040000fa
:040170007406000011
:020000040000fa
:04017400740600000d
:020000040000fa
:040178007406000009
:020000040000fa
:04017c007406000005
:020000040000fa
:040180007406000001
:020000040000fa
:0401840074060000fd
:020000040000fa
:0401880074060000f9
:020000040000fa
:04018c0074060000f5
:020000040000fa
:0401900074060000f1
:020000040000fa
:0401940074060000ed
:020000040000fa
:0401980074060000e9
:020000040000fa
:04019c0074060000e5
:020000040000fa
:0401a00074060000e1
:020000040000fa
:0401a40074060000dd
:020000040000fa
:0401a80074060000d9
:020000040000fa
:0401ac0074060000d5
:020000040000fa
:0401b00074060000d1
:020000040000fa
:0401b40074060000cd
:020000040000fa
:0401b80074060000c9
:020000040000fa
:0401bc0074060000c5
:020000040000fa
:0401c00074060000c1
:020000040000fa
:0401c40074060000bd
:020000040000fa
:0401c80074060000b9
:020000040000fa
:0401cc0074060000b5
:020000040000fa
:0401d00074060000b1
:020000040000fa
:0401d40048050000da
:020000040000fa
:0401d800840500009a
:020000040000fa
:0401dc00c00500005a
:020000040000fa
:0401e000fc0500001a
:020000040000fa
:0401e40038060000d9
:020000040000fa
:0401e8007406000099
:020000040000fa
:0401ec007406000095
:020000040000fa
:0401f0007406000091
:020000040000fa
:0401f400740600008d
:020000040000fa
:0401f8007406000089
:020000040000fa
:0401fc007406000085
:020000040000fa
:040200007406000080
:020000040000fa
:04020400740600007c
:020000040000fa
:040208007406000078
:020000040000fa
:04020c007406000074
:020000040000fa
:040210007406000070
:020000040000fa
:04021400740600006c
:020000040000fa
:040218007406000068
:020000040000fa
:04021c007406000064
:020000040000fa
:040220007406000060
:020000040000fa
:04022400740600005c
:020000040000fa
:040228007406000058
:020000040000fa
:04022c007406000054
:020000040000fa
:040230007406000050
:020000040000fa
:04023400740600004c
:020000040000fa
:040238007406000048
:020000040000fa
:04023c007406000044
:020000040000fa
:040240007406000040
:020000040000fa
:04024400740600003c
:020000040000fa
:040248007406000038
:020000040000fa
:04024c007406000034
:020000040000fa
:040250007406000030
:020000040000fa
:04025400740600002c
:020000040000fa
:040258007406000028
:020000040000fa
:04025c007406000024
:020000040000fa
:040260007406000020
:020000040000fa
:04026400740600001c
:020000040000fa
:040268007406000018
:020000040000fa
:04026c007406000014
:020000040000fa
:040270007406000010
:020000040000fa
:04027400740600000c
:020000040000fa
:040278007406000008
:020000040000fa
:04027c007406000004
:020000040000fa
:040280007406000000
:020000040000fa
:0402840074060000fc
:020000040000fa
:0402880074060000f8
:020000040000fa
:04028c0074060000f4
:020000040000fa
:0402900074060000f0
:020000040000fa
:0402940074060000ec
:020000040000fa
:0402980074060000e8
:020000040000fa
:04029c0074060000e4
:020000040000fa
:0402a00074060000e0
:020000040000fa
:0402a40074060000dc
:020000040000fa
:0402a80074060000d8
:020000040000fa
:0402ac0074060000d4
:020000040000fa
:0402b00074060000d0
:020000040000fa
:0402b40074060000cc
:020000040000fa
:0402b80074060000c8
:020000040000fa
:0402bc0074060000c4
:020000040000fa
:0402c00074060000c0
:020000040000fa
:0402c40074060000bc
:020000040000fa
:0402c80074060000b8
:020000040000fa
:0402cc0074060000b4
:020000040000fa
:0402d00074060000b0
:020000040000fa
:0402d40074060000ac
:020000040000fa
:0402d80074060000a8
:020000040000fa
:0402dc0074060000a4
:020000040000fa
:0402e00074060000a0
:020000040000fa
:0402e400740600009c
:020000040000fa
:0402e8007406000098
:020000040000fa
:0402ec007406000094
:020000040000fa
:0402f0007406000090
:020000040000fa
:0402f400740600008c
:020000040000fa
:0402f8007406000088
:020000040000fa
:0402fc007406000084
:020000040000fa
:04030000740600007f
:020000040000fa
:04030400740600007b
:020000040000fa
:040308007406000077
:020000040000fa
:04030c007406000073
:020000040000fa
:04031000740600006f
:020000040000fa
:04031400740600006b
:020000040000fa
:040318007406000067
:020000040000fa
:04031c007406000063
:020000040000fa
:04032000740600005f
:020000040000fa
:10040000af1121000eff27000e0188000000200020
:100410000000e000020032000001200020028800fd
:1004200014000700920207000000e00003003a00f9
:1004300000d622000100200002003700000020004a
:1004400001002000810f70004220ae000f00070065
:10045000000020000000e0004220ae00000002008a
:100460000000000008250200000000000040da0043
:100470000000fe00a00e20000000e000020032009c
:10048000002020009001880000000600a1028800e2
:10049000800478000000eb001f003700e284440075
:1004a00054a0b4009905ba00e284440054a0b400fa
:1004b0009906ba00e284440054a0b4000006eb00a0
:1004c000476fde00fd07b200ae018800636ce100fb
:1004d00003003a000ad801000000eb000e003700cc
:1004e000606ce10008003a00004deb000a05e800ee
:1004f000020039003420ec000af0a0008b05e9006e
:10050000f9ff3e00040037006168e100010032009d
:100510000086eb000b00070019c7ba001905ba00e6
:100520000e04e00003003a000a00e000dbff3a009e
:1005300000000600fe07b200ae0288008a047800c0
:10054000f5ff37000cd0a300e20f4d001c003b006c
:1005500089027800354dba000a05e800020039002a
:100560003420ec000af0a0008b05e9000f003200f7
:10057000254dba000a05e800020039003420ec00dd
:100580000af0a0008b05e900080032000c00e00032
:100590000600320015cdba000a05e8000200390055
:1005a0003420ec000af0a0008b05e9008984e80003
:1005b00054a0b4000b00e000e2ff3a000000060087
:1005c0009902ba00055d78008b05e900f7ff32005b
:1005d000c82ade00055d78008b05e900f3ff3200d4
:1005e0000c00e000f1ff320019ddba00eeff370029
:1005f0006100e10001003200100005005400f80025
:1006000020102000a002880000f92b001000ba0082
:100610005400f9000700260000f0a6008703d1006f
:100620000703780001c4fe000003eb000120200056
:1006300091018800c1072b00111303008703e90013
:10064000fdff3a0000f0a7000000050000f0a00048
:1006500080c4fe0086037800f3ff37000408200002
:10066000010037000002eb006100e10001003200f0
:10067000100005003200f8003400f8008102780014
:10068000930188003200be000100e0000c0032003f
:100690000470a70000f0a00032037800c733de002a
:1006a000848343004220af008703e800a70188004d
:1006b000f607b2007f30e100040032002000200085
:1006c0003400f9003200f900000006008100e90062
:1006d0000500e00003003a00018009003210030029
:1006e000e8ff37000180090032900300d561ae00b9
:1006f000e4ff370030002000f1ff370050052000f4
:10070000b00e8800a00a2000b00e8800d3e1a80037
:100710000000060050052000b00e8800a00a20004e
:10072000b00e8800d3e1a90000000600762e040078
:1007300000000000d028040000000000fe28040093
:1007400000000000302904000000000062290400bd
:10075000000000009429040000000000c6290400e5
:1007600000000000da29040000000000ee29040067
:1007700000000000022a040000000000162a040005
:1007800000000000da240400000000005013040000
:1007900000000000f4120400000000008e120400ab
:1007a000000000003600f800809fbe00829fbe005f
:1007b000849fbe00869fbe000000fa00c028a900ea
:1007c0000000eb00401607000080fa004f03be0057
:1007d0004f02be004f01be004f00be003600f900c0
:1007e000004006003600f800809fbe00829fbe00d9
:1007f000849fbe00869fbe000000fa0037160700e7
:10080000c048a900100020002f1607000080fa0041
:100810004f03be004f02be004f01be004f00be009e
:100820003600f900004006003600f800809fbe0048
:10083000829fbe00849fbe00869fbe000000fa001b
:10084000c068a900200020001f1607000080fa00e1
:100850004f03be004f02be004f01be004f00be005e
:100860003600f900004006003600f800809fbe0008
:10087000829fbe00849fbe00869fbe000000fa00db
:10088000c088a900300020000f1607000080fa0081
:100890004f03be004f02be004f01be004f00be001e
:1008a0003600f900004006003600f800809fbe00c8
:1008b000829fbe00849fbe00869fbe000000fa009b
:1008c000c608a90070002000ff1507000080fa008c
:1008d0004f03be004f02be004f01be004f00be00de
:1008e0003600f900004006003600f800809fbe0088
:1008f000829fbe00849fbe00869fbe000000fa005b
:100900002146800000102000008060000000e00010
:1009100003003200c508a900c0002000ea15070046
:100920002146800000022000008060000000e000fe
:1009300003003200c4a8a90090002000e2150700bf
:1009400020468000700060000000e00003003200dc
:10095000c488a900a0002000db1507002046800005
:10096000610060000000e00003003200c408a9003c
:10097000b0002000d4150700ffff37003600f80054
:10098000809fbe00829fbe00849fbe00869fbe00e7
:100990000000fa00e12280000000240000806000d6
:1009a0000000e00002003200aa1307005dc4a900a5
:1009b0000428a9000080fa004f03be004f02be00c9
:1009c0004f01be004f00be003600f9000040060097
:1009d0003600f800809fbe00829fbe00849fbe004c
:1009e000869fbe000000fa00e12e80000000240077
:1009f000008060000000e00002003200130d0700dc
:100a0000ddc5a9000328a9000080fa004f03be003d
:100a10004f02be004f01be004f00be003600f9007d
:100a2000004006003600f800809fbe00829fbe0096
:100a3000849fbe00869fbe000000fa009082800066
:100a40000000e000020032009082800000000100ff
:100a500050112100104078008040e8005011210022
:100a6000014878004011210011c0b300014878000e
:100a70000028a9000080fa004f03be004f02be000c
:100a80004f01be004f00be003600f90000400600d6
:100a90003600f800809fbe00829fbe00849fbe008b
:100aa000869fbe003200f8003400f80010002000dd
:100ab000a00188000020200000d0fe000200fa0003
:100ac00061618000010f7800e08180000000e0009b
:100ad00003003200e18180001e0078000100010067
:100ae0000d68a9000080fa003400f9003200f90016
:100af0004f03be004f02be004f01be004f00be00bc
:100b00003600f900004006003600f800809fbe0065
:100b1000829fbe00849fbe00869fbe003200f80008
:100b20003400f80010002000a00188000020200000
:100b300000d0fe000200fa0071618000010f780011
:100b4000f08180000000e00003003200f1818000ad
:100b50001e007800010001000d88a9000080fa0045
:100b60003400f9003200f9004f03be004f02be000e
:100b70004f01be004f00be003600f90000400600e5
:100b80003600f800809fbe00829fbe00849fbe009a
:100b9000869fbe003200f8003400f80010002000ec
:100ba000a00188000020200000d0fe000200fa0012
:100bb00081618000010f7800008280000000e00069
:100bc00003003200018280001e0078000100010055
:100bd0000da8a9000080fa003400f9003200f900e5
:100be0004f03be004f02be004f01be004f00be00cb
:100bf0003600f900004006003600f800809fbe0075
:100c0000829fbe00849fbe00869fbe003200f80017
:100c10003400f80010002000a0018800002020000f
:100c200000d0fe000200fa0091618000010f780000
:100c3000108280000000e00003003200118280007a
:100c40001e007800010001000dc8a9000080fa0014
:100c50003400f9003200f9004f03be004f02be001d
:100c60004f01be004f00be003600f90000400600f4
:100c70003600f800809fbe00829fbe00849fbe00a9
:100c8000869fbe003200f8003400f80010002000fb
:100c9000a00188000020200000d0fe000200fa0021
:100ca000a1618000010f7800208280000000e00038
:100cb00003003200218280001e0078000100010044
:100cc0000de8a9000080fa003400f9003200f900b4
:100cd0004f03be004f02be004f01be004f00be00da
:100ce0003600f900004006000040da000000fe0077
:100cf000ec8747008e1f78006c8757004400200067
:100d0000041f7800000f78006c87570002afbe0008
:100d1000e1bf9f006c805700a50707001e00be00c2
:100d20004f077800cf00b10000000600ec874700b5
:100d30008e1f780011002000a1bf9f006c87570014
:100d4000002f78006c8057009b0707001e0078007a
:100d50004f077800cf00b10000000600ec87470085
:100d60008e1f7800e20f500034003e00c0888000e3
:100d7000e10f500003003200e20f500011003a0072
:100d80000c003700832320000300e00001003a003c
:100d90000040da003802e200020035004022ef0095
:100da00039e2a80038a2ab000d003a0038a2a80032
:100db0000b003700032620000300e00001003a008a
:100dc0000040da006002e200020035006822ef0015
:100dd00061e2a80060a2ab0001003a0060a2a80096
:100de000820178000b0037003102fb00e10f500058
:100df00004003a003e82ab00feff3a004412880035
:100e0000030037006682ab00feff3a0084138800bf
:100e10008301e9000300e000f3ff3a00e10f500016
:100e200003003a003ea2ab00feff32000c00370088
:100e300066a2ab00feff3200090037006c87570046
:100e400033002000031f7800000f7800c1bf9f000f
:100e5000d2bf9f006c805700590707005fb9970009
:100e6000020078004f077800cf00b10000000600b4
:100e700000000500140020009b023700f4ff2f0043
:100e8000990237000001be001b0007000470a70094
:100e900003f0a10003f8a30013003a006509b100b4
:100ea00010003200090035006928e1000200350019
:100eb000010028000000050000004000818048007b
:100ec0008502e900fcff3a0000000600f88f4200ae
:100ed000050035008100d1000080d3008502e800c4
:100ee000fcff3a00000006008000eb000000050057
:100ef0006011b80097023700c70ade00f107b200a0
:100f0000f50fb20008003200e1cf420002003200cb
:100f10000170a00024000500810f70000100320064
:100f20000408050044000500810f700002003a002b
:100f3000140005008502e9000000400081c048005f
:100f4000fcff3b000170a00024000500889fbe004c
:100f50008a9fbe008c9fbe001b0020000202be00c4
:100f60000586680006002800060666004709de00c0
:100f7000f20fb200820032000243e800800032002b
:100f8000c729de00f30fb2007d0032000343e80002
:100f90007b003200f107b2000170a000f507b2003b
:100fa0000570a000c708dd004903de0086807000e0
:100fb0004700dd00c72add004923de00868272007b
:100fc0004722dd00030551000403500085835800cb
:100fd0000300310000004000818048000a05e9005c
:100fe0008c1f78008a9fbe00040050008580580046
:100ff0000402420085824a000000400081804800cf
:101000000005eb000004be006033b8000406be001b
:101010000d48e10056003100050009004dccd80014
:101020000c01b8000d02b8008481410060824a00c2
:101030008283530003045c0084845c0060055d00cf
:101040000a00e00025003a00800578000d40e1002c
:101050004900310088007800070078000500090089
:101060004d88d8000c01b8000d02b8008481410001
:1010700060824a006003110083835b0004045c000b
:10108000e0845c000900e00021003a004f01be004e
:101090000300e0002b003200e3016000070673004c
:1010a0008c81710001003200640070004200de009b
:1010b0004e5edd000c007000c258de0001e0a000b2
:1010c00083010700cf017800818071004f06be00c8
:1010d0004f05be004f04be00000006008c83430095
:1010e0000d044c00e0844c0060054d000000e90058
:1010f0000a00e000d4ff32008c8343000d044c0052
:10110000e0844c0060054d000000e900ceff370090
:101110000c0343008d834b0060044c00e0844c00c2
:101120000000e9000900e000d8ff32000c03430092
:101130008d834b0060044c00e0844c000000e9000b
:10114000d2ff37004200de004e5edd000c00700072
:10115000c258de0001e0a000cf0178000300e000eb
:10116000daff320060001000e0801800d7ff37007f
:10117000f0ff2f00aaff3700f0ff2f00b9ff370064
:101180000404be002f010700870678000004fd005c
:101190008104fd002b010700078366000678a30089
:1011a000030032000960a7000800be002c003700d1
:1011b0000d78a300020032000800be0028003700ae
:1011c0000778a30026003a0001f0a10009f0a10071
:1011d0000668a30003003200f1ff2700f0ff2f0094
:1011e000baff37000d68a300030032000800be00fc
:1011f0008c807000b5ff37000768a30007003a0035
:101200000648a30003003200f1ff2700f0ff2f0083
:10121000aeff37000d48a300030032006000b800a5
:101220008c807000a9ff37000748a300040032003b
:1012300001f82700000020008c807000a3ff370019
:10124000760107000004fd008104fd00020578001e
:10125000720107000802be008a01780059ff3700ba
:101260000160a00012022000a282880097ff3700d0
:101270000100e000120032000500e0001000320022
:10128000889fbe008a9fbe008c9fbe000006eb00b8
:1012900001f8a3000300320060001000e080180095
:1012a0000cf0a00005f8a300030032006002120059
:1012b000e0821a000cf0a2008005eb0041ff37002d
:1012c0006000b800020005000383680007002800e2
:1012d00007036300470ade000480a100c71ade008e
:1012e0000580a100f70f20000720e1004200320036
:1012f0000728e10040003200889fbe008a9fbe00a0
:101300008c1f7800f107b200f307b2000400e00080
:10131000640032000170a0000500e00068003200a7
:101320000370a00085054200eb07b1000204b8007d
:101330000302b8008484440060854a00020ab800b1
:10134000848444000a854a00030ab8000405450065
:10135000040033000804d0008984d2000a85d2003a
:101360008b05e9006158e1003d00350002102000c6
:10137000090161000308200089816100f70720004e
:101380008783640008867300c84cde00c853dd0004
:10139000878474004855de000300e0000600320038
:1013a00082037600040032008904e80060054d00e5
:1013b0000a88a3000c003a00f70f20000758e1004c
:1013c00044003d000a70a100c75ddd000a8575007c
:1013d0008a007300090078004f0678004f05be00b0
:1013e0004f04be00000006000a05d1008984d30026
:1013f0008b05e800f0ff3700881f780006047800ae
:1014000090000700070278000001fd008101fd0047
:101410008c00070087027800850372000778a3001c
:10142000050032000001fd008101fd009f00070062
:101430004f04780000000600850372000748a300ef
:1014400003003200f0ff2f00f1ff2700f8ff370004
:101450000000200001f8270088807000f4ff3700aa
:10146000880178004848dd00808171004848de002e
:10147000c850dd0001007000c850de00060478008e
:101480000b0178001600070088807000d2ff37003b
:101490000500e00005003200170020003a000700b8
:1014a0009dff370081037000f9ff3a008600780045
:1014b0004f0678004f05be004f04be000000050037
:1014c00083037100f9ff3200270020002e0007007f
:1014d00094ff370001f8270086807000f4ff370082
:1014e0000100e00026003200610111007810e100e7
:1014f00023003c006022b8007010e10004003500b9
:1015000080027800010078008000eb00700151003b
:101510000200e0000900340070031100062add001b
:10152000822ade008603dd00878272000200de0070
:10153000860bdd00070070008208de0084817100e8
:10154000f4ff2700048262008481710004002800f7
:10155000848262006102600005f0a60000000600bf
:1015600004827100070032000000e800e0804800bb
:10157000000006000002be006000b800efff370068
:101580006000b80000000600889fbe000004eb0069
:101590006138e10016003a000100e00008003a005e
:1015a000c800de004800dd00880020000100e000e7
:1015b00003003a00c800de004800dd006804440073
:1015c0008184cf00e9845400060034008908dd00de
:1015d000f08314008703de00878070000900dd00bf
:1015e00009044400610214004f04be00000006001c
:1015f0000300e00008003a00c811de004811dd00d9
:10160000880020000300e00003003a00c811de005b
:101610004811dd00680444008384cf00e98454004d
:10162000060034008919dd00f08314008713de0002
:10163000878171000911dd0009044400e1021400f2
:10164000e9ff37002700200001f0a7001700200065
:10165000470bde00f60fb200040032000643e8003c
:101660000a0032004702b3000000060001037800c0
:10167000f607b2000603700002003a000703b30049
:10168000000006008702b300000006000103780096
:10169000f607b20006037000020032000770a000d7
:1016a000000006000760a000000006000478a30008
:1016b000040032000578a300030032000168a30093
:1016c00001003a000200be000160a0000000060018
:1016d00081017000270032008002eb0001f8a300b6
:1016e0000300320060001000e080180015002000a8
:1016f000f40720000202420020003400f70320001b
:101700008703600006042000000363000208200035
:10171000000161004700de00c909dd0000807100a2
:10172000c708de000600e0000800320087037100f1
:10173000060032001000b0000180b0000188a30054
:1017400002003200c108de000402e800f107b20026
:10175000f30f20000320e10003003d004722dd00dd
:10176000810072002900370001f827000000eb001b
:10177000260037006000b800000006006802120072
:101780007f20e100020034006000b8001f00370035
:101790006011b8007020e10004003500800178007d
:1017a000010078008000eb00700252000400e000ad
:1017b00009003400f00312000719dd008419de006f
:1017c0000703dd00868171000400de00070bdd00e9
:1017d000060070008408de00f7ff270083836300a3
:1017e000870371000600280003036300070032002e
:1017f0000700e00003003a0061016000028173000d
:10180000020032001000b0000180b0000500a60008
:101810000000060001f0a000000006004f0ade00f4
:101820004709de00f107b200f20fb2000b003200f0
:10183000f207b1000170a000c708dd00c901de0099
:10184000838070004700dd000400a6000000060051
:1018500060001000e080180000000600810f70009a
:1018600001003a00000006008182cf000500e00080
:1018700010003e008082cf00ee8242007028e1001e
:101880000400390007003e00800078000000eb00f3
:101890000e003700708312008600de000500dd00b8
:1018a0000a003700708352008600dd000000eb0064
:1018b00006003700e28252008508dd0070831200c6
:1018c0000603de00868070000500dd007507b000ad
:1018d0000501ea000400a6000000060060001000f8
:1018e000e080180000000600889fbe008a9fbe00ae
:1018f000841f78006c0007004f007800110033004f
:10190000f0ff2f00838f6c0006003b00040565008c
:101910000a00a7000800370009f0a6001000200008
:1019200008003700820f5400838f5c0003003900e9
:101930001000200001003e000000200009f0a70078
:101940000000ea004f05be004f04be000000e000aa
:1019500000000600889fbe008a9fbe0000827000c3
:101960000402710004827100260032000004be00ef
:101970000200be006011b8006b0920009502200033
:101980000182cf000a0039000541b1000082cf007a
:10199000070039000541b1000982cf000400390079
:1019a0000541b1000882cf00010039000541b100b6
:1019b00005425200120032000a003b008281710091
:1019c000610164008100d1000080d3008984d300cc
:1019d0000884d3008b05e8000442e800f7ff3a00d2
:1019e000070037000804440089844c0000004800c8
:1019f000818048008b05e9000442e900f9ff3a00c4
:101a0000030007004f05be004f04be0000000600a3
:101a100081002000618055000b003d000b0020007c
:101a200061fe2f000100e1001d0034008281710081
:101a3000610164008904d1000884d3000000e8003b
:101a4000faff3a007100200061006400030070009a
:101a5000020060000900320061044400e0844c0090
:101a60000988a500050032008b05e8006808e10040
:101a700002003a008904d1000884d300f20f20004c
:101a80000258e10005003d00c75ddd00f907b20026
:101a90008980750008007800000006000bf8270018
:101aa0008b007800000005000004be0012fd070056
:101ab0000003be000405be000200be000efd0700cc
:101ac000844f750000000600800178000200370096
:101ad000b15978000201e9000200e000fcff3a0081
:101ae00000000600889fbe008a9fbe008004780028
:101af0000200e0005a00320001407800814c78007a
:101b000082814400f1f99f00e20f51005400360039
:101b100091449800a1449800e1f99f00d1f99f00f9
:101b2000e60f51004e003600b1449800c1f99f0005
:101b3000e80f51004a0036000905ea006305650018
:101b40000a8444000a055100c1ff2f000105650009
:101b50000080fb008000eb0012102000131020001a
:101b60000d040700008cbe000a01440060b99f000c
:101b700071b99f00e80f5500390036002004980025
:101b800031049800400498005104980020b99f0047
:101b900031b99f0040b99f0051b99f00f80f55001f
:101ba0002f0036006004980071049800000c980023
:101bb000110c9800200c9800310c9800400c9800f3
:101bc000510c980020b19f0031b19f0040b19f009f
:101bd00051b19f0060b19f0071b19f0000b99f009b
:101be00011b99f00640164007801410002044400bf
:101bf000020555006011b8000203be000002be00dd
:101c00000403be006022b8000000720081807200f0
:101c100002017300838173000f003700080278000f
:101c2000009abe00029abe00009abe000292be0058
:101c3000000c9800110c9800220c9800330c9800ae
:101c4000400c9800510c9800620c9800730c98009e
:101c50000a02b1000802b000ff0f5500efff3e007e
:101c6000090078004f05be004f04be0000000600ca
:101c70000000fa00cfb8970068815700b08280005a
:101c8000100078002d0007000080fa000000060018
:101c900000003700ea874700889fbe008a9fbe0089
:101ca0008e1f7800000478000300780072875700c8
:101cb00084e2260055c72600049fbe00c39622007a
:101cc000030f78006c875700004feb001105900060
:101cd000a1049000910578000200e00002003200ab
:101ce0000207780001003700728757000000e0000b
:101cf00002003a000e0078000f0207000a00e00020
:101d0000030035008a0f5000010036000a007800f9
:101d10000b02780089017800000178008e007800bd
:101d200008007800270007004f0778004f05be0025
:101d30004f04be00af00b100000006000200fa0030
:101d4000881f780000047800e2bf9f00648157007c
:101d500008007800d1010700980090000148a30016
:101d6000010032000080eb004f0478000080fa0090
:101d700000000600889fbe008a1f7800800478005b
:101d80004900900002047800800f540001003600e2
:101d900000047800080178006a8544001a00780081
:101da00049ff07001a004400000d7800e884440051
:101db000990c14000048eb004f0578004f04be005a
:101dc00000000600f2874700889fbe008a9fbe0081
:101dd0008c9fbe008e1f780080047800010578007b
:101de00002047800830578006107620002003a006f
:101df0008b0f540008003900080178008a00780031
:101e000009007800fa0107008b0f54000200390026
:101e1000880578001e003700088655000c01780000
:101e2000f00f5600010036000201200001022000e0
:101e30007e8057002bff07008c06780005003700d6
:101e400002012000fe80570009007800e801070029
:101e5000f0865600ef8f5600f9ff3e004461de0029
:101e600000ff2f008091b9000c014100fe80570057
:101e700009007800de0107000e00e00004003a00cf
:101e8000080178008a00780009007800d80107006e
:101e90000b0078004f0778004f06be004f05be00cc
:101ea0004f04be002f01b100000006000000050035
:101eb0000000050000000500000178000040eb0074
:101ec0008080fb0081804000e30d21008181410082
:101ed000134278000404e00004003a00f00d2100f1
:101ee0008100400011407800000006009201780057
:101ef000934f520005003a00f00d21008100400090
:101f0000114078000309e800010037000040e800b4
:101f1000ea4f5000eaff360000000600f68747004f
:101f2000889fbe008a9fbe008c9fbe008e1f7800d7
:101f300080047800010478008305780004067800a6
:101f40000000eb00c0b79f008080eb00d1b79f007e
:101f5000e0b79f00f2b79f000008200080bf9f00fd
:101f600098007800010078000005eb0001003700c0
:101f70000a05e800304178000204e0000300320066
:101f800053c2b300834f5100f9ff3a000a00e0004a
:101f9000040032000a01780009007800940107006b
:101fa000180c45001807780050c2b3009e4f10006f
:101fb00033013a000e07e8000e0c780010003700dd
:101fc000cfb097000100a0000b003700cfb0970002
:101fd0000110a00008003700cfb097000120a0003a
:101fe00005003700cfb097000130a0000200370095
:101ff000cfb097000140a000c1b79f00000ce800df
:102000001800780090407800b2c2b30082cf500030
:10201000f1ff320007003c0002c2b30082cf500043
:10202000f0ff320032c2b30082cf500007003a0006
:10203000efff3700d2c2b30082cf5000e0ff320082
:1020400002c3b30082cf5000e0ff3200a2c2b3004f
:1020500082cf50000d003a00000ce8001c80e9001f
:10206000000e780010007800e0b79f000000e0004c
:102070000f003d00cfb097000100a200c1b79f0044
:102080000000ea00e0b79f0009003700c001070028
:10209000e0b79f0001003700000ce800180078004e
:1020a0009000fb000103b100e98f5000faff3600f9
:1020b0004fb097000008a300020032000010a100fa
:1020c000c0b79f0018007800e1c2b30090cf1000a5
:1020d00016003a008000eb00d1b79f000000e80036
:1020e000000c7800a1c2b30090cf100006003a00a7
:1020f000000ce8001c80e900000e78001000780059
:10210000d0b79f0009003700a1010700d0b79f009a
:1021100001003700000ce800180078009000fb0078
:102120000103b100e98f5000faff36000800780083
:1021300061ff070080467800180078001000fb005f
:10214000b901070091062000810f500038003200cd
:1021500012003c0041062000810f50003400320084
:102160000a003c0011062000810f500020003200c0
:1021700031062000810f50009a00320051022000e9
:10218000810f5000ae003a00a70037007106200012
:10219000810f5000aa003c00820037000107200098
:1021a000810f50005c00320007003c00e106200077
:1021b000810f500074003200f1062000810f5000a2
:1021c0009f003a003900370051072000810f50006e
:1021d0002700320081072000810f500042003200aa
:1021e00031072000810f500095003a00850037002c
:1021f0008d80fb000c01780000fe2f000f004000d6
:10220000900107000000e0009c00320018007800f8
:10221000000ce8009041780002fe2f000f01410001
:10222000f88057000900780021ff07000e003700f2
:102230008d80fb008c0178001200200000fe2f0032
:102240000f0040009e0107000000e0008b003200fc
:10225000180ce80002fe2f000f014100f880570023
:102260000900780011ff07000005450084003700d1
:102270008d80fb008c0178000001eb0000fe2f0038
:102280000f0040008e0107000000e0007b003200dc
:10229000180ce80002fe2f000f014100f8805700e3
:1022a0000900780001ff0700efff37008d80fb0079
:1022b0008c0178000001eb0000fe2f000f004000b1
:1022c0007f0107000000e0006c003200180ce800fd
:1022d00002fe2f000f014100f8805700090078002e
:1022e000f2fe0700e0ff37008d80fb008c017800d4
:1022f0000001eb0000fe2f000f00400070010700fe
:102300000000e0005d00320018007800000ce800da
:1023100090417800160037008c0178000001eb0036
:10232000010f200000fe2f000f0040006401070095
:102330000000e00051003200180ce8000fb09700d8
:102340009fb097002fb19700bfb19700e00f5000ea
:10235000e08f5800e00f5900e08f590003003a0069
:102360008001eb00820d21004000370083c7b300dd
:1023700002fe2f000f014100f8805700090078008d
:10238000cbfe0700b8ff37000b0145008d80fb0036
:102390008c01780000fe2f000f004000a101070013
:1023a000360037008d80fb000c01780000fe2f0006
:1023b0000f004000230107000000e0002f00320062
:1023c00018007800000ce8009041780002fe2f0011
:1023d0000f014100f880570009007800b4fe0700a3
:1023e000a1ff370000c8b30080cf560023003a0099
:1023f000180ce8001c80e900000e780010407800fe
:102400000d00370000c8b30080cf56001b003a0013
:10241000180ce8001c80e900000e78008001eb0039
:10242000100178001100370001c8b30081cf5600b9
:1024300012003a00180ce800e0df9f0008003700a7
:1024400050c2b300e0df9f000e0c78000000eb00ec
:10245000c0b79f00e0b79f008080eb00d1b79f001e
:1024600013002000e2fd2f000f014100f88057000b
:102470000900780007fe07007bff3700180ce80012
:102480000a0078004f0778004f06be004f05be00d7
:102490004f04be006f01b100000006008200fa0088
:1024a000889fbe008a1f78000005780082047800ab
:1024b000c13f9f000004eb001000370009027800c4
:1024c00088017800a2f72f000f01410081f72f004b
:1024d0008f8040000a00780090fe0700080040004e
:1024e000880f500004003d00b0042000b088880030
:1024f0000084eb0004003700000478004f38970098
:102500001004e000edff3a00080078004f05780065
:102510004f04be000080fa00000006000000060024
:10252000c005210000000600fdff0700d0828800e2
:10253000c082880000000600800078000400370098
:102540003104e00002003a000000510000000600e3
:10255000010178000108a300f9ff3a008101780029
:1025600031017800f4ef2f00020242000281ea00fc
:10257000020162000408280004016100f7ff320034
:1025800083007800010178003104e000fdff3a008b
:102590000000510000000600889fbe008a1f7800de
:1025a000800478004900900002047800800f5400f5
:1025b0000100360000047800080178006a854400b4
:1025c0001a00780040fd07001a004400000d780052
:1025d000e8844400990c14000048eb004f05780093
:1025e0004f04be000000060010007800dbf9370041
:1025f000900190000388a30001003200e6ff37003d
:102600000348a30001003a00f7ff0700000006009e
:10261000889fbe008a1f78000004780001057800ba
:102620000000eb000800e0001a00320018009000e3
:102630000058a3000c003200ea0444006800900037
:10264000990f100008003600b80990000001eb0057
:102650008200780008007800030001000080eb0091
:102660001900e0000b003200740044000008eb0089
:102670006c0044000008eb006a0044000008eb0016
:102680000000eb000a00e0000200320018007800b1
:10269000a6f907004f0578004f04be0000000600b1
:1026a000889fbe008a1f78000004be000000eb0077
:1026b0000800e00029003200180090000058a30034
:1026c000120032006a054400680090009a0f100062
:1026d00008003600b80990000001eb008200780085
:1026e00008007800030001000080eb001a00e00001
:1026f0001a003200740044000008eb006c00440033
:102700000008eb006a0044000008eb00780a900023
:1027100008109000800f52000600310000025200a5
:1027200011002000cfa2de00612bb9001800780054
:102730006ff9070000022000080040000008eb00cd
:102740007e0044000008eb000000eb000900e00000
:10275000020032001800780074f907004f05780075
:102760004f04be000000060080007800100020002a
:1027700002022000828f500004003200e9805000e5
:10278000e48f5000010036000000eb00000006005e
:10279000889fbe008a1f78008004780009047800b2
:1027a00088047800394578000a00fb00eeff070036
:1027b0000000e000f9ff3a00b0c2b300804f5500be
:1027c00005003200d0c2b3008000eb00804f5500fe
:1027d00005003a00020037008000eb0001003700de
:1027e000110020000804e8000000eb00030037009f
:1027f000ea00b900020050000003b0003801fb00fd
:1028000003fd2f0082814100e98f5100f8ff36005f
:102810000100e00001003a000000ea004f057800e6
:102820004f04be0000000600f1fb2f008080400036
:10283000f98f500001003e000050a000000006008b
:10284000f9ff3700881f7800000478000008200096
:10285000808f50001700350010082000808f500036
:102860000b00340030082000808f500011003a0027
:102870009200780068805000000978003002be00a5
:102880002003be00049cbe000694be000700370073
:102890009202780064805200000978001000be00a7
:1028a0009e000700009cbe000294be0010002000a5
:1028b000010037000000eb004f0478000000060024
:1028c00084082000848f50001d0032000d003c0061
:1028d00014082000848f50002700320002003c00c2
:1028e000040820000400370024082000848f5000d2
:1028f0002a00320044082000848f500048003a002b
:102900003b003700040a2000848f50002c00320066
:1029100004003c0004092000848f500040003a006d
:102920002d003700020c2000828f50001e00320064
:10293000020f2000828f500039003a00300037002b
:102940009380e9000200e000050032008109780070
:102950001102fb00cfa2de00612bb9002d00370071
:1029600081097800114278000482fb008002eb00ac
:102970006033b8002700370013027800e4005200eb
:102980000200e0000a003200810978001102be0056
:102990004fabde00860378001e00370093027800fc
:1029a000e88052000e00370093027800e480520065
:1029b000810978001102be006033b80015003700ad
:1029c0009380e9008109780011027800cfa2de002f
:1029d000612bb9000f00370013037800e8005300a3
:1029e000810978003102be002103be0009003700d2
:1029f0009380e9000200e00002003200f1ff37009e
:102a00009380e90081097800110278008002eb00d0
:102a10006033b8000498be000690be0010000500a8
:102a20000000050044082000848f50002700320079
:102a30000a003c0014082000848f50001c00320063
:102a400024082000848f5000260032000408200053
:102a5000848f50002c003a001c003700040920002d
:102a6000848f50001f00320004003c0084082000c6
:102a7000848f500024003a0007003700040a200029
:102a8000848f500011003200040c2000848f50000d
:102a90001d003a00060037009380e90081097800a4
:102aa000910078000108780082487800150037000e
:102ab0009380e9008109780091007800010878008e
:102ac000cf91de008288be000e0037009380e900bf
:102ad0008109780091007800010878008208780068
:102ae000080037009380e9008109780091007800a0
:102af000010878006112b900612bb9008498be000a
:102b00008690be00100005000000050000000600d1
:102b100085fe0700fdff0700fcff370081037800fa
:102b2000f5f807000001be006000b8000478a300bb
:102b300013003a006220e10015003e000d0039004c
:102b40008301d1000281d3008180d3008301d100b1
:102b50000281d3008180d3008301d1000281d300a0
:102b60008180d3000538b000c42add00f300b20034
:102b70008381720007f0a70003f0a00000000600a8
:102b800083ff2700020020006110b900f9ff370021
:102b900003ff2700f7ff3700020ab900001bb90046
:102ba0000200b800810042008100430000000600de
:102bb00000c0da000000060000c0da0000000600d5
:082bc00000c0da00000006006d
:020000040000fa
:102bc8004c560000005000005245000043480000e9
:102bd80041520000474900004e47000000480000ed
:102be800565f0000454e0000414200004c45000081
:102bf800440000004452000049560000450000000f
:102c080046410000554c0000540000004e4f0000a3
:102c18004e4500000044000052490000564500009f
:102c28005f52000045510000554500005354000014
:102c38005f460000524f00004d5f00004c560000f8
:102c4800004300004f4e000053450000525600005c
:102c58004154000049560000455f000054490000f7
:102c68004d450000525f00004d41000058450000ee
:102c78004400000042520000414b0000455f000044
:102c88004e4f0000545f00005052000045530000b2
:102c98005345000044000000485600005f4400000f
:102ca80049530000414200004c450000445f0000c9
:102cb80057480000494c0000455f0000445200009e
:102cc8004956000045000000534500004e530000df
:102cd8004f5200005f440000495300004352000077
:102ce80045500000414e00004359000000420000da
:102cf800524100004b4500005f4900004d50000064
:102d08004c41000055530000494200004c4500006a
:102d180000250000732000002d3e00002025000043
:102d2800730d00000a00000045720000726f000079
:102d3800723a000020250000730d00000a00000010
:102d480000000000be420000000000008e420000ab
:102d5800000000006c420000000000003c4200003f
:102d6800000000000c42000000000000b841000014
:102d7800000000003041000000000000a0400000fa
:102d8800000100000203000004050000060700001f
:042d9800080000002f
:020000040000fa
:102d9c000200fa00000f7800406c29001e00400071
:102dac00104078000080fa00000006000400fa00d1
:102dbc00004f78000e80e800010878001e80fb00b0
:102dcc000000e00003003200e10f50001000320060
:102ddc001e0037000e80e800100078008161200092
:102dec000080e800010878000e80e8009000780070
:102dfc0080c0b300804878000e80e8001000780096
:102e0c0011c0b3000000e800014878001e00370034
:102e1c000e80e80010007800416220000080e8007d
:102e2c00010878000e80e8009000780080c0b300a4
:102e3c00804878000e80e8001000780011c0b300c4
:102e4c000000e800014878000f0037000e80e80011
:102e5c00100078008000eb000080e800010878008a
:102e6c000e80e800900078000040eb00804878006d
:102e7c000e80e800100078008040eb000000e800b5
:102e8c0001487800000000000080fa0000000600f5
:102e9c000200fa000040eb00004f780007003700fa
:102eac001e80fb00c200dd00e00421000080400019
:102ebc008040eb00014878001e4fe8001e4078006f
:102ecc000004e000f6ff32000080fa00000006006b
:102edc000400fa008e80e800800878000e80e8007c
:102eec0010007800e10f500003003a000031800020
:102efc00690f6000030037000000eb00000f780042
:102f0c00000000001e0078000080fa00000006009f
:102f1c000200fa00000f78001e007800e10f50004c
:102f2c0003003a002066a9000000000001003700f1
:102f3c00000000000080fa00000006000200fa0009
:102f4c00004f78001e80fb00e10f500003003a0098
:102f5c001d06a80000000000010037000000000062
:102f6c000080fa00000006000400fa008e80e800e1
:102f7c00800878000e80e80010007800e10f500007
:102f8c0006003a0000318000c8800a0000000000f2
:102f9c000080fb00000f7800030037000000eb00fe
:102fac00000f7800000000001e0078000080fa007e
:102fbc00000006000200fa00000f78001e007800e6
:102fcc000000e00006003a00813080000030200054
:102fdc000100700080308800000000000100370004
:102fec00000000000080fa00000006000a00fa0051
:102ffc00889fbe008a9fbe0066054700000d7800c2
:10300c0068004700010878000040eb00004f780092
:10301c0066004700900078000e80e80011087800e8
:10302c0066004700100078008080e80066004700ca
:10303c0001087800660047009000780064004700a3
:10304c001108780066004700100078008080e800c6
:10305c006600470001087800660047001000780001
:10306c0010007800004078006f4060006f406000f6
:10307c006f406000e8004700910078000080fb0082
:10308c006f0060004200dd00648540009a05780006
:10309c003afc2f000a8565000a0570006480400028
:1030ac000a087800660047001000780010007800cd
:1030bc00700060004400de0000407800e1406000d9
:1030cc0068004700100078008180fb00e180600000
:1030dc00640540001a0578000a00a1008a8070007f
:1030ec00640040000108780066004700100078007a
:1030fc009000780000022000008060004500de0097
:10310c000040780061406000e800470091007800c2
:10311c000080fb00610060000000400064854000fe
:10312c001a0578000a10a1000a057000648040009e
:10313c000a087800660047001000780090007800bc
:10314c0000042000008060004600de000040780093
:10315c00e140600068004700100078008180fb00af
:10316c00e1806000c708dd00640540001a057800a6
:10317c000a70a1008a807000640040000108780089
:10318c0066004700100078009000780000082000ce
:10319c00008060004700de0000407800e1406000e5
:1031ac0068004700100078008180fb00e18060001f
:1031bc00c608dd00640540001a0578000a60a1000d
:1031cc008a807000640040000108780068004700a5
:1031dc00100078006400400010007800610060006e
:1031ec000000e00012003a000e80e80010007800a9
:1031fc006101b800f07f200001002000020278007d
:10320c0003017800800178008100780003006200df
:10321c008100610081047800000478000800be0081
:10322c0068014700120178000089be0031003700a8
:10323c000e80e800100078006104b800f07f2000d8
:10324c00010020000805780009047800800478004b
:10325c00810078000900650081006400810378001a
:10326c00000378000600be00c204dd000800200048
:10327c0064004700100078006103b800f0ff2100e3
:10328c000100200006057800070378008003780011
:10329c0081007800070065008100630081027800de
:1032ac00000278004528dd00cb20de008100700094
:1032bc004520dd0000027400818274000e80e8005d
:1032cc00100078004b00de008000eb00000078005e
:1032dc007f0060008001eb00000178000200be005e
:1032ec0000007200818072006801470012017800b2
:1032fc000089be006600470010007800e400400022
:10330c00660047000108780068004700100078004c
:10331c00640040001000780052800a000000000099
:10332c000080fb009afe0700004f7800820020000e
:10333c008000eb00c0102100e7f907001e80fb00a5
:10334c00000178006600470090007800c010210052
:10335c00daf907006800470010007800c11021005e
:10336c0066004000010878004f05be004f04be0007
:10337c000080fa00000006000600fa000e81e8004a
:10338c000009780064004700010878000040eb0059
:10339c00004f780064004700100078006400400083
:1033ac0010007800610060000000e0000f003a009f
:1033bc0064004700100078001000be008000780008
:1033cc00f07f2000808060000e80e8001000780004
:1033dc00010878000e80e80010007800e40040003e
:1033ec000e80e800010878002700370064004700d1
:1033fc00100078001000be004208de00800078004b
:10340c00f07f20000081600064004700100078000d
:10341c001000be00000078004b00dd008200700040
:10342c000e80e80010007800010878000e80e8009b
:10343c00100078008080e8000e80e8000108780019
:10344c0064004700100078001000be004b09dd003e
:10345c004500de0000007100c508de008000780029
:10346c00f0ff2100808060000e80e80010007800e2
:10347c00010878000e80e800100078008080e800d9
:10348c000e80e80001087800640047001000780006
:10349c00640040001000780052800a000000000018
:1034ac008080fb006400470010007800640040003e
:1034bc001000780000800a00000000000080fb0073
:1034cc004400dd0070006000810070006400470063
:1034dc0010007800640040001000780011800a0091
:1034ec00000000000080fb004500dd0000017800ba
:1034fc0000022000000061008100700064004700a1
:10350c0010007800640040001000780077800a00fa
:10351c00000000000080fb004600dd000001780088
:10352c00000420000000610081007000640047006e
:10353c0010007800640040001000780066800a00db
:10354c00000000000080fb004700dd000001780057
:10355c00f00f200000006100810070000e80e80078
:10356c001000780001087800640047001000780013
:10357c006400400010007800620060000000e00071
:10358c0017003a000e80e80010007800e4004000bc
:10359c000e80e800010878006400470010007800f5
:1035ac00640040001000780052800a000000000007
:1035bc000080fb00f6fd0700004f78001e80fb002a
:1035cc00e400470091007800e6804000910078000c
:1035dc00000178000e80e8001000780037f9070031
:1035ec000080fa00000006000000fa0000402000f5
:1035fc008030880000042000903088000080fa00a1
:10360c00000006000000fa0000402000e0308800b6
:10361c001e26ef000080fa00000006000000fa00f1
:10362c008133800000fe2f00008060000000a000ad
:10363c0080338800000d2000003488008226ef00c3
:10364c008426ef00000024003034880070e6a800c7
:10365c000080fa00000006000000fa00f0f12100e2
:10366c00202e8800e0072000302e88000080fa0011
:10367c00000006000000fa00c1e5a800004120008f
:10368c00102e880040002000110007000000e00010
:10369c000d003a00800b2100603088000076290074
:1036ac00002e8800c265a900c285a800eaff0700a9
:1036bc00cdff0700d3ff0700d8ff0700f4fd07007c
:1036cc0060002000020007000080fa0000000600e5
:1036dc000400fa008e80e800800878000000eb00ff
:1036ec00000f78002e000700e40f50000800320095
:1036fc000e80e80010007800e10f5000040032004a
:10370c000e80e80010007800e40f50001f003a0013
:10371c000e80e800100078000040780067406000e0
:10372c000080fb00670060004800dd00122e800066
:10373c00f18f2f008100610001007000102e8800b5
:10374c0009003700e12e800000002100008060009d
:10375c000000e0000400320020002000000f780080
:10376c00000000000b003700102e800075800a004e
:10377c00000000000080fb008e80e80091007800c3
:10378c00810f5000efff3a000200370010002000bc
:10379c00000f78001e0078000080fa000000060080
:1037ac000000fa00102e800075800a000000000056
:1037bc000080fb000080fa00000006000c00fa00fc
:1037cc00ea004700800878008040eb000e00e8001b
:1037dc00014878000040eb00004f780051003700a2
:1037ec001e80fb00c200dd00c004210000804000f0
:1037fc00900078000e80e8000148780066004700d1
:10380c00800078000e80e8001040780067fd07000b
:10381c000e80e800104078000080fb00acfd070033
:10382c0080007800640047000108780064004700bd
:10383c001000780061006000004078000004e00097
:10384c003700320068004700100078001000780044
:10385c000000e000370032006800470010007800dc
:10386c0010007800ea00470091007800dffd0700a7
:10387c000e80e80010407800b0fd07001e80fb00b1
:10388c009e80fb00c208dd000181e800c10421001c
:10389c0081004100914078008140e8004201dd0048
:1038ac00e004210000004100014878001e80fb006c
:1038bc004200dd008080e800c00421000080400050
:1038cc0090407800670047001040780080cf50008f
:1038dc00060039001e80fb00c200dd00e004210060
:1038ec00008040008040eb000148780064004700f5
:1038fc0010007800680060000000e0000400320056
:10390c000e80e800104078000080fb0080fd07006e
:10391c0011c0b3000e00e800014878000600370023
:10392c001e4fe8001e4078000004e000acff32009f
:10393c0001003700000000000e00e8001040780085
:10394c000080fa00000006000a00fa006601470039
:10395c0000097800680047000108780066004700fd
:10396c0010007800004078008e80e8000ffd070002
:10397c000000eb00000f7800680047001000780092
:10398c006400400090007800000820000080600077
:10399c000000e00006003200012e80000000210033
:1039ac00008060000000e000010032001e10a0004a
:1039bc006800470010007800640040001000780098
:1039cc0052800a00000000000080fb00e80f50004d
:1039dc00010034001e00a0006800470010007800b1
:1039ec00640040001000780052800a0000000000c3
:1039fc000080fb00e6fc07008e80e8009140780018
:103a0c00814f5000010036001e00a0001e007800ff
:103a1c000000e00016003a00660047001000780035
:103a2c0016000700e10f50000f003a006400470039
:103a3c0010007800100078000000e0000c0032004c
:103a4c00640047001000780010007800e800470080
:103a5c009100780048fe07006600470010007800cf
:103a6c0054fd0700020037009e007800638f700041
:103a7c001e0078000080fa00000006000400fa0026
:103a8c008e80e800800878000e80e8001000780036
:103a9c000000e00004003a00a030800061006000eb
:103aac00000f7800030037000000eb00000f7800d7
:103abc00000000001e0078000080fa0000000600e4
:103acc000c00fa008040eb006300470001487800ce
:103adc000040eb00004f78008040eb000e00e80047
:103aec00014878008040eb000e80e8000148780027
:103afc000040eb00004f7800670037001e80fb0091
:103b0c00c200dd00c004210000804000900078005d
:103b1c006300470001487800680047008000780087
:103b2c006300470010407800a0fc070063004700ca
:103b3c00104078000080fb00e5fc07008000780056
:103b4c00640047000108780064004700100078000a
:103b5c0061006000004078000004e0004d0032007d
:103b6c006400470010007800680060000000e0006e
:103b7c00040032000e00e800e9004700114878000c
:103b8c003d00370063004700104078000080fb00c8
:103b9c00f5fc0700800078006600470001087800fb
:103bac001e80fb004200dd008080e800c004210084
:103bbc0000804000104078000080fb00e6004700c9
:103bcc0091007800810f500010003600690047000a
:103bdc0090407800660047001000780000407800a4
:103bec0080c040001e80fb004200dd000081e80028
:103bfc00c0042100000041001040780080c050003b
:103c0c000e00e800014878001b0037001e80fb0006
:103c1c004200dd008080e800c004210000804000ec
:103c2c00104078000080fb00e6004700910078000f
:103c3c00810f50000d003100660047001000780025
:103c4c00804078001e80fb004200dd000081e8000f
:103c5c00c0042100000041001040780080c05000da
:103c6c000e00e80001487800030037000e00e80061
:103c7c00e9004700114878000e80e8009040780079
:103c8c000e00e8001040780080c040000e80e80074
:103c9c00014878001e4fe8001e4078000004e00048
:103cac0096ff32000e80e800104078000080fa0089
:103cbc00000006000000fa00b02f800055800a00ba
:103ccc00000000000080fb0000f0a7000000ea00ec
:103cdc000000ea004f00de00004078000080fa008f
:103cec00000006000000fa00b02f800033800a00ac
:103cfc00000000000080fb0000f0a7000000ea00bc
:103d0c000000ea004f00de00004078000080fa005e
:103d1c00000006000000fa00b02f800011800a009d
:103d2c00000000000080fb0000f0a7000000ea008b
:103d3c000000ea004f00de00004078000080fa002e
:103d4c00000006000200fa000040eb00004f780073
:103d5c00f4c5bf000004e00005003200f4c5bf004c
:103d6c000004e0000200350010c0b300004f7800e2
:103d7c001e4078000080fa00000006000000fa00e7
:103d8c00b02f800044800a00000000000080fb007f
:103d9c0000f0a7000000ea000000ea004f00de007f
:103dac00004078000080fa00000006000000fa00d5
:103dbc00b02f800022800a00000000000080fb0071
:103dcc0000f0a7000000ea000000ea004f00de004f
:103ddc00004078000080fa00000006000200fa00a3
:103dec000040eb00004f7800f5c5bf000004e00078
:103dfc0005003200f5c5bf000004e00002003500ec
:103e0c0010c0b300004f78001e4078000080fa000c
:103e1c00000006000000fa00ddc5a900dfc5a800ff
:103e2c002328a8001000200029fe07000080fa00bb
:103e3c00000006000000fa000080fa0000000600f6
:103e4c000000fa000080fa00000006000000fa00f2
:103e5c000080fa00000006000000fa000080fa0062
:103e6c00000006000000fa000080fa0000000600c6
:103e7c000000fa000080fa00000006000000fa00c2
:103e8c000080fa00000006000000fa00e12e80001d
:103e9c0000002800008060000000e00002003200fa
:103eac00e4ff0700dde5a900e12e80000000220000
:103ebc00008060000000e00002003200e3ff070019
:103ecc00dda5a900e02e8000680060000000e00085
:103edc0002003200e0ff0700dc65a900e12e800043
:103eec0000002100008060000000e00002003200b1
:103efc00dcff0700dd85a900e12e800000402000da
:103f0c00008060000000e00001003200d8ff0700d4
:103f1c0000318000680060000000e0000200320008
:103f2c00d6ff07002066a9000080fa0000000600fa
:103f3c000000fa0001eba8000080fa000000060067
:103f4c000000fa0001eba9000080fa000000060056
:103f5c000000fa0008cba8000080fa000000060060
:103f6c000000fa0008cba9000080fa00000006004f
:103f7c000200fa00000f78000080fa000000060032
:103f8c000400fa008e80e800800878000e80e800bb
:103f9c0010007800e40f500020003200e40f5000b5
:103fac0009003e00e10f500013003200e10f5000f9
:103fbc000e003900e20f500012003200e30f5000e7
:103fcc001300320024003700e60f500019003200b5
:103fdc00e60f500014003900e70f500018003200b3
:103fec00e80f5000190032001b00370061608000a0
:103ffc00010f78001800370071608000010f780005
:10400c001500370091608000010f78001200370016
:10401c00a1608000010f78000f0037006161800003
:10402c00010f78000c00370071618000010f7800df
:10403c000900370081618000010f7800060037000d
:10404c0091618000010f780003003700a1618000ae
:10405c00010f7800000000001e0078000080fa00bc
:10406c00000006000400fa008e80e800800878004a
:10407c000e80e80010007800e40f50003c00320085
:10408c00e40f500009003e00e10f50001a0032000e
:10409c00e10f50000e003900e20f500020003200fa
:1040ac00e30f50002800320063003700e60f500089
:1040bc0043003200e60f500037003900e70f500084
:1040cc0049003200e80f5000510032005a0037000e
:1040dc008059800000800a00000000000080fb0076
:1040ec0000f0a7000000ea000000ea004f00de002c
:1040fc00004f7800500037008059800011800a0072
:10410c00000000000080fb0000f0a7000000ea00a7
:10411c000000ea004f00de00004f78004600370038
:10412c008059800033800a00000000000080fb00f2
:10413c0000f0a7000000ea000000ea004f00de00db
:10414c00004f78003c0037008059800044800a0002
:10415c00000000000080fb0000f0a7000000ea0057
:10416c000000ea004f00de00004f780032003700fc
:10417c009059800000800a00000000000080fb00c5
:10418c0000f0a7000000ea000000ea004f00de008b
:10419c00004f7800280037009059800011800a00e9
:1041ac00000000000080fb0000f0a7000000ea0007
:1041bc000000ea004f00de00004f78001e003700c0
:1041cc009059800022800a00000000000080fb0053
:1041dc0000f0a7000000ea000000ea004f00de003b
:1041ec00004f7800140037009059800033800a008b
:1041fc00000000000080fb0000f0a7000000ea00b7
:10420c000000ea004f00de00004f78000a00370083
:10421c009059800044800a00000000000080fb00e0
:10422c0000f0a7000000ea000000ea004f00de00ea
:10423c00004f7800000000001e4078000080fa005b
:10424c00000006000200fa00000f780000808000d9
:10425c00e40f500004003a001e007800e40f5000f8
:10426c00010032000230ef001e0078008000400098
:10427c00400f210000804000100178000080800079
:10428c0080004000400f21000080400010007800aa
:10429c00821f7800801f7800d0682900801f78006a
:1042ac0070f60700e68757009e00780001808800b2
:1042bc000080fa00000006000200fa00000f7800ef
:1042cc0040002000dfff07001e0078008000400047
:1042dc00e00f21000080400010007800801f780063
:1042ec0080692900801f78005ef60700e48757007c
:1042fc009e007800118088000080fa000000060003
:10430c000000fa0004d0bf00624060000080fa0098
:10431c00000006000000fa0004d0bf0061406000fd
:10432c000080fa00000006000200fa000ad0bf006c
:10433c000080fb00e1fc2f00010f40001e00780004
:10434c000000e00005003d000000200001f8230003
:10435c003080880041808800180037001e007800eb
:10436c00e70f50000b003c001e007800c200dd007f
:10437c00406a2900008040001000be0002002000ae
:10438c00832c2400eef207003080880041808800e6
:10439c000a0037001e007800e70f500007003400b9
:1043ac0000b6840011b6840002002000832c240087
:1043bc00e3f2070030808800418088000080fa001a
:1043cc00000006000400fa00889fbe006180800097
:1043dc00010f7800808080009e007800808f500054
:1043ec000300360081808000010f78000600370042
:1043fc00308280009e007800808f500002003100d7
:10440c0031828000010f7800308280001e00100085
:10441c008000eb00b3f207000004be008180800036
:10442c0030828000008050008000eb00adf207006d
:10443c000001be000800be00c1f20700020020000f
:10444c00832c24009df307008bf2070000007800fa
:10445c00b08088000e80e800718080000108780030
:10446c00918080000e80e80010007800810f5000d1
:10447c00040036000e80e80091808000010878006e
:10448c0008003700418280000e80e80010007800a0
:10449c00810f5000030031000e80e8004182800043
:1044ac0001087800418280000e80e800100078003e
:1044bc00010050008000eb008af207000004be00ef
:1044cc009180800040828000008050008000eb00d2
:1044dc0084f207000001be000800be0098f207003d
:1044ec0002002000832c240074f3070062f2070002
:1044fc0000007800c0808800b080800080007800c8
:10450c00c0808000008050008000780001f0a7007f
:10451c008100ea0010c0b300ea8f500001003c009b
:10452c000040eb004f04be000080fa0000000600c3
:10453c000400fa00889fbe008a1f78000e80e800f5
:10454c006180800001087800d2808000f1808000ba
:10455c00b0aa2a000008b8004208de00000f510083
:10456c00e08080009e007800808f500002003600b2
:10457c00e1808000010f7800508280009e0078005e
:10458c00808f50000200310051828000010f7800b2
:10459c00508280001e0010008000eb0051f20700da
:1045ac0002002000832c240044f307000004be000a
:1045bc00f08080008000eb004af207000001be0092
:1045cc000800be005ef207002bf20700000f780017
:1045dc0000808000e40f50001a003a001080800028
:1045ec00e60f500017003a000e80e800100078002b
:1045fc008000eb003bf207000004be00a0808000ae
:10460c008000eb0037f20700d2cc2c00c3d423007f
:10461c002af307001ac0b3000001be000800be0058
:10462c0011f207000000e000010035000045eb002e
:10463c000a4078000004a2000080fb0000407800d3
:10464c001b0037001e0078000000e000160032004e
:10465c000e80e800100078008000eb0021f20700cb
:10466c000004be00a08080008000eb001df207005b
:10467c000200200003e8230010f307001ac0b30067
:10468c000001be000800be00f9f107000000e000c8
:10469c0001003c000045eb000a04e000020032007f
:1046ac0010002000010037000000eb0000407800f3
:1046bc004f0578004f04be000080fa000000060091
:1046cc000400fa008e80e8008008780018fe0700cd
:1046dc000e80e8001000780025fe07001cfe070085
:1046ec0000f4210001002000660607001cfe0700f4
:1046fc00000000000e80e8001000780059fe070052
:10470c000004a2000004e000faff3a000e80e8006a
:10471c00100078001afe0700000f780008fe070052
:10472c001e0078000080fa00000006000000fa006d
:10473c000000eb00e2ff0700608088001000200002
:10474c00dfff07007080880020002000dcff0700de
:10475c00d08088006180800080808000808f500035
:10476c0002003600608080008080880061808000bc
:10477c0030828000808f5000020031006080800009
:10478c00308288007180800090808000808f500083
:10479c00020036007080800090808800718080005c
:1047ac0040828000808f50000200310070808000b9
:1047bc0040828800d1808000e0808000808f500093
:1047cc0002003600d0808000e0808800d18080001c
:1047dc0050828000808f500002003100d080800019
:1047ec00508288000080fa00000006000000fa00e9
:1047fc000000eb00b2ff0700608088001000200072
:10480c00afff07007080880020002000acff07007d
:10481c00d08088000080fa00000006000000fa003a
:10482c0060022100e5fb07000004e0005c003200a0
:10483c00f071800044800a00000000000004a20017
:10484c00614060000080fb00610060004400dd00fe
:10485c00f17180000140a10001007000f07188002e
:10486c00600221001000be00623620000300200010
:10487c00820f5000838f58002400320062362000d3
:10488c0003002000820f5000838f580006003e006a
:10489c00020d200003002000820f5000838f58006f
:1048ac000c0032003e00370092382000030020003c
:1048bc00820f5000838f58000c003200626620007b
:1048cc0003002000820f5000838f58001700320025
:1048dc0033003700600221006600400010007800b1
:1048ec001040780004f0b7002d0037006002210062
:1048fc00660040001000780067004000104078000f
:10490c000af0b70088fe070025003700600221007e
:10491c006600400010007800104078000004e000b1
:10492c00020032007000200063fe0700f07180006e
:10493c0055800a00000000000004a20061406000e5
:10494c000080fb00610060004500dd00f17180001b
:10495c000150a10001007000f0718800600221007c
:10496c006600400010007800104078000080fb00ca
:10497c004800dd00208188006002210066004000b4
:10498c00100078000000e800104078000080fb0068
:10499c00218180000100400020818800000000007f
:1049ac000080fa00000006000000fa000080800081
:1049bc00e10f50000a003a00708180006a0040004c
:1049cc00708188007181800080382100808f5000b8
:1049dc00040036002000200037fe070001003700dd
:1049ec002e30ef0077fe07000004e00003003200d9
:1049fc00808180006a004000808188000080fa007d
:104a0c00000006002200fa0090050700400020007c
:104a1c002ffb070062fb0700e40f500002003a0076
:104a2c00600020002afb0700a04d2200af04070005
:104a3c00b604070079ff0700680047009040780033
:104a4c0030ccb30000c06000804078000124a0008e
:104a5c006800470001487800680047001040780063
:104a6c00804078000104a1006800470001487800ec
:104a7c006800470010407800804078000164a10075
:104a8c006800470001487800680047001040780033
:104a9c00804078000114a1006800470001487800ac
:104aac006800470010407800804078000174a10035
:104abc006800470001487800008080008040780042
:104acc00690047000148780000808000e40f500026
:104adc0006003a00108080008040780000c8b300c7
:104aec0080c040006900470001487800640047001e
:104afc00e800470011487800e900470066004700cd
:104b0c0001087800000c200001002000008fbe007e
:104b1c008e0078000000eb008bfb07007200470052
:104b2c009040780030ccb30000c06000804078002a
:104b3c000124a00072004700014878007200470071
:104b4c0010407800804078000104a10072004700fa
:104b5c0001487800720047001040780080407800cf
:104b6c000164a10072004700014878007200470000
:104b7c0010407800804078000114a10072004700ba
:104b8c00014878007200470010407800804078009f
:104b9c000174a1007200470001487800d0808000a9
:104bac008040780073004700014878006e00470091
:104bbc00f200470011487800f300470070004700ee
:104bcc000108780070762000010020006a0147007f
:104bdc000089be006a004700800078000000eb00ee
:104bec0059fb07007c0047009040780030ccb300a4
:104bfc0000c06000804078004141b3007c00470059
:104c0c00014878007c004700104078008040780014
:104c1c000104a1007c004700014878007c0047009b
:104c2c0010407800804078000164a1007c004700af
:104c3c00014878007c0047001040780080407800e4
:104c4c000114a1007c004700014878007c0047005b
:104c5c0010407800804078000174a1007c0047006f
:104c6c0001487800a6fd070061808000c808de00be
:104c7c000142780061808000814178007180800061
:104c8c00c808de0001417800718080008140780006
:104c9c00fd024700804a78007e00470004487800f7
:104cac007f00470003487800000220000e004000ff
:104cbc0002487800100220000e00400001487800e5
:104ccc0078004700fc00470011487800607620000f
:104cdc0001002000740147000089be00fd00470060
:104cec007a004700010878007400470080007800c3
:104cfc000000eb0014fb070000808000e20f500066
:104d0c002f003200e20f500005003e000000e000d2
:104d1c0008003200e10f50001b00320045ff370045
:104d2c00e30f50003e003200e40f50004f00320001
:104d3c0040ff37007dfe070076fd07000004e00011
:104d4c0003003200100020005bfd07009f003700bd
:104d5c006bfd07000004e0000a0032008180800037
:104d6c003082800000805000a0808800e1808000ac
:104d7c005082800000805000f080880010002000dd
:104d8c0030fd07009100370021818000e06a21008e
:104d9c00808f5000030036002000200029fd070002
:104dac008a00370056fd07000004e00003003a00bb
:104dbc000000eb0023fd0700840037008300370060
:104dcc008afe07004efd07000004e00004003200dc
:104ddc0021818000d06a2100808f500003003e00aa
:104dec000000eb0017fd07007800370049fd0700b5
:104dfc000004e00009003200d1808000c0fc2000db
:104e0c00808f500003003600300020000dfd07009d
:104e1c00020037003000200027fd07006b00370030
:104e2c0072fe07003bfd07000004e00003003a009f
:104e3c002000200003fd07006400370030fd070050
:104e4c000004e00003003a00400020001afd0700b7
:104e5c005e003700b6fd07000004e00002003200df
:104e6c006000200014fd07005800370010808000ff
:104e7c00e40f500025003200e40f500007003e0004
:104e8c00e20f500012003200e20f500019003e00f9
:104e9c00e10f5000080032004b003700e60f5000c5
:104eac003a003200e60f50001f003900e70f5000a7
:104ebc003d0032004400370016fd07000004e000fe
:104ecc0002003a000000eb00defc07003e00370059
:104edc000bfd07000004e00005003a000dfd070083
:104eec000004e00002003a000000eb00d5fc0700d3
:104efc003500370007fd07000004e00002003a000f
:104f0c0020002000cffc07002f00370037fe0700e1
:104f1c0000fd07000004e00002003a000000eb0076
:104f2c00c8fc07002800370030fe07008181800094
:104f3c0040062000808f5000030036003030ef0018
:104f4c000000eb00bffc07001efd07000004a200e0
:104f5c000004e000090032003030ef0000818000d6
:104f6c00e40f500003003a0010818000d2fc0700cf
:104f7c000200370000818000b2fc070080818000b5
:104f8c006a004000808188000f00370017fe070080
:104f9c0067fd07000004a2000004e00002003200dc
:104fac0030002000a7fc0700d5fc07000004e0003f
:104fbc0005003a00d7fc07000004e00002003a00ac
:104fcc000000eb009ffc07000000000099fe37007a
:104fdc000000fa00002bef0000062000105888009b
:104fec00042bef00062bef00082bef000a2bef0031
:104ffc00102bef00122bef00142bef00202bef00e7
:10500c00f001200010598800382bef00402bef00e6
:10501c00482bef00502bef003a2bef00422bef0008
:10502c004a2bef00522bef003c2bef00442bef00f0
:10503c004c2bef00542bef003e2bef00462bef00d8
:10504c004e2bef00562bef0000402000505b8800e9
:10505c0000402000705b880000402000905b8800be
:10506c0000402000b05b8800a02bef00a42bef00c9
:10507c00a82bef00ac2bef00d02bef00d22bef00c6
:10508c00f02bef00f22bef00022cef00008d220032
:10509c0043000700e08f2200590007000093220014
:1050ac00700007002096220087000700409922001c
:1050bc009e000700609c2200b5000700a09d220006
:1050cc00bd000700e09e2200c500070020a02200c2
:1050dc00cd00070060a12200d50007000d68a900d3
:1050ec002d68a8000d88a9002d88a8000da8a9007e
:1050fc002da8a8000dc8a9002dc8a8000de8a9006e
:10510c002de8a8001160800000f020000100700064
:10511c001060880001eba80013000700101020009d
:10512c00005c880000102000105c8800100020003b
:10513c00205c8800862bef00882bef008a2bef0079
:10514c008c2bef008e2bef0010102000805c880061
:10515c0010102000905c880010002000a05c8800db
:10516c000080fa00000006000000fa0000eca80025
:10517c00000000000160800000002800008060003a
:10518c000000e000fbff32000aeba8000080fa00f0
:10519c00000006000000fa000080fa000000060083
:1051ac000200fa00000f78001e0078009081880041
:1051bc000080fa00000006000000fa005140800058
:1051cc0000402000008060000000e000060032007b
:1051dc00908180000000e00002003200908180008d
:1051ec00000001000b48a9000080fa000000060036
:1051fc000200fa00000f78000080fa0000000600a0
:10520c000200fa00000f78001e007800a0818800d0
:10521c000080fa00000006000200fa0080598000ad
:10522c00610060000000e000080032006160800056
:10523c00010f7800a08180000000e0000300320024
:10524c00a18180001e007800010001000080fa009e
:10525c00000006000200fa00000f78000080fa003f
:10526c00000006000200fa00000f78001e00780013
:10527c00b08188000080fa00000006000200fa00ed
:10528c0080598000620060000000e00008003200dd
:10529c0071608000010f7800b08180000000e00098
:1052ac0003003200b18180001e0078000100010073
:1052bc000080fa00000006000200fa00000f7800df
:1052cc000080fa00000006000200fa00000f7800cf
:1052dc001e007800c08188000080fa0000000600e3
:1052ec000200fa0080598000680060000000e000b5
:1052fc000800320091608000010f7800c0818000ae
:10530c000000e00003003200c18180001e00780024
:10531c00010001000080fa00000006000200fa0003
:10532c00000f78000080fa00000006000200fa006e
:10533c00000f78001e007800d08188000080fa00f1
:10534c00000006000200fa00805980007000600026
:10535c000000e00008003200a1608000010f78001e
:10536c00d08180000000e00003003200d181800079
:10537c001e007800010001000080fa000000060009
:10538c000200fa00000f78000080fa00000006000e
:10539c000200fa00000f78001e007800e0818800ff
:1053ac000080fa00000006000200fa00000f7800ee
:1053bc000080fa00000006000200fa00000f7800de
:1053cc001e007800f08188000080fa0000000600c2
:1053dc000200fa00000f78000080fa0000000600be
:1053ec000200fa00000f78001e007800008288008e
:1053fc000080fa00000006000200fa00000f78009e
:10540c000080fa00000006000200fa00000f78008d
:10541c001e007800108288000080fa000000060050
:10542c000200fa00000f78000080fa00000006006d
:10543c000200fa00000f78001e007800208288001d
:10544c000080fa00000006000000fa00007c8000da
:10545c000080fa00000006000200fa00faff0700c4
:10546c00000f78001e007800240007000004e00004
:10547c0002003200000028007d0007001e007800aa
