:020000040000fa
:080000000002040000000000f2
:020000040000fa
:04000800c60300002b
:020000040000fa
:04000c0008040000e4
:020000040000fa
:0400100048040000a0
:020000040000fa
:04001400e6030000ff
:020000040000fa
:0400180028040000b8
:020000040000fa
:04001c006806000072
:020000040000fa
:040020006804000070
:020000040000fa
:04002400680600006a
:020000040000fa
:040028006806000066
:020000040000fa
:04002c0006050000c5
:020000040000fa
:04003000680600005e
:020000040000fa
:04003400680600005a
:020000040000fa
:040038006806000056
:020000040000fa
:04003c006806000052
:020000040000fa
:04004000680600004e
:020000040000fa
:04004400680600004a
:020000040000fa
:040048006806000046
:020000040000fa
:04004c006806000042
:020000040000fa
:04005000680600003e
:020000040000fa
:04005400680600003a
:020000040000fa
:040058006806000036
:020000040000fa
:04005c006806000032
:020000040000fa
:04006000680600002e
:020000040000fa
:04006400680600002a
:020000040000fa
:040068006806000026
:020000040000fa
:04006c006806000022
:020000040000fa
:04007000680600001e
:020000040000fa
:04007400680600001a
:020000040000fa
:040078006806000016
:020000040000fa
:04007c006806000012
:020000040000fa
:04008000680600000e
:020000040000fa
:04008400680600000a
:020000040000fa
:040088006806000006
:020000040000fa
:04008c00dc04000090
:020000040000fa
:0400900068060000fe
:020000040000fa
:0400940068060000fa
:020000040000fa
:0400980068060000f6
:020000040000fa
:04009c0068060000f2
:020000040000fa
:0400a00068060000ee
:020000040000fa
:0400a40068060000ea
:020000040000fa
:0400a80068060000e6
:020000040000fa
:0400ac00b20400009a
:020000040000fa
:0400b00068060000de
:020000040000fa
:0400b40068060000da
:020000040000fa
:0400b80068060000d6
:020000040000fa
:0400bc0068060000d2
:020000040000fa
:0400c00068060000ce
:020000040000fa
:0400c40068060000ca
:020000040000fa
:0400c80068060000c6
:020000040000fa
:0400cc0068060000c2
:020000040000fa
:0400d00068060000be
:020000040000fa
:0400d40068060000ba
:020000040000fa
:0400d80068060000b6
:020000040000fa
:0400dc0068060000b2
:020000040000fa
:0400e00068060000ae
:020000040000fa
:0400e40068060000aa
:020000040000fa
:0400e80068060000a6
:020000040000fa
:0400ec0068060000a2
:020000040000fa
:0400f000680600009e
:020000040000fa
:0400f400680600009a
:020000040000fa
:0400f8006806000096
:020000040000fa
:0400fc006806000092
:020000040000fa
:04010000680600008d
:020000040000fa
:040104006806000089
:020000040000fa
:040108006806000085
:020000040000fa
:04010c006806000081
:020000040000fa
:04011000680600007d
:020000040000fa
:040114006806000079
:020000040000fa
:040118006806000075
:020000040000fa
:04011c006806000071
:020000040000fa
:04012000680600006d
:020000040000fa
:040124006806000069
:020000040000fa
:040128006806000065
:020000040000fa
:04012c006806000061
:020000040000fa
:04013000680600005d
:020000040000fa
:040134006806000059
:020000040000fa
:040138006806000055
:020000040000fa
:04013c006806000051
:020000040000fa
:04014000680600004d
:020000040000fa
:040144006806000049
:020000040000fa
:040148006806000045
:020000040000fa
:04014c006806000041
:020000040000fa
:04015000680600003d
:020000040000fa
:040154006806000039
:020000040000fa
:040158006806000035
:020000040000fa
:04015c006806000031
:020000040000fa
:04016000680600002d
:020000040000fa
:040164006806000029
:020000040000fa
:040168006806000025
:020000040000fa
:04016c006806000021
:020000040000fa
:04017000680600001d
:020000040000fa
:040174006806000019
:020000040000fa
:040178006806000015
:020000040000fa
:04017c006806000011
:020000040000fa
:04018000680600000d
:020000040000fa
:040184006806000009
:020000040000fa
:040188006806000005
:020000040000fa
:04018c006806000001
:020000040000fa
:0401900068060000fd
:020000040000fa
:0401940068060000f9
:020000040000fa
:0401980068060000f5
:020000040000fa
:04019c0068060000f1
:020000040000fa
:0401a00068060000ed
:020000040000fa
:0401a40068060000e9
:020000040000fa
:0401a80068060000e5
:020000040000fa
:0401ac0068060000e1
:020000040000fa
:0401b00068060000dd
:020000040000fa
:0401b40068060000d9
:020000040000fa
:0401b80068060000d5
:020000040000fa
:0401bc0068060000d1
:020000040000fa
:0401c00068060000cd
:020000040000fa
:0401c40068060000c9
:020000040000fa
:0401c80068060000c5
:020000040000fa
:0401cc0068060000c1
:020000040000fa
:0401d00068060000bd
:020000040000fa
:0401d4003c050000e6
:020000040000fa
:0401d80078050000a6
:020000040000fa
:0401dc00b405000066
:020000040000fa
:0401e000f005000026
:020000040000fa
:0401e4002c060000e5
:020000040000fa
:0401e80068060000a5
:020000040000fa
:0401ec0068060000a1
:020000040000fa
:0401f000680600009d
:020000040000fa
:0401f4006806000099
:020000040000fa
:0401f8006806000095
:020000040000fa
:0401fc006806000091
:020000040000fa
:04020000680600008c
:020000040000fa
:040204006806000088
:020000040000fa
:040208006806000084
:020000040000fa
:04020c006806000080
:020000040000fa
:04021000680600007c
:020000040000fa
:040214006806000078
:020000040000fa
:040218006806000074
:020000040000fa
:04021c006806000070
:020000040000fa
:04022000680600006c
:020000040000fa
:040224006806000068
:020000040000fa
:040228006806000064
:020000040000fa
:04022c006806000060
:020000040000fa
:04023000680600005c
:020000040000fa
:040234006806000058
:020000040000fa
:040238006806000054
:020000040000fa
:04023c006806000050
:020000040000fa
:04024000680600004c
:020000040000fa
:040244006806000048
:020000040000fa
:040248006806000044
:020000040000fa
:04024c006806000040
:020000040000fa
:04025000680600003c
:020000040000fa
:040254006806000038
:020000040000fa
:040258006806000034
:020000040000fa
:04025c006806000030
:020000040000fa
:04026000680600002c
:020000040000fa
:040264006806000028
:020000040000fa
:040268006806000024
:020000040000fa
:04026c006806000020
:020000040000fa
:04027000680600001c
:020000040000fa
:040274006806000018
:020000040000fa
:040278006806000014
:020000040000fa
:04027c006806000010
:020000040000fa
:04028000680600000c
:020000040000fa
:040284006806000008
:020000040000fa
:040288006806000004
:020000040000fa
:04028c006806000000
:020000040000fa
:0402900068060000fc
:020000040000fa
:0402940068060000f8
:020000040000fa
:0402980068060000f4
:020000040000fa
:04029c0068060000f0
:020000040000fa
:0402a00068060000ec
:020000040000fa
:0402a40068060000e8
:020000040000fa
:0402a80068060000e4
:020000040000fa
:0402ac0068060000e0
:020000040000fa
:0402b00068060000dc
:020000040000fa
:0402b40068060000d8
:020000040000fa
:0402b80068060000d4
:020000040000fa
:0402bc0068060000d0
:020000040000fa
:0402c00068060000cc
:020000040000fa
:0402c40068060000c8
:020000040000fa
:0402c80068060000c4
:020000040000fa
:0402cc0068060000c0
:020000040000fa
:0402d00068060000bc
:020000040000fa
:0402d40068060000b8
:020000040000fa
:0402d80068060000b4
:020000040000fa
:0402dc0068060000b0
:020000040000fa
:0402e00068060000ac
:020000040000fa
:0402e40068060000a8
:020000040000fa
:0402e80068060000a4
:020000040000fa
:0402ec0068060000a0
:020000040000fa
:0402f000680600009c
:020000040000fa
:0402f4006806000098
:020000040000fa
:0402f8006806000094
:020000040000fa
:0402fc006806000090
:020000040000fa
:04030000680600008b
:020000040000fa
:040304006806000087
:020000040000fa
:040308006806000083
:020000040000fa
:04030c00680600007f
:020000040000fa
:04031000680600007b
:020000040000fa
:040314006806000077
:020000040000fa
:040318006806000073
:020000040000fa
:04031c00680600006f
:020000040000fa
:04032000680600006b
:020000040000fa
:100400004f0c21000eff27000e0188000000200085
:100410000000e000020032000001200020028800fd
:10042000140007002c0207000000e00003003a005f
:10043000a05322000100200002003700000020002d
:1004400001002000810f70004220ae000f00070065
:10045000000020000000e0004220ae00000002008a
:1004600000000000d21b0200000000000040da0083
:100470000000fe00a00220000000e00002003200a8
:10048000002020009001880000000600a1028800e2
:10049000800478000000eb001f003700e284440075
:1004a00054a0b4009905ba00e284440054a0b400fa
:1004b0009906ba00e284440054a0b4000006eb00a0
:1004c000476fde00fd07b200ae018800636ce100fb
:1004d00003003a000ad801000000eb000e003700cc
:1004e000606ce10008003a00004deb000a05e800ee
:1004f000020039003420ec000af0a0008b05e9006e
:10050000f9ff3e00040037006168e100010032009d
:100510000086eb000b00070019c7ba001905ba00e6
:100520000e04e00003003a000a00e000dbff3a009e
:1005300000000600fe07b200ae0288008a047800c0
:10054000f5ff37000cd0a300e20f4d001c003b006c
:1005500089027800354dba000a05e800020039002a
:100560003420ec000af0a0008b05e9000f003200f7
:10057000254dba000a05e800020039003420ec00dd
:100580000af0a0008b05e900080032000c00e00032
:100590000600320015cdba000a05e8000200390055
:1005a0003420ec000af0a0008b05e9008984e80003
:1005b00054a0b4000b00e000e2ff3a000000060087
:1005c0009902ba00055d78008b05e900f7ff32005b
:1005d000c82ade00055d78008b05e900f3ff3200d4
:1005e0000c00e000f1ff320019ddba00eeff370029
:1005f0006100e10001003200100005005400f80025
:1006000020102000a002880000f92b001000ba0082
:100610005400f9000700260000f0a6008703d1006f
:100620000703780001c4fe000003eb000120200056
:1006300091018800c1642a00111303008703e900b7
:10064000fdff3a0000f0a7000000050000f0a00048
:1006500080c4fe0086037800f3ff37000408200002
:10066000010037000002eb006100e10001003200f0
:10067000100005003200f8003400f8008102780014
:10068000930188003200be000100e0000c0032003f
:100690000470a70000f0a00032037800c733de002a
:1006a000848343004220af008703e800a70188004d
:1006b000f607b2007f30e100040032002000200085
:1006c0003400f9003200f900000006008100e90062
:1006d0000500e00003003a00018009003210030029
:1006e000e8ff37000180090032900300d561ae00b9
:1006f000e4ff370030002000f1ff370050052000f4
:10070000b00e8800a00a2000b00e8800d3e1a80037
:100710000000060050052000b00e8800a00a20004e
:10072000b00e8800d3e1a90000000600e423040015
:1007300000000000fc1e0400000000002a1f04004e
:10074000000000005c1f0400000000008e1f040079
:1007500000000000c01f040000000000f21f0400a1
:100760000000000006200400000000001a20040021
:10077000000000002e2004000000000042200400c1
:1007800000000000ae1b0400000000003600f8006e
:10079000809fbe00829fbe00849fbe00869fbe00d9
:1007a0000000fa00c028a9000000eb002e1107008d
:1007b0000080fa004f03be004f02be004f01be0092
:1007c0004f00be003600f900004006003600f80079
:1007d000809fbe00829fbe00849fbe00869fbe0099
:1007e0000000fa0025110700c048a90010002000f1
:1007f0001d1107000080fa004f03be004f02be002b
:100800004f01be004f00be003600f9000040060058
:100810003600f800809fbe00829fbe00849fbe000d
:10082000869fbe000000fa00c068a90020002000da
:100830000d1107000080fa004f03be004f02be00fa
:100840004f01be004f00be003600f9000040060018
:100850003600f800809fbe00829fbe00849fbe00cd
:10086000869fbe000000fa00c088a900300020006a
:10087000fd1007000080fa004f03be004f02be00cb
:100880004f01be004f00be003600f90000400600d8
:100890003600f800809fbe00829fbe00849fbe008d
:1008a000869fbe000000fa00c608a9007000200064
:1008b000ed1007000080fa004f03be004f02be009b
:1008c0004f01be004f00be003600f9000040060098
:1008d0003600f800809fbe00829fbe00849fbe004d
:1008e000869fbe000000fa00214680000010200014
:1008f000008060000000e00003003200c508a9008d
:10090000c0002000d810070021468000000220000f
:10091000008060000000e00003003200c4a8a900cd
:1009200090002000d010070020468000700060007a
:100930000000e00003003200c488a900a0002000ed
:10094000c910070020468000610060000000e00040
:1009500003003200c408a900b0002000c210070044
:10096000ffff37003600f800809fbe00829fbe0068
:10097000849fbe00869fbe000000fa00e122800036
:1009800000002400008060000000e000020032004f
:10099000c60e07005dc4a9000428a9000080fa0063
:1009a0004f03be004f02be004f01be004f00be000d
:1009b0003600f900004006003600f800809fbe00b7
:1009c000829fbe00849fbe00869fbe000000fa008a
:1009d000e12e800000002400008060000000e000a4
:1009e0000200320083080700ddc5a9000328a90022
:1009f0000080fa004f03be004f02be004f01be0050
:100a00004f00be003600f900004006003600f80036
:100a1000809fbe00829fbe00849fbe00869fbe0056
:100a20000000fa00b08380000000e0000200320005
:100a3000b083800000000100b00921001040780060
:100a40008040e800b009210001487800a009210099
:100a500011c0b300014878000028a9000080fa0006
:100a60004f03be004f02be004f01be004f00be004c
:100a70003600f900004006003600f800809fbe00f6
:100a8000829fbe00849fbe00869fbe003200f80099
:100a90003400f80010002000a00188000020200091
:100aa00000d0fe000200fa0061618000010f7800b2
:100ab000308380000000e0000300320031838000ba
:100ac0001e007800010001000d68a9000080fa00f6
:100ad0003400f9003200f9004f03be004f02be009f
:100ae0004f01be004f00be003600f9000040060076
:100af0003600f800809fbe00829fbe00849fbe002b
:100b0000869fbe003200f8003400f800100020007c
:100b1000a00188000020200000d0fe000200fa00a2
:100b200071618000010f7800408380000000e000c8
:100b300003003200418380001e00780001000100a4
:100b40000d88a9000080fa003400f9003200f90095
:100b50004f03be004f02be004f01be004f00be005b
:100b60003600f900004006003600f800809fbe0005
:100b7000829fbe00849fbe00869fbe003200f800a8
:100b80003400f80010002000a001880000202000a0
:100b900000d0fe000200fa0081618000010f7800a1
:100ba000508380000000e000030032005183800089
:100bb0001e007800010001000da8a9000080fa00c5
:100bc0003400f9003200f9004f03be004f02be00ae
:100bd0004f01be004f00be003600f9000040060085
:100be0003600f800809fbe00829fbe00849fbe003a
:100bf000869fbe003200f8003400f800100020008c
:100c0000a00188000020200000d0fe000200fa00b1
:100c100091618000010f7800608380000000e00097
:100c200003003200618380001e0078000100010093
:100c30000dc8a9000080fa003400f9003200f90064
:100c40004f03be004f02be004f01be004f00be006a
:100c50003600f900004006003600f800809fbe0014
:100c6000829fbe00849fbe00869fbe003200f800b7
:100c70003400f80010002000a001880000202000af
:100c800000d0fe000200fa00a1618000010f780090
:100c9000708380000000e000030032007183800058
:100ca0001e007800010001000de8a9000080fa0094
:100cb0003400f9003200f9004f03be004f02be00bd
:100cc0004f01be004f00be003600f9000040060094
:100cd0000040da000000fe000000050014002000c3
:100ce0009b023700f4ff2f00990237000001be007d
:100cf0001b0007000470a70003f0a10003f8a30085
:100d000013003a006509b1001000320009003500f7
:100d10006928e100020035000100280000000500fc
:100d200000004000818048008502e900fcff3a0095
:100d300000000600f88f4200050035008100d10058
:100d40000080d3008502e800fcff3a0000000600a6
:100d50008000eb00000005006011b800970237002a
:100d6000c70ade00f107b200f50fb200080032003a
:100d7000e1cf4200020032000170a0002400050013
:100d8000810f7000010032000408050044000500d6
:100d9000810f700002003a00140005008502e9008e
:100da0000000400081c04800fcff3b000170a00033
:100db00024000500889fbe008a9fbe008c9fbe0055
:100dc0001b0020000202be00058668000600280005
:100dd000060666004709de00f20fb200820032000c
:100de0000243e80080003200c729de00f30fb200a2
:100df0007d0032000343e8007b003200f107b200bf
:100e00000170a000f507b2000570a000c708dd0062
:100e10004903de00868070004700dd00c72add0040
:100e20004923de00868272004722dd00030551005f
:100e30000403500085835800030031000000400087
:100e4000818048000a05e9008c1f78008a9fbe0057
:100e500004005000858058000402420085824a0048
:100e600000004000818048000005eb000004be0047
:100e70006033b8000406be000d48e10056003100a2
:100e8000050009004dccd8000c01b8000d02b800d7
:100e90008481410060824a008283530003045c0025
:100ea00084845c0060055d000a00e00025003a00d3
:100eb000800578000d40e10049003100880078008d
:100ec00007007800050009004d88d8000c01b80023
:100ed0000d02b8008481410060824a006003110065
:100ee00083835b0004045c00e0845c000900e00094
:100ef00021003a004f01be000300e0002b00320049
:100f0000e3016000070673008c817100010032006c
:100f1000640070004200de004e5edd000c007000d8
:100f2000c258de0001e0a00083010700cf01780075
:100f3000818071004f06be004f05be004f04be0009
:100f4000000006008c8343000d044c00e0844c003c
:100f500060054d000000e9000a00e000d4ff320007
:100f60008c8343000d044c00e0844c0060054d0070
:100f70000000e900ceff37000c0343008d834b00d7
:100f800060044c00e0844c000000e9000900e0002f
:100f9000d8ff32000c0343008d834b0060044c00eb
:100fa000e0844c000000e900d2ff37004200de0080
:100fb0004e5edd000c007000c258de0001e0a000b3
:100fc000cf0178000300e000daff3200600010007b
:100fd000e0801800d7ff3700f0ff2f00aaff37008e
:100fe000f0ff2f00b9ff37000404be002f010700f7
:100ff000870678000004fd008104fd002b01070036
:10100000078366000678a300030032000960a7008a
:101010000800be002c0037000d78a300020032004b
:101020000800be00280037000778a30026003a0019
:1010300001f0a10009f0a1000668a300030032003e
:10104000f1ff2700f0ff2f00baff37000d68a30063
:10105000030032000800be008c807000b5ff37002e
:101060000768a30007003a000648a3000300320007
:10107000f1ff2700f0ff2f00aeff37000d48a3005f
:10108000030032006000b8008c807000a9ff3700b8
:101090000748a3000400320001f8270000002000e8
:1010a0008c807000a3ff3700760107000004fd006c
:1010b0008104fd0002057800720107000802be00ed
:1010c0008a01780059ff37000160a0001202200059
:1010d000c283880097ff37000100e0001200320051
:1010e0000500e00010003200889fbe008a9fbe000d
:1010f0008c9fbe000006eb0001f8a3000300320045
:1011000060001000e08018000cf0a00005f8a300bb
:101110000300320060021200e0821a000cf0a2000c
:101120008005eb0041ff37006000b80002000500b9
:10113000038368000700280007036300470ade00f6
:101140000480a100c71ade000580a100f70f20006f
:101150000720e100420032000728e1004000320091
:10116000889fbe008a9fbe008c1f7800f107b200e6
:10117000f307b2000400e000640032000170a00038
:101180000500e000680032000370a0008505420001
:10119000eb07b1000204b8000302b80084844400e5
:1011a00060854a00020ab800848444000a854a0027
:1011b000030ab80004054500040033000804d00009
:1011c0008984d2000a85d2008b05e9006158e100cc
:1011d0003d003500021020000901610003082000d5
:1011e00089816100f7072000878364000886730007
:1011f000c84cde00c853dd00878474004855de000b
:101200000300e00006003200820376000400320092
:101210008904e80060054d000a88a3000c003a002c
:10122000f70f20000758e10044003d000a70a100bc
:10123000c75ddd000a8575008a007300090078002b
:101240004f0678004f05be004f04be0000000600a8
:101250000a05d1008984d3008b05e800f0ff370030
:10126000881f7800060478009000070007027800c5
:101270000001fd008101fd008c000700870278005d
:10128000850372000778a300050032000001fd000d
:101290008101fd009f0007004f0478000000060058
:1012a000850372000748a30003003200f0ff2f00ff
:1012b000f1ff2700f8ff37000000200001f82700a9
:1012c00088807000f4ff3700880178004848dd000e
:1012d000808171004848de00c850dd0001007000c8
:1012e000c850de00060478000b01780016000700e5
:1012f00088807000d2ff37000500e0000500320052
:10130000170020003a0007009dff3700810370009e
:10131000f9ff3a00860078004f0678004f05be00be
:101320004f04be000000050083037100f9ff320086
:10133000270020002e00070094ff370001f8270047
:1013400086807000f4ff37000100e00026003200c4
:10135000610111007810e10023003c006022b80018
:101360007010e10004003500800278000100780070
:101370008000eb00700151000200e0000900340021
:1013800070031100062add00822ade008603dd00dc
:10139000878272000200de00860bdd00070070000d
:1013a0008208de0084817100f4ff2700048262005d
:1013b0008481710004002800848262006102600060
:1013c00005f0a6000000060004827100070032004c
:1013d0000000e800e0804800000006000002be00b7
:1013e0006000b800efff37006000b80000000600a2
:1013f000889fbe000004eb006138e10016003a004f
:101400000100e00008003a00c800de004800dd00ee
:10141000880020000100e00003003a00c800de0060
:101420004800dd00680444008184cf00e984540052
:10143000060034008908dd00f08314008703de0015
:10144000878070000900dd00090444006102140077
:101450004f04be00000006000300e00008003a0050
:10146000c811de004811dd00880020000300e00004
:1014700003003a00c811de004811dd006804440092
:101480008384cf00e9845400060034008919dd000c
:10149000f08314008713de00878171000911dd00dd
:1014a00009044400e1021400e9ff3700270020008e
:1014b00001f0a70017002000470bde00f60fb20076
:1014c000040032000643e8000a0032004702b3007d
:1014d0000000060001037800f607b2000603700062
:1014e00002003a000703b300000006008702b300c1
:1014f0000000060001037800f607b2000603700042
:10150000020032000770a000000006000760a00083
:10151000000006000478a300040032000578a30050
:10152000030032000168a30001003a000200be007f
:101530000160a00000000600810170002700320059
:101540008002eb0001f8a3000300320060001000ed
:10155000e080180015002000f4072000020242007d
:1015600020003400f70320008703600006042000f9
:101570000003630002082000000161004700de0054
:10158000c909dd0000807100c708de000600e00028
:101590000800320087037100060032001000b0001e
:1015a0000180b0000188a30002003200c108de0003
:1015b0000402e800f107b200f30f20000320e1006d
:1015c00003003d004722dd00810072002900370042
:1015d00001f827000000eb00260037006000b8008b
:1015e00000000600680212007f20e10002003400c3
:1015f0006000b8001f0037006011b8007020e100e3
:101600000400350080017800010078008000eb00c4
:10161000700252000400e00009003400f0031200e0
:101620000719dd008419de000703dd0086817100e3
:101630000400de00070bdd00060070008408de00f9
:10164000f7ff2700838363008703710006002800eb
:1016500003036300070032000700e00003003a00c4
:101660006101600002817300020032001000b000ce
:101670000180b0000500a6000000060001f0a000f7
:10168000000006004f0ade004709de00f107b20045
:10169000f20fb2000b003200f207b1000170a0009f
:1016a000c708dd00c901de00838070004700dd004f
:1016b0000400a6000000060060001000e080180092
:1016c00000000600810f700001003a0000000600d3
:1016d0008182cf000500e00010003e008082cf0034
:1016e000ee8242007028e1000400390007003e004d
:1016f000800078000000eb000e00370070831200bd
:101700008600de000500dd000a003700708352000d
:101710008600dd000000eb0006003700e282520088
:101720008508dd00708312000603de0086807000ed
:101730000500dd007507b0000501ea000400a60001
:101740000000060060001000e080180000000600a5
:10175000889fbe008a9fbe00841f78006c0007002f
:101760004f00780011003300f0ff2f00838f6c00d2
:1017700006003b00040565000a00a70008003700ca
:1017800009f0a6001000200008003700820f540066
:10179000838f5c00030039001000200001003e0030
:1017a0000000200009f0a7000000ea004f05be007d
:1017b0004f04be000000e00000000600889fbe004d
:1017c0008a9fbe00008270000402710004827100d2
:1017d000260032000004be000200be006011b80006
:1017e0006b092000950220000182cf000a00390019
:1017f0000541b1000082cf00070039000541b1006a
:101800000982cf00040039000541b1000882cf00f1
:10181000010039000541b1000542520012003200ba
:101820000a003b0082817100610164008100d100e7
:101830000080d3008984d3000884d3008b05e8009e
:101840000442e800f7ff3a000700370008044400ac
:1018500089844c0000004800818048008b05e90025
:101860000442e900f9ff3a00030007004f05be00fb
:101870004f04be000000060081002000618055007a
:101880000b003d000b00200061fe2f000100e10075
:101890001d00340082817100610164008904d1005f
:1018a0000884d3000000e800faff3a00710020002d
:1018b0006100640003007000020060000900320053
:1018c00061044400e0844c000988a5000500320052
:1018d0008b05e8006808e10002003a008904d100a5
:1018e0000884d300f20f20000258e10005003d00fb
:1018f000c75ddd00f907b200898075000800780037
:10190000000006000bf827008b007800000005009f
:101910000004be0012fd07000003be000405be0067
:101920000200be000efd0700844f75000000060097
:101930008001780002003700b15978000201e90007
:101940000200e000fcff3a0000000600889fbe0095
:101950008a9fbe00800478000200e0005a00320036
:1019600001407800814c780082814400f1f99f00a9
:10197000e20f51005400360091449800a1449800b1
:10198000e1f99f00d1f99f00e60f51004e003600ab
:10199000b1449800c1f99f00e80f51004a00360099
:1019a0000905ea00630565000a8444000a05510040
:1019b000c1ff2f00010565000080fb008000eb00e7
:1019c000121020001310200043000700008cbe00fe
:1019d0000a01440060b99f0071b99f00e80f5500eb
:1019e0003900360020049800310498004004980023
:1019f0005104980020b99f0031b99f0040b99f0061
:101a000051b99f00f80f55002f0036006004980070
:101a100071049800000c9800110c9800200c98009c
:101a2000310c9800400c9800510c980020b19f0098
:101a300031b19f0040b19f0051b19f0060b19f0044
:101a400071b19f0000b99f0011b99f00640164004b
:101a50007801410002044400020555006011b800fd
:101a60000203be000002be000403be006022b800f4
:101a70000000720081807200020173008381730094
:101a80000f00370008027800009abe00029abe00dc
:101a9000009abe000292be00000c9800110c980043
:101aa000220c9800330c9800400c9800510c9800c0
:101ab000620c9800730c98000a02b1000802b00092
:101ac000ff0f5500efff3e00090078004f05be00f4
:101ad0004f04be0000000600020ab900001bb90056
:101ae0000200b800810042008100430000000600af
:020000040000fa
:101af00000000000be420000000000008e42000016
:101b0000000000006c420000000000003c420000a9
:101b1000000000000c42000000000000b84100007e
:101b2000000000003041000000000000a040000064
:101b30000001000002030000040500000607000089
:041b40000800000099
:020000040000fa
:101b44000200fa00000f780080d928001e0040002f
:101b5400104078000080fa00000006000400fa003b
:101b6400004f78000e80e800010878001e80fb001a
:101b74000000e00003003200e10f500010003200ca
:101b84001e0037000e80e8001000780081612000fc
:101b94000080e800010878000e80e80090007800da
:101ba40080c0b300804878000e80e8001000780000
:101bb40011c0b3000000e800014878001e0037009f
:101bc4000e80e80010007800416220000080e800e8
:101bd400010878000e80e8009000780080c0b3000f
:101be400804878000e80e8001000780011c0b3002f
:101bf4000000e800014878000f0037000e80e8007c
:101c0400100078008000eb000080e80001087800f4
:101c14000e80e800900078000040eb0080487800d7
:101c24000e80e800100078008040eb000000e8001f
:101c340001487800000000000080fa00000006005f
:101c44000200fa000040eb00004f78000700370064
:101c54001e80fb00c200dd00200721000080400040
:101c64008040eb00014878001e4fe8001e407800d9
:101c74000004e000f6ff32000080fa0000000600d5
:101c84000400fa008e80e800800878000e80e800e6
:101c940010007800e10f500003003a00003180008a
:101ca400690f6000030037000000eb00000f7800ac
:101cb400000000001e0078000080fa00000006000a
:101cc4000200fa00000f78001e007800e10f5000b7
:101cd40003003a002066a90000000000010037005c
:101ce400000000000080fa00000006000200fa0074
:101cf400004f78001e80fb00e10f500003003a0003
:101d04001d06a800000000000100370000000000cc
:101d14000080fa00000006000400fa008e80e8004b
:101d2400800878000e80e80010007800e10f500071
:101d340006003a0000318000c8800a00000000005c
:101d44000080fb00000f7800030037000000eb0068
:101d5400000f7800000000001e0078000080fa00e8
:101d6400000006000200fa00000f78001e00780050
:101d74000000e00006003a008130800000302000be
:101d8400010070008030880000000000010037006e
:101d9400000000000080fa00000006000a00fa00bb
:101da400889fbe008a9fbe0066054700000d78002c
:101db40068004700010878000040eb00004f7800fd
:101dc40066004700900078000e80e8001108780053
:101dd40066004700100078008080e8006600470035
:101de400010878006600470090007800640047000e
:101df4001108780066004700100078008080e80031
:101e0400660047000108780066004700100078006b
:101e140010007800004078006f4060006f40600060
:101e24006f406000e8004700910078000080fb00ec
:101e34006f0060004200dd00648540009a05780070
:101e44003afc2f000a8565000a0570006480400092
:101e54000a08780066004700100078001000780037
:101e6400700060004400de0000407800e140600043
:101e740068004700100078008180fb00e18060006a
:101e8400640540001a0578000a00a1008a807000e9
:101e940064004000010878006600470010007800e4
:101ea4009000780000022000008060004500de0001
:101eb4000040780061406000e8004700910078002d
:101ec4000080fb0061006000000040006485400069
:101ed4001a0578000a10a1000a0570006480400009
:101ee4000a08780066004700100078009000780027
:101ef40000042000008060004600de0000407800fe
:101f0400e140600068004700100078008180fb0019
:101f1400e1806000c708dd00640540001a05780010
:101f24000a70a1008a8070006400400001087800f3
:101f34006600470010007800900078000008200038
:101f4400008060004700de0000407800e14060004f
:101f540068004700100078008180fb00e180600089
:101f6400c608dd00640540001a0578000a60a10077
:101f74008a8070006400400001087800680047000f
:101f840010007800640040001000780061006000d8
:101f94000000e00012003a000e80e8001000780013
:101fa4006101b800f07f20000100200002027800e7
:101fb400030178008001780081007800030062004a
:101fc4008100610081047800000478000800be00ec
:101fd40068014700120178000089be003100370013
:101fe4000e80e800100078006104b800f07f200043
:101ff40001002000080578000904780080047800b6
:102004008100780009006500810064008103780084
:10201400000378000600be00c204dd0008002000b2
:1020240064004700100078006103b800f0ff21004d
:10203400010020000605780007037800800378007b
:102044008100780007006500810063008102780048
:10205400000278004528dd00cb20de0081007000fe
:102064004520dd0000027400818274000e80e800c7
:10207400100078004b00de008000eb0000007800c8
:102084007f0060008001eb00000178000200be00c8
:10209400000072008180720068014700120178001c
:1020a4000089be006600470010007800e40040008c
:1020b40066004700010878006800470010007800b7
:1020c400640040001000780052800a000000000004
:1020d4000080fb009afe0700004f78008200200079
:1020e4008000eb00c00b210017fe07001e80fb00e0
:1020f400000178006600470090007800c00b2100c2
:102104000afe07006800470010007800c10b210098
:1021140066004000010878004f05be004f04be0071
:102124000080fa00000006000600fa000e81e800b4
:102134000009780064004700010878000040eb00c3
:10214400004f7800640047001000780064004000ed
:1021540010007800610060000000e0000f003a0009
:1021640064004700100078001000be008000780072
:10217400f07f2000808060000e80e800100078006e
:10218400010878000e80e80010007800e4004000a8
:102194000e80e8000108780027003700640047003b
:1021a400100078001000be004208de0080007800b5
:1021b400f07f200000816000640047001000780078
:1021c4001000be00000078004b00dd0082007000ab
:1021d4000e80e80010007800010878000e80e80006
:1021e400100078008080e8000e80e8000108780084
:1021f40064004700100078001000be004b09dd00a9
:102204004500de0000007100c508de008000780093
:10221400f0ff2100808060000e80e800100078004c
:10222400010878000e80e800100078008080e80043
:102234000e80e80001087800640047001000780070
:10224400640040001000780052800a000000000082
:102254008080fb00640047001000780064004000a8
:102264001000780000800a00000000000080fb00dd
:102274004400dd00700060008100700064004700cd
:1022840010007800640040001000780011800a00fb
:10229400000000000080fb004500dd000001780024
:1022a400000220000000610081007000640047000b
:1022b40010007800640040001000780077800a0065
:1022c400000000000080fb004600dd0000017800f3
:1022d40000042000000061008100700064004700d9
:1022e40010007800640040001000780066800a0046
:1022f400000000000080fb004700dd0000017800c2
:10230400f00f200000006100810070000e80e800e2
:10231400100078000108780064004700100078007d
:102324006400400010007800620060000000e000db
:1023340017003a000e80e80010007800e400400026
:102344000e80e8000108780064004700100078005f
:10235400640040001000780052800a000000000071
:102364000080fb00f6fd0700004f78001e80fb0094
:10237400e400470091007800e68040009100780076
:10238400000178000e80e8001000780067fd070067
:102394000080fa00000006000000fa00004020005f
:1023a4008030880000042000903088000080fa000b
:1023b400000006000000fa0000402000e030880021
:1023c4001e26ef000080fa00000006000000fa005c
:1023d4008133800000fe2f00008060000000a00018
:1023e40080338800000d2000003488008226ef002e
:1023f4008426ef00000024003034880070e6a80032
:102404000080fa00000006000000fa00f0f121004c
:10241400202e8800e0072000302e88000080fa007b
:10242400000006000000fa00c1e5a80000412000f9
:10243400102e880040002000110007000000e0007a
:102444000d003a00c00921006030880000762900a0
:10245400002e8800c265a900c285a800eaff070013
:10246400cdff0700d3ff0700d8ff0700f4fd0700e6
:1024740060002000020007000080fa00000006004f
:102484000400fa008e80e800800878000000eb0069
:10249400000f78002e000700e40f500008003200ff
:1024a4000e80e80010007800e10f500004003200b4
:1024b4000e80e80010007800e40f50001f003a007e
:1024c4000e80e8001000780000407800674060004b
:1024d4000080fb00670060004800dd00122e8000d1
:1024e400f18f2f008100610001007000102e880020
:1024f40009003700e12e8000000021000080600008
:102504000000e0000400320020002000000f7800ea
:10251400000000000b003700102e800075800a00b8
:10252400000000000080fb008e80e800910078002d
:10253400810f5000efff3a00020037001000200026
:10254400000f78001e0078000080fa0000000600ea
:102554000000fa00102e800075800a0000000000c0
:102564000080fb000080fa00000006000c00fa0066
:10257400ea004700800878008040eb000e00e80085
:10258400014878000040eb00004f7800510037000c
:102594001e80fb00c200dd00000721000080400017
:1025a400900078000e80e80001487800660047003b
:1025b400800078000e80e8001040780067fd070076
:1025c4000e80e800104078000080fb00acfd07009e
:1025d4008000780064004700010878006400470028
:1025e4001000780061006000004078000004e00002
:1025f40037003200680047001000780010007800af
:102604000000e00037003200680047001000780046
:1026140010007800ea00470091007800dffd070011
:102624000e80e80010407800b0fd07001e80fb001b
:102634009e80fb00c208dd000181e8000107210043
:1026440081004100914078008140e8004201dd00b2
:102654002007210000004100014878001e80fb0093
:102664004200dd008080e800000721000080400077
:1026740090407800670047001040780080cf5000f9
:10268400060039001e80fb00c200dd002007210087
:10269400008040008040eb0001487800640047005f
:1026a40010007800680060000000e00004003200c0
:1026b4000e80e800104078000080fb0080fd0700d9
:1026c40011c0b3000e00e80001487800060037008e
:1026d4001e4fe8001e4078000004e000acff32000a
:1026e40001003700000000000e00e80010407800f0
:1026f4000080fa00000006000a00fa0066014700a4
:102704000009780068004700010878006600470067
:1027140010007800004078008e80e8000ffd07006c
:102724000000eb00000f78006800470010007800fc
:1027340064004000900078000008200000806000e1
:102744000000e00006003200012e8000000021009d
:10275400008060000000e000010032001e10a000b4
:102764006800470010007800640040001000780002
:1027740052800a00000000000080fb00e80f5000b7
:10278400010034001e00a00068004700100078001b
:10279400640040001000780052800a00000000002d
:1027a4000080fb00e6fc07008e80e8009140780082
:1027b400814f5000010036001e00a0001e0078006a
:1027c4000000e00016003a006600470010007800a0
:1027d40016000700e10f50000f003a0064004700a4
:1027e40010007800100078000000e0000c003200b7
:1027f400640047001000780010007800e8004700eb
:102804009100780048fe0700660047001000780039
:1028140054fd0700020037009e007800638f7000ab
:102824001e0078000080fa00000006000400fa0090
:102834008e80e800800878000e80e80010007800a0
:102844000000e00004003a00a03080006100600055
:10285400000f7800030037000000eb00000f780041
:10286400000000001e0078000080fa00000006004e
:102874000c00fa008040eb00630047000148780038
:102884000040eb00004f78008040eb000e00e800b1
:10289400014878008040eb000e80e8000148780091
:1028a4000040eb00004f7800670037001e80fb00fb
:1028b400c200dd0000072100008040009000780085
:1028c40063004700014878006800470080007800f2
:1028d4006300470010407800a0fc07006300470035
:1028e400104078000080fb00e5fc070080007800c1
:1028f4006400470001087800640047001000780075
:1029040061006000004078000004e0004d003200e7
:102914006400470010007800680060000000e000d8
:10292400040032000e00e800e90047001148780076
:102934003d00370063004700104078000080fb0032
:10294400f5fc070080007800660047000108780065
:102954001e80fb004200dd008080e80000072100ab
:1029640000804000104078000080fb00e600470033
:1029740091007800810f5000100036006900470074
:10298400904078006600470010007800004078000e
:1029940080c040001e80fb004200dd000081e80092
:1029a40000072100000041001040780080c0500062
:1029b4000e00e800014878001b0037001e80fb0071
:1029c4004200dd008080e800000721000080400014
:1029d400104078000080fb00e6004700910078007a
:1029e400810f50000d003100660047001000780090
:1029f400804078001e80fb004200dd000081e8007a
:102a040000072100000041001040780080c0500001
:102a14000e00e80001487800030037000e00e800cb
:102a2400e9004700114878000e80e80090407800e3
:102a34000e00e8001040780080c040000e80e800de
:102a4400014878001e4fe8001e4078000004e000b2
:102a540096ff32000e80e800104078000080fa00f3
:102a6400000006000000fa00b02f800055800a0024
:102a7400000000000080fb0000f0a7000000ea0056
:102a84000000ea004f00de00004078000080fa00f9
:102a9400000006000000fa00b02f800033800a0016
:102aa400000000000080fb0000f0a7000000ea0026
:102ab4000000ea004f00de00004078000080fa00c9
:102ac400000006000000fa00b02f800011800a0008
:102ad400000000000080fb0000f0a7000000ea00f6
:102ae4000000ea004f00de00004078000080fa0099
:102af400000006000200fa000040eb00004f7800de
:102b0400f4c5bf000004e00005003200f4c5bf00b6
:102b14000004e0000200350010c0b300004f78004c
:102b24001e4078000080fa00000006000000fa0051
:102b3400b02f800044800a00000000000080fb00e9
:102b440000f0a7000000ea000000ea004f00de00e9
:102b5400004078000080fa00000006000000fa003f
:102b6400b02f800022800a00000000000080fb00db
:102b740000f0a7000000ea000000ea004f00de00b9
:102b8400004078000080fa00000006000200fa000d
:102b94000040eb00004f7800f5c5bf000004e000e2
:102ba40005003200f5c5bf000004e0000200350056
:102bb40010c0b300004f78001e4078000080fa0077
:102bc400000006000000fa00ddc5a900dfc5a8006a
:102bd4002328a8001000200029fe07000080fa0026
:102be400000006000000fa000080fa000000060061
:102bf4000000fa000080fa00000006000000fa005d
:102c04000080fa00000006000000fa000080fa00cc
:102c1400000006000000fa000080fa000000060030
:102c24000000fa000080fa00000006000000fa002c
:102c34000080fa00000006000000fa00e12e800087
:102c440000002800008060000000e0000200320064
:102c5400e4ff0700dde5a900e12e8000000022006a
:102c6400008060000000e00002003200e3ff070083
:102c7400dda5a900e02e8000680060000000e000ef
:102c840002003200e0ff0700dc65a900e12e8000ad
:102c940000002100008060000000e000020032001b
:102ca400dcff0700dd85a900e12e80000040200044
:102cb400008060000000e00001003200d8ff07003f
:102cc40000318000680060000000e0000200320073
:102cd400d6ff07002066a9000080fa000000060065
:102ce4000000fa0001eba8000080fa0000000600d2
:102cf4000000fa0001eba9000080fa0000000600c1
:102d04000000fa0008cba8000080fa0000000600ca
:102d14000000fa0008cba9000080fa0000000600b9
:102d24000200fa00000f78000080fa00000006009c
:102d34000400fa008e80e800800878000e80e80025
:102d440010007800e40f500020003200e40f50001f
:102d540009003e00e10f500013003200e10f500063
:102d64000e003900e20f500012003200e30f500051
:102d74001300320024003700e60f5000190032001f
:102d8400e60f500014003900e70f5000180032001d
:102d9400e80f5000190032001b003700616080000a
:102da400010f78001800370071608000010f78006f
:102db4001500370091608000010f78001200370081
:102dc400a1608000010f78000f003700616180006e
:102dd400010f78000c00370071618000010f78004a
:102de4000900370081618000010f78000600370078
:102df40091618000010f780003003700a161800019
:102e0400010f7800000000001e0078000080fa0026
:102e1400000006000400fa008e80e80080087800b4
:102e24000e80e80010007800e40f50003c003200ef
:102e3400e40f500009003e00e10f50001a00320078
:102e4400e10f50000e003900e20f50002000320064
:102e5400e30f50002800320063003700e60f5000f3
:102e640043003200e60f500037003900e70f5000ee
:102e740049003200e80f5000510032005a00370078
:102e84008059800000800a00000000000080fb00e0
:102e940000f0a7000000ea000000ea004f00de0096
:102ea400004f7800500037008059800011800a00dc
:102eb400000000000080fb0000f0a7000000ea0012
:102ec4000000ea004f00de00004f780046003700a3
:102ed4008059800033800a00000000000080fb005d
:102ee40000f0a7000000ea000000ea004f00de0046
:102ef400004f78003c0037008059800044800a006d
:102f0400000000000080fb0000f0a7000000ea00c1
:102f14000000ea004f00de00004f78003200370066
:102f24009059800000800a00000000000080fb002f
:102f340000f0a7000000ea000000ea004f00de00f5
:102f4400004f7800280037009059800011800a0053
:102f5400000000000080fb0000f0a7000000ea0071
:102f64000000ea004f00de00004f78001e0037002a
:102f74009059800022800a00000000000080fb00bd
:102f840000f0a7000000ea000000ea004f00de00a5
:102f9400004f7800140037009059800033800a00f5
:102fa400000000000080fb0000f0a7000000ea0021
:102fb4000000ea004f00de00004f78000a003700ee
:102fc4009059800044800a00000000000080fb004b
:102fd40000f0a7000000ea000000ea004f00de0055
:102fe400004f7800000000001e4078000080fa00c6
:102ff400000006000200fa00000f780050808000f4
:10300400e40f500004003a001e007800e40f500062
:10301400010032000c30ef009e00780051808800df
:103024000080fa00000006000200fa00000f780099
:1030340040002000efff07009e00780061808800b8
:103044000080fa00000006000000fa0014d0bf005f
:10305400624060000080fa00000006000000fa00f0
:1030640014d0bf00614060000080fa000000060038
:103074000200fa001ad0bf000080fb00e1fc2f0020
:10308400010f40001e0078000000e00005003d0034
:103094000000200001f82300b0808800c18088006f
:1030a400180037001e007800e70f50000b003c00aa
:1030b4001e007800c200dd0080d728000080400098
:1030c4001000be0002002000832c240038f7070003
:1030d400b0808800c18088000a0037001e00780094
:1030e400e70f500007003400a06c8400b16c84002a
:1030f40002002000832c24002df70700b0808800f4
:10310400c18088000080fa00000006000400fa0074
:10311400889fbe00f1808000010f7800308180001c
:103124009e007800808f50000300360031818000bb
:10313400010f780006003700b08280009e007800fe
:10314400808f500002003100b1828000010f7800ae
:10315400b08280001e0010008000eb00fdf6070026
:103164000004be0031818000b082800000805000e5
:103174008000eb00f7f607000001be000800be0067
:103184000bf7070002002000832c2400e7f7070058
:10319400d5f6070000007800108188000e80e80052
:1031a4000181800001087800418180000e80e800e0
:1031b40010007800810f5000040036000e80e800f3
:1031c400418180000108780008003700c182800036
:1031d4000e80e80010007800810f500003003100d9
:1031e4000e80e800c182800001087800c18280005e
:1031f4000e80e80010007800010050008000eb0011
:10320400d4f607000004be0041818000c082800023
:10321400008050008000eb00cef607000001be00e5
:103224000800be00e2f6070002002000832c240000
:10323400bef70700acf60700000078002081880084
:103244001081800080007800208180000080500080
:103254008000780001f0a7008100ea0010c0b300ec
:10326400ea8f500001003c000040eb004f04be0018
:103274000080fa00000006000400fa00889fbe00e7
:103284008a1f78000e80e800f18080000108780031
:103294006281800081818000b0aa2a000008b80001
:1032a4004208de00000f5100708180009e0078000b
:1032b400808f50000200360071818000010f780079
:1032c400d08280009e007800808f50000200310080
:1032d400d1828000010f7800d08280001e0010008f
:1032e4008000eb009bf6070002002000832c2400e2
:1032f4008ef707000004be00808180008000eb0090
:1033040094f607000001be000800be00a8f60700fe
:1033140075f60700000f780060808000e60f50000b
:1033240017003a000e80e800100078008000eb00df
:1033340088f607000004be00508180008000eb0086
:1033440084f60700d2cc2c00c3d4230077f70700ff
:103354001ac0b3000001be000800be005ef60700fc
:103364000000e000010035000045eb000a40780051
:103374000004a2000080fb00004078001b0037001e
:103384001e0078000000e000160032000e80e80005
:10339400100078008000eb006ef607000004be0009
:1033a400508180008000eb006af6070002002000d4
:1033b40003e823005df707001ac0b3000001be0054
:1033c4000800be0046f607000000e00001003c00d3
:1033d4000045eb000a04e000020032001000200067
:1033e400010037000000eb00004078004f05780032
:1033f4004f04be000080fa00000006000400fa003a
:103404008e80e8008008780035fe07000e80e80012
:103414001000780042fe070039fe070000f4210086
:10342400010020000106070039fe0700000000002b
:103434000e80e8001000780076fe07000004a20069
:103444000004e000faff3a000e80e8001000780063
:1034540037fe0700000f780025fe07001e007800e5
:103464000080fa00000006000000fa000000eb00f3
:10347400e2ff0700f080880010002000dfff070053
:103484000081880020002000dcff070060818800a4
:10349400f180800030818000808f5000020036006f
:1034a400f080800030818800f1808000b08280004c
:1034b400808f500002003100f0808000b0828800cc
:1034c4000181800040818000808f5000020036001e
:1034d400008180004081880001818000c0828000da
:1034e400808f50000200310000818000c08288007b
:1034f4006181800070818000808f5000020036005e
:10350400608180007081880061818000d0828000a9
:10351400808f50000200310060818000d0828800da
:1035240031818000b082800000805000508188008a
:1035340071818000d08280000080500080818800ea
:103544000080fa00000006000000fa000000eb0012
:10355400aaff0700f080880010002000a7ff0700e2
:103564000081880020002000a4ff070060818800fb
:10357400e6fe07000004e0001100320090808000a5
:103584006a004000908088009180800040062000fe
:10359400808f50000b00360050808000e30f5000f5
:1035a40008003a005080800090818800608080008c
:1035b400a0818800500020009bfe07000100370016
:1035c4001230ef000080fa00000006000000fa004c
:1035d40000002100e5fb07000004e0005c0032006d
:1035e400f071800044800a00000000000004a20082
:1035f400614060000080fb00610060004400dd0069
:10360400f17180000140a10001007000f071880098
:10361400000021001000be006236200003002000dc
:10362400820f5000838f580024003200623620003d
:1036340003002000820f5000838f580006003e00d4
:10364400020d200003002000820f5000838f5800d9
:103654000c0032003e0037009238200003002000a6
:10366400820f5000838f58000c00320062662000e5
:1036740003002000820f5000838f5800170032008f
:10368400330037000000210066004000100078007d
:103694001040780014f0b7002d003700000021001e
:1036a4006600400010007800670040001040780079
:1036b4001af0b7006efe0700250037000000210055
:1036c4006600400010007800104078000004e0001c
:1036d400020032007000200053fe0700f0718000e9
:1036e40055800a00000000000004a2006140600050
:1036f4000080fb00610060004500dd00f171800086
:103704000150a10001007000f07188000000210048
:103714006600400010007800104078000080fb0034
:103724004800dd00b08188000000210066004000f0
:10373400100078000000e800104078000080fb00d2
:10374400b181800001004000b081880000000000c9
:103754000080fa00000006000000fa009bff07004a
:1037640050808000e10f50000a003a008080800001
:103774006a004000808088008180800080382100b9
:10378400808f5000040036002000200026fe070031
:10379400010037001030ef000080fa00000006003e
:1037a4000600fa00130507004000200034fb070060
:1037b40067fb0700e40f500002003a00600020009d
:1037c4002ffb0700e0ba21000104070008040700ea
:1037d4005dff0700508080000040780008f0b700cb
:1037e40050808000e40f500005003a0060808000a3
:1037f4008040780000c8b30000c0400008f0b70063
:10380400a00321006400400081032100914078005e
:1038140001487800a10321000000eb00b6fb07007b
:1038240000a82100610020000005070050808000ee
:10383400e10f50000c00320050808000e20f500075
:103844000900320050808000e30f5000060032006f
:1038540060808000e30f500003003200608080002d
:10386400e60f500002003a0010002000010037006b
:103874000000eb00004078000ef0b700508080009c
:10388400e30f50000d003a00f08080008000eb0050
:1038940030f507000002be00b0808000c1808000c7
:1038a4000001be000400be0020f607000ef507006c
:1038b40000007800e0808800010037001c30ef0031
:1038c4000ed0bf00f1808000c808de0001427800fd
:1038d400f18080008141780001818000c808de0009
:1038e400014178000181800081407800004f780018
:1038f4000e00e800044878000e80e80003487800d1
:1039040063004700024878006400470001487800db
:10391400400421006400400021042100914078000b
:103924000148780040042100660040000e08780039
:10393400410421000000eb006ffb070000a82100f8
:1039440061002000b904070081818000b0aa2a0028
:103954000008b800c208de006281800010c0b30015
:10396400828f5000010036000040eb0009f0b700e0
:10397400e004210064004000c1042100914078006b
:1039840001487800e10421000000eb005afb070025
:1039940000a8210061002000a404070050808000da
:1039a400e20f50002d003200e20f500005003e00ef
:1039b4000000e00008003200e10f50001300320064
:1039c40083ff3700e30f50003b003200e40f500048
:1039d4004c0032007eff3700a3fe07009ffd070066
:1039e4000004e00003003200100020008efd0700f8
:1039f4008e00370094fd07000004e000020032004e
:103a0400100020007bfd070088003700b181800092
:103a1400e06a2100808f500003003600200020005f
:103a240074fd07008100370087fd07000004e000f3
:103a340003003a000000eb006efd07007b00370036
:103a440086fd07000004e00003003200100020009f
:103a540075fd070075003700740037007afd070014
:103a64000004e00004003200b1818000d06a21002b
:103a7400808f500003003e000000eb005dfd070056
:103a84006a00370075fd07000004e00009003200f9
:103a940061818000c0fc2000808f5000030036004c
:103aa4003000200053fd07000200370030002000e2
:103ab4005dfd07005d003700a3fe070067fd0700fa
:103ac4000004e00003003a002000200049fd070044
:103ad400560037005cfd07000004e00003003a00d4
:103ae4004000200050fd070050003700e2fd0700b1
:103af4000004e00002003200600020004afd0700dc
:103b04004a00370060808000e40f50002800320033
:103b1400e40f500007003e00e20f50001500320091
:103b2400e20f50001c003e00e10f5000080032007c
:103b34003d003700e60f50002d003200e60f500024
:103b440021003900e70f50002f0032003600370003
:103b54003dfd07000004e00005003a003ffd0700ba
:103b64000004e00002003a000000eb0021fd070021
:103b74002d00370034fd07000004e00005003a0082
:103b840036fd07000004e00002003a000000eb00ec
:103b940018fd07002400370030fd07000004e00092
:103ba40002003a002000200012fd07001e0037002a
:103bb4002afd07000004e00002003a000000eb00c8
:103bc4000cfd07001800370024fd07000004e00086
:103bd40003003a001230ef002000200005fd07002a
:103be400908080006a004000908088000e003700ba
:103bf400a1fd07000004a2000004e000020032005e
:103c040030002000fbfc07000ffd07000004e0006b
:103c140005003a0011fd07000004e00002003a002c
:103c24000000eb00f3fc070000000000e8fe370092
:103c34000000fa00002bef00000620001058880056
:103c4400042bef00062bef00082bef000a2bef00ec
:103c5400102bef00122bef00142bef00202bef00a2
:103c6400f001200010598800382bef00402bef00a2
:103c7400482bef00502bef003a2bef00422bef00c4
:103c84004a2bef00522bef003c2bef00442bef00ac
:103c94004c2bef00542bef003e2bef00462bef0094
:103ca4004e2bef00562bef0000402000505b8800a5
:103cb40000402000705b880000402000905b88007a
:103cc40000402000b05b8800a02bef00a42bef0085
:103cd400a82bef00ac2bef00d02bef00d22bef0082
:103ce400f02bef00f22bef00022cef00c0ef2100cd
:103cf40043000700a0f2210059000700c0f521008d
:103d040070000700e0f821008700070000fc210094
:103d14009e00070020ff2100b5000700600022007c
:103d2400bd000700a0012200c5000700e002220038
:103d3400cd00070020042200d50007000d68a9006b
:103d44002d68a8000d88a9002d88a8000da8a90039
:103d54002da8a8000dc8a9002dc8a8000de8a90029
:103d64002de8a8001160800000f020000100700020
:103d74001060880001eba800130007001010200059
:103d8400005c880000102000105c880010002000f7
:103d9400205c8800862bef00882bef008a2bef0035
:103da4008c2bef008e2bef0010102000805c88001d
:103db40010102000905c880010002000a05c880097
:103dc4000080fa00000006000000fa0000eca800e1
:103dd40000000000016080000000280000806000f6
:103de4000000e000fbff32000aeba8000080fa00ac
:103df400000006000000fa000080fa00000006003f
:103e04000200fa00000f78001e007800e0828800ab
:103e14000080fa00000006000000fa005140800013
:103e240000402000008060000000e0000600320036
:103e3400e08280000000e00002003200e0828000a6
:103e4400000001000b48a9000080fa0000000600f1
:103e54000200fa00000f78000080fa00000006005b
:103e64000200fa00000f78001e007800f08288003b
:103e74000080fa00000006000200fa008059800069
:103e8400610060000000e000080032006160800012
:103e9400010f7800f08280000000e000030032008f
:103ea400f18280001e007800010001000080fa0009
:103eb400000006000200fa00000f78000080fa00fb
:103ec400000006000200fa00000f78001e007800cf
:103ed400008388000080fa00000006000200fa0057
:103ee40080598000620060000000e0000800320099
:103ef40071608000010f7800008380000000e00002
:103f040003003200018380001e00780001000100dc
:103f14000080fa00000006000200fa00000f78009a
:103f24000080fa00000006000200fa00000f78008a
:103f34001e007800108388000080fa00000006004c
:103f44000200fa0080598000680060000000e00070
:103f54000800320091608000010f78001083800017
:103f64000000e00003003200118380001e0078008e
:103f7400010001000080fa00000006000200fa00bf
:103f8400000f78000080fa00000006000200fa002a
:103f9400000f78001e007800208388000080fa005b
:103fa400000006000200fa008059800070006000e2
:103fb4000000e00008003200a1608000010f7800da
:103fc400208380000000e000030032002183800091
:103fd4001e007800010001000080fa0000000600c5
:103fe4000200fa00000f78000080fa0000000600ca
:103ff4000200fa00000f78001e0078003083880069
:104004000080fa00000006000200fa00000f7800a9
:104014000080fa00000006000200fa00000f780099
:104024001e007800408388000080fa00000006002b
:104034000200fa00000f78000080fa000000060079
:104044000200fa00000f78001e00780050838800f8
:104054000080fa00000006000200fa00000f780059
:104064000080fa00000006000200fa00000f780049
:104074001e007800608388000080fa0000000600bb
:104084000200fa00000f78000080fa000000060029
:104094000200fa00000f78001e0078007083880088
:1040a4000080fa00000006000000fa00007c800096
:1040b4000080fa00000006000200fa00faff070080
:1040c400000f78001e007800240007000004e000c0
:1040d40002003200000028007d0007001e00780066
:1040e4002c0007000004e00002003200000024005d
:1040f400770007001e007800360007000004e00087
:104104000200320000202000710007001e00780029
:10411400400007000004e000020032000008200014
:104124006b0007001e0078004a0007000004e0004e
:104134000200320000042000650007001e00780021
:10414400540007000004e0000200320000012000d7
:104154005f0007000080fa00000006000400fa0077
:104164008e80e800800878000040eb00004f780063
:104174000e80e800100078000000e00002003d001e
:1041840010c0b300004f78001e4078000080fa0091
:10419400000006000400fa008e80e8008008780021
:1041a4000040eb00004f78000e80e800900078009b
:1041b40000002400008060000000e00002003200e3
:1041c40010c0b300004f78001e4078000080fa0051
:1041d400000006000400fa008e80e80080087800e1
:1041e4000040eb00004f78000e80e800900078005b
:1041f40000202000008060000000e0000200320087
:1042040010c0b300004f78001e4078000080fa0010
:10421400000006000400fa008e80e80080087800a0
:104224000040eb00004f78000e80e800900078001a
:1042340000082000008060000000e000020032005e
:1042440010c0b300004f78001e4078000080fa00d0
:10425400000006000400fa008e80e8008008780060
:104264000040eb00004f78000e80e80090007800da
:1042740000042000008060000000e0000200320022
:1042840010c0b300004f78001e4078000080fa0090
:10429400000006000400fa008e80e8008008780020
:1042a4000040eb00004f78000e80e800100078001a
:1042b400700060000000e0000200320010c0b30093
:1042c400004f78001e4078000080fa0000000600cd
:1042d4000200fa00000f78001e80ea00017c8000d2
:1042e40001006000007c88000080fa0000000600e5
:1042f4000000fa00802fef000080fa0000000600a2
:104304000000fa00f0f1210020228800e0072000dc
:10431400302288000080fa00000006000000fa0045
:1043240041e4a80000402000102288004000200042
:104334000b0007000000e00007003a0000762900a7
:10434400002288004264a9004284a900ecff07000f
:1043540060002000020007000080fa000000060050
:104364000400fa008e80e800800878000000eb006a
:10437400000f78002e000700e40f50000800320000
:104384000e80e80010007800e10f500004003200b5
:104394000e80e80010007800e40f50001f003a007f
:1043a4000e80e8001000780000407800674060004c
:1043b4000080fb00670060004800dd0012228000de
:1043c400f18f2f008100610001007000102288002d
:1043d40009003700e1228000000021000080600015
:1043e4000000e0000400320020002000000f7800ec
:1043f400000000000b0037001022800075800a00c6
:10440400000000000080fb008e80e800910078002e
:10441400810f5000efff3a00020037001000200027
:10442400000f78001e0078000080fa0000000600eb
:104434000000fa001022800075800a0000000000cd
:104444000080fb000080fa00000006000000fa0073
:10445400b023800055800a00000000000080fb00ab
:1044640000f0a7000000ea000000ea004f00de00b0
:10447400004078000080fa00000006000000fa0006
:104484005dc4a9005fc4a8002428a800100020006f
:10449400b3ff07000080fa00000006000000fa00e5
:1044a4000080fa00000006000000fa000080fa0014
:1044b400000006000000fa000080fa000000060078
:1044c4000000fa000080fa00000006000000fa0074
:1044d4000080fa00000006000000fa00e1228000db
:1044e40000002800008060000000e00002003200ac
:1044f400eaff07005de4a900e12280000000220039
:10450400008060000000e00002003200e9ff0700c4
:104514005da4a900e0228000680060000000e000c3
:1045240002003200e6ff07005c64a900e12280007b
:1045340000002100008060000000e0000200320062
:10454400e2ff07005d84a9000080fa000000060075
:104554000000fa0000082000c01188003a22ef0091
:104564003c22ef0020022000f01188007006200099
:10457400001288004222ef004c22ef004e22ef008e
:104584005022ef005222ef005422ef005622ef0097
:104594005822ef005a22ef005c22ef0039e2a80013
:1045a40038a2a8003882a8000080fa0000000600a3
:1045b4000000fa0000000000f011800062006000ba
:1045c4000000e000fcff3a00e0118000620060009f
:1045d4000000e000010032003c22a900201280000b
:1045e400004078000080fa00000006000200fa0093
:1045f400004f780000000000f0118000700060009f
:104604000000e000fcff3a001e80fb00401288001e
:104614000080fa00000006000000fa00f01180009b
:104624006200600000f0a7000000ea000000e9005a
:104634004f00de00004078000080fa000000060011
:104644000000fa00f0118000700060000000e0003b
:1046540007003a00c11180000002200000806000c1
:104664000000e000020032001000200001003700ca
:104674000000eb00004078000080fa000000060013
:104684000000fa00e011800077800a0000000000ba
:104694000080fb0000f0a7000000ea000000ea0030
:1046a4004f00de00004078000080fa0000000600a1
:1046b4000400fa00f01180008000eb00008fbe00bf
:1046c4001e00be00c001dd0002002000e0118000d9
:1046d4008000eb0000007100818071000080fa000e
:1046e400000006000000fa0039e2a80038a2a80081
:1046f4003882a8000080fa00000006000000fa00da
:1047040039e2a90038a2a9003882a9000080fa0081
:10471400000006000000fa000421ef00b0092000a8
:10472400400888000003280000088800b083800047
:104734000000e00002003a00403e2200240007008e
:104744000028a9002028a800a00921008040eb002f
:10475400014878000080fa00000006000200fa0018
:10476400000f78009e00780041088800a00921000d
:104774008040eb00014878000080fa000000060049
:104784000000fa00400880000080fa0000000600e3
:104794000200fa00000f78009e00780021088800cb
:1047a400a00921008040eb00014878000080fa0055
:1047b400000006000000fa00200880000080fa00d3
:1047c400000006000000fa000080fa000000060065
:1047d4000200fa00000f78002028a9009e0078004b
:1047e400b18388002028a8000080fa000000060099
:1047f4000000fa00a00921008040eb000148780085
:104804002028a80001e1a8000080fa0000000600aa
:104814000000fa0001e1a9002028a9000080fa00a4
:10482400000006000200fa00a0092100104f7800e1
:104834001e4078000004e00003003200a0092100bb
:104844008040eb00014878001e4078000080fa00a8
:10485400000006000000fa00b009210010407800b2
:104864000080fb000080fa00000006000000fa004f
:10487400b00921008040eb00014878000080fa0074
:10488400000006000000fa00062eef00222eef00c2
:104894003e2eef005a2eef00f00120001070880029
:1048a400d0eb2f00f0708800f0ec2300d07188006a
:1048b40020502200b07288000c2eef00282eef004a
:1048c400442eef00602eef000a2eef00262eef009c
:1048d400422eef005e2eef00082eef00242eef0094
:1048e400402eef005c2eef00f001200000708800e5
:1048f40050202000e0708800f00c2000c071880077
:1049040000402200a07288000000eb005105200046
:10491400b1468800a10a2000b146880000688800da
:10492400316c800000fc2f00008060005001b30057
:10493400306c880070c2b30039edb70050c2b300c8
:1049440038edb70090c3b30028edb700416c800088
:1049540000fc2f00008060006001b300406c880000
:10496400c16c800000fc2f00008060000000a000eb
:10497400c06c88000080200051052000b1468800ea
:10498400a10a2000b1468800006888000080fa006f
:10499400000006000000fa0010002300307c8800ac
:1049a40060092000407c88008c2fef001004200058
:1049b400507c880010102000707c88006009200062
:1049c400807c880010042000907c8800e0a02800ef
:1049d400d07c8800b82fef00ba2fef00be2fef0075
:1049e400002def00a42fef00a62fef00a82fef005b
:1049f400aa2fef00ae2fef00b02fef00b22fef0081
:104a04007200200080072000a109200053f8200034
:104a14008049780081497800824978000001eb00e0
:104a2400600420007105200043f8200080497800cc
:104a340081497800824978000080fa00000006006d
:104a44000000fa00707c8000ee800a000000000084
:104a54000080fb0000f0a7000000ea000000ea006c
:104a64004f00de00004078000080fa0000000600dd
:020000040000fa
:104a74007a10000020000000800000007410000084
:104a84000200000082000000ffff0000bc100000d4
:104a940008000000800000009c10000020000000be
:104aa400800000007010000004000000820000007c
:104ab40001000000000000009a1000000200000045
:104ac400800000007610000002000000800000005a
:104ad4005c100000140000008000000000100000c2
:104ae400380000008000000038100000240000009e
:104af400820000000400c000000000000000080064
:104b0400101400006607000000000000000004000c
:104b1400006707000000000000091000ff7fff008d
:104b24007fff7f007810000002000000800000007a
:044b3400000000007d
:020000040000fa
:104b38000000fa00b1438000f08f2f000080600071
:104b48000080a000b0438800b1438000f0f82f0037
:104b5800008060000040a000b0438800b14380009e
:104b680080ff2f00008060000000a000b043880094
:104b7800a1438000f0ff28000080600000c0a00072
:104b8800a0438800b1438000f0ff28000080600047
:104b980000c0a000b043880001428000f0f82f0058
:104ba800008060000040a000004288000080fa00f9
:104bb800000006000200fa00000f780021028000c1
:104bc800200f2000008060001e0070002002880076
:104bd8000080fa00000006000000fa00c3e8a80000
:104be80000000000000000000080fa00000006003d
:104bf8000000fa0022ff070065ff0700ccff07004e
:104c0800c5fd070006f6070050fe070007fc070071
:104c1800bffe0700f0ff070000022000e5ff0700c5
:084c28000080fa000000060004
:020000040000fa
:104c3000f03fb1000180b10006003500ee0309002d
:104c400000000000403fb1000180b100fbff3d00cb
:104c50001000b000203fb0000200350000800900c5
:084c6000000000000000060046
:020000040000fa
:104c68000200fa00000f78009e007800a1838800f7
:104c7800ffff37000000fa00a00721008007780036
:104c880020092100000188000080fa0000000600c9
:020000040000fa
:044c9800ffffff001b
:020000040000fa
:020000040005f5
:047e0000ffffff0081
:020000040000fa
:020000040005f5
:047e2000ffffff0061
:020000040000fa
:020000040005f5
:047e30007fffff00d1
:020000040000fa
:020000040005f5
:047e3800bfffff0089
:020000040000fa
:020000040005f5
:047e40006003ff00dc
:020000040000fa
:020000040005f5
:047e4800ffffff0039
:020000040000fa
:020000040005f5
:047e5000deffff0052
:020000040000fa
:020000040005f5
:047e58000000ff0027
:020000040000fa
:020000040005f5
:047e60000000ff001f
:020000040000fa
:020000040005f5
:047e68000000ff0017
:020000040000fa
:020000040005f5
:047e70000000ff000f
:020000040000fa
:020000040005f5
:047e7800ffffff0009
:020000040000fa
:020000040005f5
:047e8000fffcff0004
:020000040000fa
:020000040005f5
:047e8800ffffff00f9
:020000040000fa
:020000040005f5
:047eb000ffffff00d1
:020000040000fa
:020000040005f5
:047ec000ffffff00c1
:020000040000fa
:020000040005f5
:047ed000ffffff00b1
:020000040000fa
:020000040005f5
:047ee000ffffff00a1
:020000040000fa
:020000040005f5
:047ef000ffffff0091
:020000040000fa
:020000040005f5
:047ff800ffffff0088
:020000040000fa
:020000040100f9
:04300000ffffff00cf
:00000001FF
