:020000040000fa
:080000000002040000000000f2
:020000040000fa
:04000800960300005b
:020000040000fa
:04000c00d803000015
:020000040000fa
:0400100018040000d0
:020000040000fa
:04001400b60300002f
:020000040000fa
:04001800f8030000e9
:020000040000fa
:04001c00d604000006
:020000040000fa
:0400200038040000a0
:020000040000fa
:04002400d6040000fe
:020000040000fa
:04002800d6040000fa
:020000040000fa
:04002c00d6040000f6
:020000040000fa
:04003000d6040000f2
:020000040000fa
:04003400d6040000ee
:020000040000fa
:04003800d6040000ea
:020000040000fa
:04003c00d6040000e6
:020000040000fa
:04004000d6040000e2
:020000040000fa
:04004400d6040000de
:020000040000fa
:04004800d6040000da
:020000040000fa
:04004c00d6040000d6
:020000040000fa
:04005000d6040000d2
:020000040000fa
:04005400d6040000ce
:020000040000fa
:04005800d6040000ca
:020000040000fa
:04005c00d6040000c6
:020000040000fa
:04006000d6040000c2
:020000040000fa
:04006400d6040000be
:020000040000fa
:04006800d6040000ba
:020000040000fa
:04006c00d6040000b6
:020000040000fa
:04007000d6040000b2
:020000040000fa
:04007400d6040000ae
:020000040000fa
:04007800d6040000aa
:020000040000fa
:04007c00d6040000a6
:020000040000fa
:04008000d6040000a2
:020000040000fa
:04008400d60400009e
:020000040000fa
:04008800d60400009a
:020000040000fa
:04008c00ac040000c0
:020000040000fa
:04009000d604000092
:020000040000fa
:04009400d60400008e
:020000040000fa
:04009800d60400008a
:020000040000fa
:04009c00d604000086
:020000040000fa
:0400a000d604000082
:020000040000fa
:0400a400d60400007e
:020000040000fa
:0400a800d60400007a
:020000040000fa
:0400ac0082040000ca
:020000040000fa
:0400b000d604000072
:020000040000fa
:0400b400d60400006e
:020000040000fa
:0400b800d60400006a
:020000040000fa
:0400bc00d604000066
:020000040000fa
:0400c000d604000062
:020000040000fa
:0400c400d60400005e
:020000040000fa
:0400c800d60400005a
:020000040000fa
:0400cc00d604000056
:020000040000fa
:0400d000d604000052
:020000040000fa
:0400d400d60400004e
:020000040000fa
:0400d800d60400004a
:020000040000fa
:0400dc00d604000046
:020000040000fa
:0400e000d604000042
:020000040000fa
:0400e400d60400003e
:020000040000fa
:0400e800d60400003a
:020000040000fa
:0400ec00d604000036
:020000040000fa
:0400f000d604000032
:020000040000fa
:0400f400d60400002e
:020000040000fa
:0400f800d60400002a
:020000040000fa
:0400fc00d604000026
:020000040000fa
:04010000d604000021
:020000040000fa
:04010400d60400001d
:020000040000fa
:04010800d604000019
:020000040000fa
:04010c00d604000015
:020000040000fa
:04011000d604000011
:020000040000fa
:04011400d60400000d
:020000040000fa
:04011800d604000009
:020000040000fa
:04011c00d604000005
:020000040000fa
:04012000d604000001
:020000040000fa
:04012400d6040000fd
:020000040000fa
:04012800d6040000f9
:020000040000fa
:04012c00d6040000f5
:020000040000fa
:04013000d6040000f1
:020000040000fa
:04013400d6040000ed
:020000040000fa
:04013800d6040000e9
:020000040000fa
:04013c00d6040000e5
:020000040000fa
:04014000d6040000e1
:020000040000fa
:04014400d6040000dd
:020000040000fa
:04014800d6040000d9
:020000040000fa
:04014c00d6040000d5
:020000040000fa
:04015000d6040000d1
:020000040000fa
:04015400d6040000cd
:020000040000fa
:04015800d6040000c9
:020000040000fa
:04015c00d6040000c5
:020000040000fa
:04016000d6040000c1
:020000040000fa
:04016400d6040000bd
:020000040000fa
:04016800d6040000b9
:020000040000fa
:04016c00d6040000b5
:020000040000fa
:04017000d6040000b1
:020000040000fa
:04017400d6040000ad
:020000040000fa
:04017800d6040000a9
:020000040000fa
:04017c00d6040000a5
:020000040000fa
:04018000d6040000a1
:020000040000fa
:04018400d60400009d
:020000040000fa
:04018800d604000099
:020000040000fa
:04018c00d604000095
:020000040000fa
:04019000d604000091
:020000040000fa
:04019400d60400008d
:020000040000fa
:04019800d604000089
:020000040000fa
:04019c00d604000085
:020000040000fa
:0401a000d604000081
:020000040000fa
:0401a400d60400007d
:020000040000fa
:0401a800d604000079
:020000040000fa
:0401ac00d604000075
:020000040000fa
:0401b000d604000071
:020000040000fa
:0401b400d60400006d
:020000040000fa
:0401b800d604000069
:020000040000fa
:0401bc00d604000065
:020000040000fa
:0401c000d604000061
:020000040000fa
:0401c400d60400005d
:020000040000fa
:0401c800d604000059
:020000040000fa
:0401cc00d604000055
:020000040000fa
:0401d000d604000051
:020000040000fa
:0401d400d60400004d
:020000040000fa
:0401d800d604000049
:020000040000fa
:0401dc00d604000045
:020000040000fa
:0401e000d604000041
:020000040000fa
:0401e400d60400003d
:020000040000fa
:0401e800d604000039
:020000040000fa
:0401ec00d604000035
:020000040000fa
:0401f000d604000031
:020000040000fa
:0401f400d60400002d
:020000040000fa
:0401f800d604000029
:020000040000fa
:0401fc00d604000025
:020000040000fa
:04020000d604000020
:020000040000fa
:04020400d60400001c
:020000040000fa
:04020800d604000018
:020000040000fa
:04020c00d604000014
:020000040000fa
:04021000d604000010
:020000040000fa
:04021400d60400000c
:020000040000fa
:04021800d604000008
:020000040000fa
:04021c00d604000004
:020000040000fa
:04022000d604000000
:020000040000fa
:04022400d6040000fc
:020000040000fa
:04022800d6040000f8
:020000040000fa
:04022c00d6040000f4
:020000040000fa
:04023000d6040000f0
:020000040000fa
:04023400d6040000ec
:020000040000fa
:04023800d6040000e8
:020000040000fa
:04023c00d6040000e4
:020000040000fa
:04024000d6040000e0
:020000040000fa
:04024400d6040000dc
:020000040000fa
:04024800d6040000d8
:020000040000fa
:04024c00d6040000d4
:020000040000fa
:04025000d6040000d0
:020000040000fa
:04025400d6040000cc
:020000040000fa
:04025800d6040000c8
:020000040000fa
:04025c00d6040000c4
:020000040000fa
:04026000d6040000c0
:020000040000fa
:04026400d6040000bc
:020000040000fa
:04026800d6040000b8
:020000040000fa
:04026c00d6040000b4
:020000040000fa
:04027000d6040000b0
:020000040000fa
:04027400d6040000ac
:020000040000fa
:04027800d6040000a8
:020000040000fa
:04027c00d6040000a4
:020000040000fa
:04028000d6040000a0
:020000040000fa
:04028400d60400009c
:020000040000fa
:04028800d604000098
:020000040000fa
:04028c00d604000094
:020000040000fa
:04029000d604000090
:020000040000fa
:04029400d60400008c
:020000040000fa
:04029800d604000088
:020000040000fa
:04029c00d604000084
:020000040000fa
:0402a000d604000080
:020000040000fa
:0402a400d60400007c
:020000040000fa
:0402a800d604000078
:020000040000fa
:0402ac00d604000074
:020000040000fa
:0402b000d604000070
:020000040000fa
:0402b400d60400006c
:020000040000fa
:0402b800d604000068
:020000040000fa
:0402bc00d604000064
:020000040000fa
:0402c000d604000060
:020000040000fa
:0402c400d60400005c
:020000040000fa
:0402c800d604000058
:020000040000fa
:0402cc00d604000054
:020000040000fa
:0402d000d604000050
:020000040000fa
:0402d400d60400004c
:020000040000fa
:0402d800d604000048
:020000040000fa
:0402dc00d604000044
:020000040000fa
:0402e000d604000040
:020000040000fa
:0402e400d60400003c
:020000040000fa
:0402e800d604000038
:020000040000fa
:0402ec00d604000034
:020000040000fa
:0402f000d604000030
:020000040000fa
:0402f400d60400002c
:020000040000fa
:0402f800d604000028
:020000040000fa
:0402fc00d604000024
:020000040000fa
:04030000d60400001f
:020000040000fa
:04030400d60400001b
:020000040000fa
:04030800d604000017
:020000040000fa
:04030c00d604000013
:020000040000fa
:04031000d60400000f
:020000040000fa
:04031400d60400000b
:020000040000fa
:04031800d604000007
:020000040000fa
:04031c00d604000003
:020000040000fa
:04032000d6040000ff
:020000040000fa
:100400000f0521000eff27000e01880000002000cc
:100410000000e000020032000001200020028800fd
:1004200014000700630107000000e00003003a0029
:10043000002e2100010020000200370000002000f3
:1004400001002000810f70004220ae000f00070065
:10045000000020000000e0004220ae00000002008a
:100460000000000006130200000000000040da0057
:100470000000fe00a00020000000e00002003200aa
:10048000002020009001880000000600a1028800e2
:10049000800478000000eb001f003700e284440075
:1004a00054a0b4009905ba00e284440054a0b400fa
:1004b0009906ba00e284440054a0b4000006eb00a0
:1004c000476fde00fd07b200ae018800636ce100fb
:1004d00003003a000ad801000000eb000e003700cc
:1004e000606ce10008003a00004deb000a05e800ee
:1004f000020039003420ec000af0a0008b05e9006e
:10050000f9ff3e00040037006168e100010032009d
:100510000086eb000b00070019c7ba001905ba00e6
:100520000e04e00003003a000a00e000dbff3a009e
:1005300000000600fe07b200ae0288008a047800c0
:10054000f5ff37000cd0a300e20f4d001c003b006c
:1005500089027800354dba000a05e800020039002a
:100560003420ec000af0a0008b05e9000f003200f7
:10057000254dba000a05e800020039003420ec00dd
:100580000af0a0008b05e900080032000c00e00032
:100590000600320015cdba000a05e8000200390055
:1005a0003420ec000af0a0008b05e9008984e80003
:1005b00054a0b4000b00e000e2ff3a000000060087
:1005c0009902ba00055d78008b05e900f7ff32005b
:1005d000c82ade00055d78008b05e900f3ff3200d4
:1005e0000c00e000f1ff320019ddba00eeff370029
:1005f0006100e10001003200100005005400f80025
:1006000020102000a002880000f92b001000ba0082
:100610005400f90007e02b0000f0a6008703d1008a
:100620000703780001c4fe000003eb000120200056
:100630009101880061342900111303008703e90048
:10064000fdff3a0000f0a7000000050000f0a00048
:1006500080c4fe0086037800f3ff37000408200002
:10066000010037000002eb006100e10001003200f0
:10067000100005003200f8003400f8008102780014
:10068000930188003200be000100e0000c0032003f
:100690000470a70000f0a00032037800c733de002a
:1006a000848343004220af008703e800a70188004d
:1006b000f607b2007f30e100040032002000200085
:1006c0003400f9003200f900000006008100e90062
:1006d0000500e00003003a00018009003210030029
:1006e000e8ff37000180090032900300d561ae00b9
:1006f000e4ff370030002000f1ff370050052000f4
:10070000b00e8800a00a2000b00e8800d3e1a80037
:100710000000060050052000b00e8800a00a20004e
:10072000b00e8800d3e1a900000006003600f800f2
:10073000809fbe00829fbe00849fbe00869fbe0039
:100740000000fa00c028a9000000eb00c007070065
:100750000080fa004f03be004f02be004f01be00f2
:100760004f00be003600f900004006003600f800d9
:10077000809fbe00829fbe00849fbe00869fbe00f9
:100780000000fa00b7070700c048a90010002000c9
:10079000af0707000080fa004f03be004f02be0003
:1007a0004f01be004f00be003600f90000400600b9
:1007b0003600f800809fbe00829fbe00849fbe006e
:1007c000869fbe000000fa00c068a900200020003b
:1007d0009f0707000080fa004f03be004f02be00d3
:1007e0004f01be004f00be003600f9000040060079
:1007f0003600f800809fbe00829fbe00849fbe002e
:10080000869fbe000000fa00c088a90030002000ca
:100810008f0707000080fa004f03be004f02be00a2
:100820004f01be004f00be003600f9000040060038
:100830003600f800809fbe00829fbe00849fbe00ed
:10084000869fbe000000fa00c608a90070002000c4
:100850007f0707000080fa004f03be004f02be0072
:100860004f01be004f00be003600f90000400600f8
:100870003600f800809fbe00829fbe00849fbe00ad
:10088000869fbe000000fa00214680000010200074
:10089000008060000000e00003003200c508a900ed
:1008a000c00020006a0707002146800000022000e7
:1008b000008060000000e00003003200c4a8a9002e
:1008c0009000200062070700204680007000600052
:1008d0000000e00003003200c488a900a00020004e
:1008e0005b07070020468000610060000000e00018
:1008f00003003200c408a900b0002000540707001c
:10090000ffff37003600f800809fbe00829fbe00c8
:10091000849fbe00869fbe000000fa00e122800096
:1009200000002400008060000000e00002003200af
:10093000f20507005dc4a9000428a9000080fa00a0
:100940004f03be004f02be004f01be004f00be006d
:100950003600f900004006003600f800809fbe0017
:10096000829fbe00849fbe00869fbe000000fa00ea
:10097000e12e800000002400008060000000e00004
:1009800002003200a1040700ddc5a9000328a90068
:100990000080fa004f03be004f02be004f01be00b0
:1009a0004f00be003600f900004006000040da00ab
:1009b0000000fe0000000500800178000200370002
:1009c000b15978000201e9000200e000fcff3a00a2
:1009d00000000600889fbe008a9fbe008004780049
:1009e0000200e0005a00320001407800814c78009b
:1009f00082814400f1f99f00e20f5100540036005b
:100a000091449800a1449800e1f99f00d1f99f001a
:100a1000e60f51004e003600b1449800c1f99f0026
:100a2000e80f51004a0036000905ea006305650039
:100a30000a8444000a055100c1ff2f00010565002a
:100a40000080fb008000eb0012102000131020003b
:100a500043000700008cbe000a01440060b99f00fb
:100a600071b99f00e80f5500390036002004980046
:100a700031049800400498005104980020b99f0068
:100a800031b99f0040b99f0051b99f00f80f550040
:100a90002f0036006004980071049800000c980044
:100aa000110c9800200c9800310c9800400c980014
:100ab000510c980020b19f0031b19f0040b19f00c0
:100ac00051b19f0060b19f0071b19f0000b99f00bc
:100ad00011b99f00640164007801410002044400e0
:100ae000020555006011b8000203be000002be00fe
:100af0000403be006022b800000072008180720012
:100b000002017300838173000f0037000802780030
:100b1000009abe00029abe00009abe000292be0079
:100b2000000c9800110c9800220c9800330c9800cf
:100b3000400c9800510c9800620c9800730c9800bf
:100b40000a02b1000802b000ff0f5500efff3e009f
:100b5000090078004f05be004f04be0000000600eb
:100b6000020ab900001bb9000200b800810042006f
:080b70008100430000000600b3
:020000040000fa
:100b78000001000002030000040500000607000051
:040b88000800000061
:020000040000fa
:100b8c000200fa00000f7800c05b28001e00400035
:100b9c00104078000080fa00000006000400fa0003
:100bac00004f78000e80e800010878001e80fb00e2
:100bbc000000e00003003200e10f50001000320092
:100bcc001e0037000e80e8001000780081612000c4
:100bdc000080e800010878000e80e80090007800a2
:100bec0080c0b300804878000e80e80010007800c8
:100bfc0011c0b3000000e800014878001e00370067
:100c0c000e80e80010007800416220000080e800af
:100c1c00010878000e80e8009000780080c0b300d6
:100c2c00804878000e80e8001000780011c0b300f6
:100c3c000000e800014878000f0037000e80e80043
:100c4c00100078008000eb000080e80001087800bc
:100c5c000e80e800900078000040eb00804878009f
:100c6c000e80e800100078008040eb000000e800e7
:100c7c0001487800000000000080fa000000060027
:100c8c000200fa000040eb00004f7800070037002c
:100c9c001e80fb00c200dd0020002100008040000f
:100cac008040eb00014878001e4fe8001e407800a1
:100cbc000004e000f6ff32000080fa00000006009d
:100ccc000400fa008e80e800800878000e80e800ae
:100cdc0010007800e10f500003003a000031800052
:100cec00690f6000030037000000eb00000f780074
:100cfc00000000001e0078000080fa0000000600d2
:100d0c000200fa00000f78001e007800e10f50007e
:100d1c0003003a002066a900000000000100370023
:100d2c00000000000080fa00000006000200fa003b
:100d3c00004f78001e80fb00e10f500003003a00ca
:100d4c001d06a80000000000010037000000000094
:100d5c000080fa00000006000400fa008e80e80013
:100d6c00800878000e80e80010007800e10f500039
:100d7c0006003a0000318000c8800a000000000024
:100d8c000080fb00000f7800030037000000eb0030
:100d9c00000f7800000000001e0078000080fa00b0
:100dac00000006000200fa00000f78001e00780018
:100dbc000000e00006003a00813080000030200086
:100dcc000100700080308800000000000100370036
:100ddc00000000000080fa00000006000a00fa0083
:100dec00889fbe008a9fbe0066054700000d7800f4
:100dfc0068004700010878000040eb00004f7800c5
:100e0c0066004700900078000e80e800110878001a
:100e1c0066004700100078008080e80066004700fc
:100e2c0001087800660047009000780064004700d5
:100e3c001108780066004700100078008080e800f8
:100e4c006600470001087800660047001000780033
:100e5c0010007800004078006f4060006f40600028
:100e6c006f406000e8004700910078000080fb00b4
:100e7c006f0060004200dd00648540009a05780038
:100e8c003afc2f000a8565000a057000648040005a
:100e9c000a087800660047001000780010007800ff
:100eac00700060004400de0000407800e14060000b
:100ebc0068004700100078008180fb00e180600032
:100ecc00640540001a0578000a00a1008a807000b1
:100edc0064004000010878006600470010007800ac
:100eec009000780000022000008060004500de00c9
:100efc000040780061406000e800470091007800f5
:100f0c000080fb0061006000000040006485400030
:100f1c001a0578000a10a1000a05700064804000d0
:100f2c000a087800660047001000780090007800ee
:100f3c0000042000008060004600de0000407800c5
:100f4c00e140600068004700100078008180fb00e1
:100f5c00e1806000c708dd00640540001a057800d8
:100f6c000a70a1008a8070006400400001087800bb
:100f7c006600470010007800900078000008200000
:100f8c00008060004700de0000407800e140600017
:100f9c0068004700100078008180fb00e180600051
:100fac00c608dd00640540001a0578000a60a1003f
:100fbc008a807000640040000108780068004700d7
:100fcc0010007800640040001000780061006000a0
:100fdc000000e00012003a000e80e80010007800db
:100fec006101b800f07f20000100200002027800af
:100ffc000301780080017800810078000300620012
:10100c008100610081047800000478000800be00b3
:10101c0068014700120178000089be0031003700da
:10102c000e80e800100078006104b800f07f20000a
:10103c00010020000805780009047800800478007d
:10104c00810078000900650081006400810378004c
:10105c00000378000600be00c204dd00080020007a
:10106c0064004700100078006103b800f0ff210015
:10107c000100200006057800070378008003780043
:10108c008100780007006500810063008102780010
:10109c00000278004528dd00cb20de0081007000c6
:1010ac004520dd0000027400818274000e80e8008f
:1010bc00100078004b00de008000eb000000780090
:1010cc007f0060008001eb00000178000200be0090
:1010dc0000007200818072006801470012017800e4
:1010ec000089be006600470010007800e400400054
:1010fc00660047000108780068004700100078007f
:10110c00640040001000780052800a0000000000cb
:10111c000080fb009afe0700004f78008200200040
:10112c008000eb008004210027fe07001e80fb00de
:10113c0000017800660047009000780080042100d0
:10114c001afe070068004700100078008104210097
:10115c0066004000010878004f05be004f04be0039
:10116c000080fa00000006000600fa000e81e8007c
:10117c000009780064004700010878000040eb008b
:10118c00004f7800640047001000780064004000b5
:10119c0010007800610060000000e0000f003a00d1
:1011ac0064004700100078001000be00800078003a
:1011bc00f07f2000808060000e80e8001000780036
:1011cc00010878000e80e80010007800e400400070
:1011dc000e80e80001087800270037006400470003
:1011ec00100078001000be004208de00800078007d
:1011fc00f07f200000816000640047001000780040
:10120c001000be00000078004b00dd008200700072
:10121c000e80e80010007800010878000e80e800cd
:10122c00100078008080e8000e80e800010878004b
:10123c0064004700100078001000be004b09dd0070
:10124c004500de0000007100c508de00800078005b
:10125c00f0ff2100808060000e80e8001000780014
:10126c00010878000e80e800100078008080e8000b
:10127c000e80e80001087800640047001000780038
:10128c00640040001000780052800a00000000004a
:10129c008080fb0064004700100078006400400070
:1012ac001000780000800a00000000000080fb00a5
:1012bc004400dd0070006000810070006400470095
:1012cc0010007800640040001000780011800a00c3
:1012dc00000000000080fb004500dd0000017800ec
:1012ec0000022000000061008100700064004700d3
:1012fc0010007800640040001000780077800a002d
:10130c00000000000080fb004600dd0000017800ba
:10131c0000042000000061008100700064004700a0
:10132c0010007800640040001000780066800a000d
:10133c00000000000080fb004700dd000001780089
:10134c00f00f200000006100810070000e80e800aa
:10135c001000780001087800640047001000780045
:10136c006400400010007800620060000000e000a3
:10137c0017003a000e80e80010007800e4004000ee
:10138c000e80e80001087800640047001000780027
:10139c00640040001000780052800a000000000039
:1013ac000080fb00f6fd0700004f78001e80fb005c
:1013bc00e400470091007800e6804000910078003e
:1013cc00000178000e80e8001000780077fd07001f
:1013dc000080fa00000006000000fa000040200027
:1013ec008030880000042000903088000080fa00d3
:1013fc00000006000000fa0000402000e0308800e9
:10140c001e26ef000080fa00000006000000fa0023
:10141c000080fa00000006000000fa00f0f1210044
:10142c00202e8800e0072000302e88000080fa0073
:10143c00000006000000fa00c1e5a80000412000f1
:10144c00102e880040002000110007000000e00072
:10145c000d003a00800221006030880000762900df
:10146c00002e8800c265a900c285a800eaff07000b
:10147c00d9ff0700dfff0700e4ff070000fe0700ad
:10148c0060002000020007000080fa000000060047
:10149c000400fa008e80e800800878000000eb0061
:1014ac00000f78002e000700e40f500008003200f7
:1014bc000e80e80010007800e10f500004003200ac
:1014cc000e80e80010007800e40f50001f003a0076
:1014dc000e80e80010007800004078006740600043
:1014ec000080fb00670060004800dd00122e8000c9
:1014fc00f18f2f008100610001007000102e880018
:10150c0009003700e12e80000000210000806000ff
:10151c000000e0000400320020002000000f7800e2
:10152c00000000000b003700102e800075800a00b0
:10153c00000000000080fb008e80e8009100780025
:10154c00810f5000efff3a0002003700100020001e
:10155c00000f78001e0078000080fa0000000600e2
:10156c000000fa00102e800075800a0000000000b8
:10157c000080fb000080fa00000006000c00fa005e
:10158c00ea004700800878008040eb000e00e8007d
:10159c00014878000040eb00004f78005100370004
:1015ac001e80fb00c200dd00000021000080400016
:1015bc00900078000e80e800014878006600470033
:1015cc00800078000e80e8001040780073fd070062
:1015dc000e80e800104078000080fb00b8fd07008a
:1015ec008000780064004700010878006400470020
:1015fc001000780061006000004078000004e000fa
:10160c0037003200680047001000780010007800a6
:10161c000000e0003700320068004700100078003e
:10162c0010007800ea00470091007800ebfd0700fd
:10163c000e80e80010407800bcfd07001e80fb0007
:10164c009e80fb00c208dd000181e8000100210042
:10165c0081004100914078008140e8004201dd00aa
:10166c002000210000004100014878001e80fb0092
:10167c004200dd008080e800000021000080400076
:10168c0090407800670047001040780080cf5000f1
:10169c00060039001e80fb00c200dd002000210086
:1016ac00008040008040eb00014878006400470057
:1016bc0010007800680060000000e00004003200b8
:1016cc000e80e800104078000080fb008cfd0700c5
:1016dc0011c0b3000e00e800014878000600370086
:1016ec001e4fe8001e4078000004e000acff320002
:1016fc0001003700000000000e00e80010407800e8
:10170c000080fa00000006000a00fa00660147009b
:10171c00000978006800470001087800660047005f
:10172c0010007800004078008e80e8001bfd070058
:10173c000000eb00000f78006800470010007800f4
:10174c0064004000900078000008200000806000d9
:10175c000000e00006003200012e80000000210095
:10176c00008060000000e000010032001e10a000ac
:10177c0068004700100078006400400010007800fa
:10178c0052800a00000000000080fb00e80f5000af
:10179c00010034001e00a000680047001000780013
:1017ac00640040001000780052800a000000000025
:1017bc000080fb00f2fc07008e80e800914078006e
:1017cc00814f5000010036001e00a0001e00780062
:1017dc000000e00016003a00660047001000780098
:1017ec0016000700e10f50000f003a00640047009c
:1017fc0010007800100078000000e0000c003200af
:10180c00640047001000780010007800e8004700e2
:10181c009100780054fe0700660047001000780025
:10182c0060fd0700020037009e007800638f700097
:10183c001e0078000080fa00000006000400fa0088
:10184c008e80e800800878000e80e8001000780098
:10185c000000e00004003a00a0308000610060004d
:10186c00000f7800030037000000eb00000f780039
:10187c00000000001e0078000080fa000000060046
:10188c000c00fa008040eb00630047000148780030
:10189c000040eb00004f78008040eb000e00e800a9
:1018ac00014878008040eb000e80e8000148780089
:1018bc000040eb00004f7800670037001e80fb00f3
:1018cc00c200dd0000002100008040009000780084
:1018dc0063004700014878006800470080007800ea
:1018ec006300470010407800acfc07006300470021
:1018fc00104078000080fb00f1fc070080007800ad
:10190c00640047000108780064004700100078006c
:10191c0061006000004078000004e0004d003200df
:10192c006400470010007800680060000000e000d0
:10193c00040032000e00e800e9004700114878006e
:10194c003d00370063004700104078000080fb002a
:10195c0001fd070080007800660047000108780050
:10196c001e80fb004200dd008080e80000002100aa
:10197c0000804000104078000080fb00e60047002b
:10198c0091007800810f500010003600690047006c
:10199c009040780066004700100078000040780006
:1019ac0080c040001e80fb004200dd000081e8008a
:1019bc0000002100000041001040780080c0500061
:1019cc000e00e800014878001b0037001e80fb0069
:1019dc004200dd008080e800000021000080400013
:1019ec00104078000080fb00e60047009100780072
:1019fc00810f50000d003100660047001000780088
:101a0c00804078001e80fb004200dd000081e80071
:101a1c0000002100000041001040780080c0500000
:101a2c000e00e80001487800030037000e00e800c3
:101a3c00e9004700114878000e80e80090407800db
:101a4c000e00e8001040780080c040000e80e800d6
:101a5c00014878001e4fe8001e4078000004e000aa
:101a6c0096ff32000e80e800104078000080fa00eb
:101a7c00000006000000fa00b02f800055800a001c
:101a8c00000000000080fb0000f0a7000000ea004e
:101a9c000000ea004f00de00004078000080fa00f1
:101aac00000006000000fa00b02f800033800a000e
:101abc00000000000080fb0000f0a7000000ea001e
:101acc000000ea004f00de00004078000080fa00c1
:101adc00000006000000fa00b02f800011800a0000
:101aec00000000000080fb0000f0a7000000ea00ee
:101afc000000ea004f00de00004078000080fa0091
:101b0c00000006000200fa000040eb00004f7800d5
:101b1c00f4c5bf000004e00005003200f4c5bf00ae
:101b2c000004e0000200350010c0b300004f780044
:101b3c001e4078000080fa00000006000000fa0049
:101b4c00b02f800044800a00000000000080fb00e1
:101b5c0000f0a7000000ea000000ea004f00de00e1
:101b6c00004078000080fa00000006000000fa0037
:101b7c00b02f800022800a00000000000080fb00d3
:101b8c0000f0a7000000ea000000ea004f00de00b1
:101b9c00004078000080fa00000006000200fa0005
:101bac000040eb00004f7800f5c5bf000004e000da
:101bbc0005003200f5c5bf000004e000020035004e
:101bcc0010c0b300004f78001e4078000080fa006f
:101bdc00000006000000fa00ddc5a900dfc5a80062
:101bec002328a8001000200029fe07000080fa001e
:101bfc00000006000000fa000080fa000000060059
:101c0c000000fa000080fa00000006000000fa0054
:101c1c000080fa00000006000000fa000080fa00c4
:101c2c00000006000000fa000080fa000000060028
:101c3c000000fa000080fa00000006000000fa0024
:101c4c000080fa00000006000000fa00e12e80007f
:101c5c0000002800008060000000e000020032005c
:101c6c00e4ff0700dde5a900e12e80000000220062
:101c7c00008060000000e00002003200e3ff07007b
:101c8c00dda5a900e02e8000680060000000e000e7
:101c9c0002003200e0ff0700dc65a900e12e8000a5
:101cac0000002100008060000000e0000200320013
:101cbc00dcff0700dd85a900e12e8000004020003c
:101ccc00008060000000e00001003200d8ff070037
:101cdc0000318000680060000000e000020032006b
:101cec00d6ff07002066a9000080fa00000006005d
:101cfc000000fa00007c80000080fa000000060062
:101d0c000200fa00faff0700000f78001e007800ae
:101d1c00240007000004e00002003200000028004c
:101d2c007d0007001e0078002c0007000004e00076
:101d3c000200320000002400770007001e0078002b
:101d4c00360007000004e0000200320000202000f2
:101d5c00710007001e007800400007000004e0003e
:101d6c0002003200000820006b0007001e00780003
:101d7c004a0007000004e0000200320000042000ca
:101d8c00650007001e007800540007000004e00006
:101d9c0002003200000120005f0007000080fa0002
:101dac00000006000400fa008e80e800800878002d
:101dbc000040eb00004f78000e80e8001000780027
:101dcc000000e00002003d0010c0b300004f78009e
:101ddc001e4078000080fa00000006000400fa00a3
:101dec008e80e800800878000040eb00004f7800ff
:101dfc000e80e80090007800000024000080600055
:101e0c000000e0000200320010c0b300004f780068
:101e1c001e4078000080fa00000006000400fa0062
:101e2c008e80e800800878000040eb00004f7800be
:101e3c000e80e800900078000020200000806000f8
:101e4c000000e0000200320010c0b300004f780028
:101e5c001e4078000080fa00000006000400fa0022
:101e6c008e80e800800878000040eb00004f78007e
:101e7c000e80e800900078000008200000806000d0
:101e8c000000e0000200320010c0b300004f7800e8
:101e9c001e4078000080fa00000006000400fa00e2
:101eac008e80e800800878000040eb00004f78003e
:101ebc000e80e80090007800000420000080600094
:101ecc000000e0000200320010c0b300004f7800a8
:101edc001e4078000080fa00000006000400fa00a2
:101eec008e80e800800878000040eb00004f7800fe
:101efc000e80e80010007800700060000000e00028
:101f0c000200320010c0b300004f78001e40780071
:101f1c000080fa00000006000200fa00000f7800b2
:101f2c001e80ea00017c800001006000007c8800bb
:101f3c000080fa00000006000000fa00802fef007d
:101f4c000080fa00000006000000fa00f0f1210009
:101f5c0020228800e0072000302288000080fa0050
:101f6c00000006000000fa0041e4a8000040200038
:101f7c0010228800400020000b0007000000e00049
:101f8c0007003a0000762900002288004264a9006c
:101f9c004284a900ecff070060002000020007004b
:101fac000080fa00000006000400fa008e80e800b1
:101fbc00800878000000eb00000f78002e0007006e
:101fcc00e40f5000080032000e80e800100078008a
:101fdc00e10f5000040032000e80e8001000780081
:101fec00e40f50001f003a000e80e800100078004b
:101ffc0000407800674060000080fb0067006000d4
:10200c004800dd0012228000f18f2f00810061005a
:10201c00010070001022880009003700e1228000c6
:10202c0000002100008060000000e000040032008d
:10203c0020002000000f7800000000000b0037008b
:10204c001022800075800a00000000000080fb0058
:10205c008e80e80091007800810f5000efff3a006d
:10206c000200370010002000000f78001e007800de
:10207c000080fa00000006000000fa001022800028
:10208c0075800a00000000000080fb000080fa0050
:10209c00000006000000fa00b023800055800a0002
:1020ac00000000000080fb0000f0a7000000ea0028
:1020bc000000ea004f00de00004078000080fa00cb
:1020cc00000006000000fa005dc4a9005fc4a8006f
:1020dc002428a80010002000b3ff07000080fa009d
:1020ec00000006000000fa000080fa000000060064
:1020fc000000fa000080fa00000006000000fa0060
:10210c000080fa00000006000000fa000080fa00cf
:10211c00000006000000fa000080fa000000060033
:10212c000000fa00e122800000002800008060001e
:10213c000000e00002003200eaff07005de4a900a5
:10214c00e122800000002200008060000000e0001e
:10215c0002003200e9ff07005da4a900e022800024
:10216c00680060000000e00002003200e6ff07009b
:10217c005c64a900e1228000000021000080600066
:10218c000000e00002003200e2ff07005d84a900bd
:10219c000080fa00000006000000fa000008200091
:1021ac00c01188003a22ef003c22ef0020022000f0
:1021bc00f011880070062000001288004222ef0007
:1021cc004c22ef004e22ef005022ef005222ef0083
:1021dc005422ef005622ef005822ef005a22ef0053
:1021ec005c22ef0039e2a80038a2a8003882a800cf
:1021fc000080fa00000006000000fa000000000059
:10220c00f0118000620060000000e000fcff3a006a
:10221c00e0118000620060000000e000010032006c
:10222c003c22a90020128000004078000080fa00b7
:10223c00000006000200fa00004f780000000000c9
:10224c00f0118000700060000000e000fcff3a001c
:10225c001e80fb00401288000080fa00000006007f
:10226c000000fa00f01180006200600000f0a7008e
:10227c000000ea000000e9004f00de00004078009a
:10228c000080fa00000006000000fa00f011800047
:10229c00700060000000e00007003a00c1118000ef
:1022ac0000022000008060000000e000020032000c
:1022bc0010002000010037000000eb000040780007
:1022cc000080fa00000006000000fa00e011800017
:1022dc0077800a00000000000080fb0000f0a700df
:1022ec000000ea000000ea004f00de000040780029
:1022fc000080fa00000006000400fa00f0118000d3
:10230c008000eb00008fbe001e00be00c001dd008f
:10231c0002002000e01180008000eb000000710042
:10232c00818071000080fa00000006000000fa00b5
:10233c0039e2a80038a2a8003882a8000080fa0070
:10234c00000006000000fa0039e2a90038a2a9003a
:10235c003882a9000080fa00000006000000fa0094
:10236c00062eef00222eef003e2eef005a2eef002d
:10237c00f001200010708800d0eb2f00f070880066
:10238c00f0ef2300d071880020502200b07288003a
:10239c000c2eef00282eef00442eef00602eef00e5
:1023ac000a2eef00262eef00422eef005e2eef00dd
:1023bc00082eef00242eef00402eef005c2eef00d5
:1023cc00f00120000070880050202000e070880090
:1023dc00f00c2000c071880000402200a072880020
:1023ec000000eb0051052000b1468800a10a200036
:1023fc00b146880000688800416c800000fc2f000a
:10240c00008060006001b300406c880070c2b300b3
:10241c0039edb700c16c800000fc2f00008060001b
:10242c000000a000c06c8800316c800000fc2f0004
:10243c00008060005001b300306c880090c3b30082
:10244c0028edb70050c2b30038edb7000080200073
:10245c0051052000b1468800a10a2000b146880031
:10246c00006888000080fa00000006000000fa00f6
:10247c0010002300307c880060092000407c88001c
:10248c008c2fef0010042000507c880010102000ce
:10249c00707c880060092000807c8800100420007b
:1024ac00907c8800e0a02800d07c8800b82fef003a
:1024bc00ba2fef00be2fef00002def00a42fef007e
:1024cc00a62fef00a82fef00aa2fef00ae2fef00e2
:1024dc00b02fef00b22fef00720020008007200019
:1024ec00a109200053f82000804978008149780028
:1024fc00824978000001eb00600420007105200087
:10250c0043f820008049780081497800824978009e
:10251c000080fa00000006000000fa00707c8000c9
:10252c00ee800a00000000000080fb0000f0a70015
:10253c000000ea000000ea004f00de0000407800d6
:10254c000080fa00000006000200fa00000f78007c
:10255c0021028000200f2000008060001e0070000f
:10256c00200288000080fa00000006000000fa003b
:10257c00c3e8a80000000000000000000080fa0082
:10258c00000006000000fa0074ff07003900070085
:10259c00b6ff070073fe0700a6fb0700fefe070050
:1025ac00f2ff070000022000e7ff07000080fa009e
:0425bc000000060015
:020000040000fa
:1025c0000610000020000000800000000410000041
:1025d0000200000082000000ffff00004810000021
:1025e000080000008000000028100000200000000b
:1025f00080000000001000000400000082000000c5
:0c260000010000000000000000000000cd
:020000040000fa
:10260c001200fa00200020000100200068014700a1
:10261c000089be0031c0b30070004700014878004b
:10262c00f00047006e00470001087800d5ff070056
:10263c0068004700800078000000eb0032fc0700c7
:10264c00fbff37000200fa00000f78009e007800b4
:10265c0021808800ffff37000000fa006000210095
:10266c0080077800e0012100000188000080fa005a
:10267c00000006000000fa000080fa0000000600ce
:020000040000fa
:04268c00ffffff004d
:020000040000fa
:020000040005f5
:047e0000ffffff0081
:020000040000fa
:020000040005f5
:047e2000ffffff0061
:020000040000fa
:020000040005f5
:047e30007fffff00d1
:020000040000fa
:020000040005f5
:047e3800bfffff0089
:020000040000fa
:020000040005f5
:047e40006003ff00dc
:020000040000fa
:020000040005f5
:047e4800ffffff0039
:020000040000fa
:020000040005f5
:047e5000deffff0052
:020000040000fa
:020000040005f5
:047e58000000ff0027
:020000040000fa
:020000040005f5
:047e60000000ff001f
:020000040000fa
:020000040005f5
:047e68000000ff0017
:020000040000fa
:020000040005f5
:047e70000000ff000f
:020000040000fa
:020000040005f5
:047e7800ffffff0009
:020000040000fa
:020000040005f5
:047e8000fffcff0004
:020000040000fa
:020000040005f5
:047e8800ffffff00f9
:020000040000fa
:020000040005f5
:047eb000ffffff00d1
:020000040000fa
:020000040005f5
:047ec000ffffff00c1
:020000040000fa
:020000040005f5
:047ed000ffffff00b1
:020000040000fa
:020000040005f5
:047ee000ffffff00a1
:020000040000fa
:020000040005f5
:047ef000ffffff0091
:020000040000fa
:020000040005f5
:047ff800ffffff0088
:020000040000fa
:020000040100f9
:04300000ffffff00cf
:00000001FF
