:020000040000fa
:080000000002040000000000f2
:020000040000fa
:04000800c60300002b
:020000040000fa
:04000c0008040000e4
:020000040000fa
:0400100048040000a0
:020000040000fa
:04001400e6030000ff
:020000040000fa
:0400180028040000b8
:020000040000fa
:04001c0008060000d2
:020000040000fa
:040020006804000070
:020000040000fa
:0400240008060000ca
:020000040000fa
:0400280008060000c6
:020000040000fa
:04002c0008060000c2
:020000040000fa
:0400300008060000be
:020000040000fa
:0400340008060000ba
:020000040000fa
:0400380008060000b6
:020000040000fa
:04003c0008060000b2
:020000040000fa
:0400400008060000ae
:020000040000fa
:0400440008060000aa
:020000040000fa
:0400480008060000a6
:020000040000fa
:04004c0008060000a2
:020000040000fa
:04005000080600009e
:020000040000fa
:04005400080600009a
:020000040000fa
:040058000806000096
:020000040000fa
:04005c000806000092
:020000040000fa
:04006000080600008e
:020000040000fa
:04006400080600008a
:020000040000fa
:040068000806000086
:020000040000fa
:04006c000806000082
:020000040000fa
:04007000080600007e
:020000040000fa
:04007400080600007a
:020000040000fa
:040078000806000076
:020000040000fa
:04007c000806000072
:020000040000fa
:04008000080600006e
:020000040000fa
:04008400080600006a
:020000040000fa
:040088000806000066
:020000040000fa
:04008c00b2040000ba
:020000040000fa
:04009000080600005e
:020000040000fa
:04009400080600005a
:020000040000fa
:040098000806000056
:020000040000fa
:04009c000806000052
:020000040000fa
:0400a000080600004e
:020000040000fa
:0400a400080600004a
:020000040000fa
:0400a8000806000046
:020000040000fa
:0400ac009c030000b1
:020000040000fa
:0400b000080600003e
:020000040000fa
:0400b400080600003a
:020000040000fa
:0400b8000806000036
:020000040000fa
:0400bc000806000032
:020000040000fa
:0400c000080600002e
:020000040000fa
:0400c400080600002a
:020000040000fa
:0400c8000806000026
:020000040000fa
:0400cc000806000022
:020000040000fa
:0400d000080600001e
:020000040000fa
:0400d400080600001a
:020000040000fa
:0400d8000806000016
:020000040000fa
:0400dc000806000012
:020000040000fa
:0400e000080600000e
:020000040000fa
:0400e400080600000a
:020000040000fa
:0400e8000806000006
:020000040000fa
:0400ec000806000002
:020000040000fa
:0400f00008060000fe
:020000040000fa
:0400f40008060000fa
:020000040000fa
:0400f80008060000f6
:020000040000fa
:0400fc0008060000f2
:020000040000fa
:0401000008060000ed
:020000040000fa
:0401040008060000e9
:020000040000fa
:0401080008060000e5
:020000040000fa
:04010c0008060000e1
:020000040000fa
:0401100008060000dd
:020000040000fa
:0401140008060000d9
:020000040000fa
:0401180008060000d5
:020000040000fa
:04011c0008060000d1
:020000040000fa
:0401200008060000cd
:020000040000fa
:0401240008060000c9
:020000040000fa
:0401280008060000c5
:020000040000fa
:04012c0008060000c1
:020000040000fa
:0401300008060000bd
:020000040000fa
:0401340008060000b9
:020000040000fa
:0401380008060000b5
:020000040000fa
:04013c0008060000b1
:020000040000fa
:0401400008060000ad
:020000040000fa
:0401440008060000a9
:020000040000fa
:0401480008060000a5
:020000040000fa
:04014c0008060000a1
:020000040000fa
:04015000080600009d
:020000040000fa
:040154000806000099
:020000040000fa
:040158000806000095
:020000040000fa
:04015c000806000091
:020000040000fa
:04016000080600008d
:020000040000fa
:040164000806000089
:020000040000fa
:040168000806000085
:020000040000fa
:04016c000806000081
:020000040000fa
:04017000080600007d
:020000040000fa
:040174000806000079
:020000040000fa
:040178000806000075
:020000040000fa
:04017c000806000071
:020000040000fa
:04018000080600006d
:020000040000fa
:040184000806000069
:020000040000fa
:040188000806000065
:020000040000fa
:04018c000806000061
:020000040000fa
:04019000080600005d
:020000040000fa
:040194000806000059
:020000040000fa
:040198000806000055
:020000040000fa
:04019c000806000051
:020000040000fa
:0401a000080600004d
:020000040000fa
:0401a4000806000049
:020000040000fa
:0401a8000806000045
:020000040000fa
:0401ac000806000041
:020000040000fa
:0401b000080600003d
:020000040000fa
:0401b4000806000039
:020000040000fa
:0401b8000806000035
:020000040000fa
:0401bc000806000031
:020000040000fa
:0401c000080600002d
:020000040000fa
:0401c4000806000029
:020000040000fa
:0401c8000806000025
:020000040000fa
:0401cc000806000021
:020000040000fa
:0401d000080600001d
:020000040000fa
:0401d400dc04000047
:020000040000fa
:0401d8001805000006
:020000040000fa
:0401dc0054050000c6
:020000040000fa
:0401e0009005000086
:020000040000fa
:0401e400cc05000046
:020000040000fa
:0401e8000806000005
:020000040000fa
:0401ec000806000001
:020000040000fa
:0401f00008060000fd
:020000040000fa
:0401f40008060000f9
:020000040000fa
:0401f80008060000f5
:020000040000fa
:0401fc0008060000f1
:020000040000fa
:0402000008060000ec
:020000040000fa
:0402040008060000e8
:020000040000fa
:0402080008060000e4
:020000040000fa
:04020c0008060000e0
:020000040000fa
:0402100008060000dc
:020000040000fa
:0402140008060000d8
:020000040000fa
:0402180008060000d4
:020000040000fa
:04021c0008060000d0
:020000040000fa
:0402200008060000cc
:020000040000fa
:0402240008060000c8
:020000040000fa
:0402280008060000c4
:020000040000fa
:04022c0008060000c0
:020000040000fa
:0402300008060000bc
:020000040000fa
:0402340008060000b8
:020000040000fa
:0402380008060000b4
:020000040000fa
:04023c0008060000b0
:020000040000fa
:0402400008060000ac
:020000040000fa
:0402440008060000a8
:020000040000fa
:0402480008060000a4
:020000040000fa
:04024c0008060000a0
:020000040000fa
:04025000080600009c
:020000040000fa
:040254000806000098
:020000040000fa
:040258000806000094
:020000040000fa
:04025c000806000090
:020000040000fa
:04026000080600008c
:020000040000fa
:040264000806000088
:020000040000fa
:040268000806000084
:020000040000fa
:04026c000806000080
:020000040000fa
:04027000080600007c
:020000040000fa
:040274000806000078
:020000040000fa
:040278000806000074
:020000040000fa
:04027c000806000070
:020000040000fa
:04028000080600006c
:020000040000fa
:040284000806000068
:020000040000fa
:040288000806000064
:020000040000fa
:04028c000806000060
:020000040000fa
:04029000080600005c
:020000040000fa
:040294000806000058
:020000040000fa
:040298000806000054
:020000040000fa
:04029c000806000050
:020000040000fa
:0402a000080600004c
:020000040000fa
:0402a4000806000048
:020000040000fa
:0402a8000806000044
:020000040000fa
:0402ac000806000040
:020000040000fa
:0402b000080600003c
:020000040000fa
:0402b4000806000038
:020000040000fa
:0402b8000806000034
:020000040000fa
:0402bc000806000030
:020000040000fa
:0402c000080600002c
:020000040000fa
:0402c4000806000028
:020000040000fa
:0402c8000806000024
:020000040000fa
:0402cc000806000020
:020000040000fa
:0402d000080600001c
:020000040000fa
:0402d4000806000018
:020000040000fa
:0402d8000806000014
:020000040000fa
:0402dc000806000010
:020000040000fa
:0402e000080600000c
:020000040000fa
:0402e4000806000008
:020000040000fa
:0402e8000806000004
:020000040000fa
:0402ec000806000000
:020000040000fa
:0402f00008060000fc
:020000040000fa
:0402f40008060000f8
:020000040000fa
:0402f80008060000f4
:020000040000fa
:0402fc0008060000f0
:020000040000fa
:0403000008060000eb
:020000040000fa
:0403040008060000e7
:020000040000fa
:0403080008060000e3
:020000040000fa
:04030c0008060000df
:020000040000fa
:0403100008060000db
:020000040000fa
:0403140008060000d7
:020000040000fa
:0403180008060000d3
:020000040000fa
:04031c0008060000cf
:020000040000fa
:0403200008060000cb
:020000040000fa
:100400008f1421000eff27000e018800000020003d
:100410000000e000020032000001200020028800fd
:1004200014000700710207000000e00003003a001a
:10043000a069220001002000020037000000200017
:1004400001002000810f70004220ae000f00070065
:10045000000020000000e0004220ae00000002008a
:10046000000000008a1f0200000000000040da00c7
:100470000000fe00401c20000000e00002003200ee
:10048000002020009001880000000600a1028800e2
:10049000800478000000eb001f003700e284440075
:1004a00054a0b4009905ba00e284440054a0b400fa
:1004b0009906ba00e284440054a0b4000006eb00a0
:1004c000476fde00fd07b200ae018800636ce100fb
:1004d00003003a000ad801000000eb000e003700cc
:1004e000606ce10008003a00004deb000a05e800ee
:1004f000020039003420ec000af0a0008b05e9006e
:10050000f9ff3e00040037006168e100010032009d
:100510000086eb000b00070019c7ba001905ba00e6
:100520000e04e00003003a000a00e000dbff3a009e
:1005300000000600fe07b200ae0288008a047800c0
:10054000f5ff37000cd0a300e20f4d001c0039006e
:1005500089027800354dba000a05e800020039002a
:100560003420ec000af0a0008b05e9000f003200f7
:10057000254dba000a05e800020039003420ec00dd
:100580000af0a0008b05e900080032000c00e00032
:100590000600320015cdba000a05e8000200390055
:1005a0003420ec000af0a0008b05e9008984e80003
:1005b00054a0b4000b00e000e2ff3a000000060087
:1005c0009902ba00055d78008b05e900f7ff32005b
:1005d000c82ade00055d78008b05e900f3ff3200d4
:1005e0000c00e000f1ff320019ddba00eeff370029
:1005f00004082000010037000002eb006100e10068
:1006000001003200100005003200f8003400f8004c
:1006100081027800930188003200be000100e000f2
:100620000c0032000470a70000f0a0003203780034
:10063000c733de00848343004220af008703e80015
:10064000a7018800f607b2007f30e1000400320005
:10065000200020003400f9003200f90000000600fc
:100660008100e9000500e00003003a000180090074
:1006700032100300e8ff37000180090032900300c8
:10068000d561ae00e4ff370030002000f1ff3700f5
:1006900050052000b00e8800a00a2000b00e88008f
:1006a000d3e1a8000000060050052000b00e88002d
:1006b000a00a2000b00e8800d3e1a90000000600c7
:1006c000be21040000000000ec2104000000000036
:1006d0001e22040000000000502204000000000060
:1006e0008222040000000000b42204000000000088
:1006f000e622040000000000fa22040000000000ce
:100700000e2304000000000022230400000000006b
:1007100036230400000000002c0c04000000000040
:100720000000040000000000680c0400000000004d
:10073000940c0400000000003600f800809fbe000a
:10074000829fbe00849fbe00869fbe000000fa000c
:10075000e122800000002400008060000000e00032
:1007600002003200301007005dc4a9000428a9006f
:100770000080fa004f03be004f02be004f01be00d2
:100780004f00be003600f900004006003600f800b9
:10079000809fbe00829fbe00849fbe00869fbe00d9
:1007a0000000fa00c028a9000000eb0000130700b9
:1007b0000080fa004f03be004f02be004f01be0092
:1007c0004f00be003600f900004006003600f80079
:1007d000809fbe00829fbe00849fbe00869fbe0099
:1007e0000000fa00f7120700c048a900100020001e
:1007f000ef1207000080fa004f03be004f02be0058
:100800004f01be004f00be003600f9000040060058
:100810003600f800809fbe00829fbe00849fbe000d
:10082000869fbe000000fa00c068a90020002000da
:10083000df1207000080fa004f03be004f02be0027
:100840004f01be004f00be003600f9000040060018
:100850003600f800809fbe00829fbe00849fbe00cd
:10086000869fbe000000fa00c088a900300020006a
:10087000cf1207000080fa004f03be004f02be00f7
:100880004f01be004f00be003600f90000400600d8
:100890003600f800809fbe00829fbe00849fbe008d
:1008a000869fbe000000fa00c608a9007000200064
:1008b000bf1207000080fa004f03be004f02be00c7
:1008c0004f01be004f00be003600f9000040060098
:1008d0003600f800809fbe00829fbe00849fbe004d
:1008e000869fbe000000fa00214680000010200014
:1008f000008060000000e00003003200c508a9008d
:10090000c0002000aa12070021468000000220003b
:10091000008060000000e00003003200c4a8a900cd
:1009200090002000a21207002046800070006000a6
:100930000000e00003003200c488a900a0002000ed
:100940009b12070020468000610060000000e0006c
:1009500003003200c408a900b00020009412070070
:10096000ffff37003600f800809fbe00829fbe0068
:10097000849fbe00869fbe000000fa00e12e80002a
:1009800000002400008060000000e000020032004f
:1009900034100700ddc5a9000328a9000080fa0073
:1009a0004f03be004f02be004f01be004f00be000d
:1009b0003600f900004006003600f800809fbe00b7
:1009c000829fbe00849fbe00869fbe003200f8005a
:1009d0003400f80010002000a00188000020200052
:1009e00000d0fe000200fa0061618000010f780073
:1009f000708180000000e0000300320071818000ff
:100a00001e007800010001000d68a9000080fa00b6
:100a10003400f9003200f9004f03be004f02be005f
:100a20004f01be004f00be003600f9000040060036
:100a30003600f800809fbe00829fbe00849fbe00eb
:100a4000869fbe003200f8003400f800100020003d
:100a5000a00188000020200000d0fe000200fa0063
:100a600071618000010f7800808180000000e0004b
:100a700003003200818180001e0078000100010027
:100a80000d88a9000080fa003400f9003200f90056
:100a90004f03be004f02be004f01be004f00be001c
:100aa0003600f900004006003600f800809fbe00c6
:100ab000829fbe00849fbe00869fbe003200f80069
:100ac0003400f80010002000a00188000020200061
:100ad00000d0fe000200fa0081618000010f780062
:100ae000908180000000e0000300320091818000ce
:100af0001e007800010001000da8a9000080fa0086
:100b00003400f9003200f9004f03be004f02be006e
:100b10004f01be004f00be003600f9000040060045
:100b20003600f800809fbe00829fbe00849fbe00fa
:100b3000869fbe003200f8003400f800100020004c
:100b4000a00188000020200000d0fe000200fa0072
:100b500091618000010f7800a08180000000e0001a
:100b600003003200a18180001e0078000100010016
:100b70000dc8a9000080fa003400f9003200f90025
:100b80004f03be004f02be004f01be004f00be002b
:100b90003600f900004006003600f800809fbe00d5
:100ba000829fbe00849fbe00869fbe003200f80078
:100bb0003400f80010002000a00188000020200070
:100bc00000d0fe000200fa00a1618000010f780051
:100bd000b08180000000e00003003200b18180009d
:100be0001e007800010001000de8a9000080fa0055
:100bf0003400f9003200f9004f03be004f02be007e
:100c00004f01be004f00be003600f9000040060054
:100c10000040da000000fe000a00fa001100200087
:100c2000b1bf9f00c0bf9f006a805700e008070067
:100c30004fb897000080fa00000006000a00fa0092
:100c4000e20f500034003e00208a8000e10f500087
:100c500003003200e20f500011003a000c00370090
:100c6000832320000300e00001003a000040da0086
:100c70003802e200020035004022ef0039e2a8000d
:100c800038a2ab000d003a0038a2a8000b003700d4
:100c9000032620000300e00001003a000040da00d3
:100ca0006002e200020035006822ef0061e2a80065
:100cb00060a2ab0001003a0060a2a80082017800a7
:100cc0000b0037003102fb00e10f500004003a0036
:100cd0003e82ab00feff3a0044128800030037005a
:100ce0006682ab00feff3a00841388008301e900ae
:100cf0000300e000f3ff3a00e10f500003003a0068
:100d00003ea2ab00feff32000b00370066a2ab0034
:100d1000feff32000800370033002000b3bf9f0001
:100d2000c0bf9f00d1bf9f00e2bf9f006a805700f5
:100d3000a10807006fb99700020078000080fa0050
:100d4000000006000a00fa0051002000b1bf9f0019
:100d5000c0bf9f006a805700990807005fb89700de
:100d60000080fa0000000600889fbe008004780022
:100d7000308a80000000e00004003a000e00070006
:100d80000084eb000000e00008003500388a800095
:100d90000900e000050032000900440006000700d9
:100da0000000e00001003d000084eb000800780036
:100db0004f04be0000000600800078000100e00043
:100dc00003003a0000002000308a8800000005007f
:100dd0000080eb0002002000828f500002003e00e5
:100de000318a88000000eb000000060000000500ca
:100df000889fbe008a9fbe008c1f78009a00070063
:100e0000a100330003866c006450e1002e00320024
:100e10006420e100330032006150e1002f00320015
:100e20006120e1003100320085855500eb07b000fc
:100e300009002000080420000500370008044400d1
:100e400089844c000a0031000603430087834b006d
:100e50000001530081815b00f8ff33000203be00f4
:100e60000800a0000804440089844c00f6ff390003
:100e7000c639dd0083017300010032001300200039
:100e80008904d1000884d3000998a300050032002a
:100e90000800a7000300a0008904d1000884d30043
:100ea0008b05e8008904d1000884d3000001eb0021
:100eb0000281d2003100070001f0a1000cf0a70070
:100ec00001f0a000790037006420e1007b003200cf
:100ed0000801be000200be00f7ff37006120e100fc
:100ee000760032006000b800f3ff370000002000f9
:100ef00001f82700f0ff370014002000a60037009b
:100f0000f4ff2f00a40037000001be0041000700dd
:100f10000470a70003f0a10003f8a30013003a0037
:100f20006509b10010003200090035006928e100b0
:100f3000020035000100280000000500000040000c
:100f4000818048008502e900fcff3a0000000600ad
:100f5000f88f4200050035008100d1000080d300e9
:100f60008502e800fcff3a00000006008000eb006c
:100f7000000005006011b800a200370081002000c9
:100f8000618055000b003d000b00200061fe2f002a
:100f90000100e1001d0034008281710061016400e4
:100fa0008904d1000884d3000000e800faff3a0069
:100fb0007100200061006400030070000200600006
:100fc0000900320061044400e0844c000988a50057
:100fd000050032008b05e8006808e10002003a00d5
:100fe0008904d1000884d300f20f20000258e100e8
:100ff00005003d00c75ddd00f907b200898075007e
:1010000008007800000006000bf827008b0078002d
:1010100000000500c70ade00f107b200f50fb200bc
:1010200008003200e1cf4200020032000170a0004f
:1010300024000500810f7000010032000408050043
:1010400044000500810f700002003a001400050002
:101050008502e9000000400081c04800fcff3b0021
:101060000170a000240005000004be00e9ff070095
:101070000003be000405be000200be00e5ff07003d
:10108000844f7500000006000200be006450e100bd
:10109000050036006420e100020036000968a30064
:1010a00001003a000800be000160a0004f06780071
:1010b0004f05be004f04be0000000600f0ff2f00e9
:1010c000f1ff2700f9ff3700889fbe008a9fbe000e
:1010d0008c1f7800e4ff0700ebff330003866c00f1
:1010e0006450e100240032006420e1002700320057
:1010f0006150e100220032006120e1002100320055
:101100008b854200eb07b1000134b800003ab8000b
:101110000804420089844a00013ab8000030b8004f
:101120008880400009014a000400330000004000ac
:1011300081804800020149008b05e900c909dd00f2
:10114000830170000100320013002000c814de008b
:101150004814dd004709de001200b200c808de00b6
:101160000884700085ff070001f0a1000cf0a700c3
:1011700001f0a000cdff37006120e100cfff320079
:101180000801be000200be00f7ff37006150e10019
:10119000fcff3a00c9ff3700889fbe008a9fbe004f
:1011a000841f7800b0ff07004f0078001100330063
:1011b000f0ff2f00838f6c0006003b0004056500e4
:1011c0000a00a7000800370009f0a6001000200060
:1011d00008003700820f5400838f5c000300390041
:1011e0001000200001003e000000200009f0a700d0
:1011f0000000ea004f05be004f04be000000e00002
:1012000000000600889fbe008a9fbe00008270001a
:101210000402710004827100260032000004be0046
:101220000200be006011b8006b092000950220008a
:101230000182cf000a0039000541b1000082cf00d1
:10124000070039000541b1000982cf0004003900d0
:101250000541b1000882cf00010039000541b1000d
:1012600005425200120032000a003b0082817100e8
:10127000610164008100d1000080d3008984d30023
:101280000884d3008b05e8000442e800f7ff3a0029
:10129000070037000804440089844c00000048001f
:1012a000818048008b05e9000442e900f9ff3a001b
:1012b00032ff07004f05be004f04be0000000600cd
:1012c000810621006b000700800078000080eb00a1
:1012d0000100e0000400350081062100a00020008c
:1012e000020007004f80de0000000600889fbe005d
:1012f0008a1f78000004be00c900900069009000b9
:10130000808f50000600390009007800b8000700ff
:10131000800078000080eb000100e000170035003d
:10132000084578004900900008587800c0049800eb
:101330001900780000b8a30004003a0000a8a30038
:1013400008003200ea4f540006003a000900780015
:101350000d000700800078000080eb000100e00035
:1013600006003a0000c020001900600002003200b0
:1013700049009000e00498000a80fb004f057800c7
:101380004f04be0000000600889fbe008a1f780040
:10139000000478000800e0000d003a00680b21000e
:1013a000700544008004eb00580078000000e00065
:1013b00004003200f4ff07000000e00001003d00df
:1013c0008084eb008a0f5400f7ff3a0025003700b5
:1013d00000002200180060008004eb0021003200b1
:1013e000a80490000f003700090151003840900018
:1013f0000000fb008900780010fe07000000e000fc
:1014000007003c0028009000400498006004980009
:10141000500c98001890a0008084eb001100370059
:101420008084440048019000828f5400eeff390010
:1014300028009000400498009800780002c0200026
:101440000281600001003a003800900001e8a3002a
:10145000020032006004980001003700500c980030
:101460008004eb00090078004f0578004f04be00af
:1014700000000600889fbe008a9fbe00800478009e
:10148000010478002c003700c8009000680090002c
:10149000808f5000040039000800780054000700d5
:1014a0000000e00037003500004020001800600018
:1014b00009003200a1002000090078004200070066
:1014c000800578000b00e000030032006185140005
:1014d0000a85450004003700090078003400070041
:1014e000000578008005eb0048009000e8009000bf
:1014f000808050008a8f5000020031000105780082
:101500008005eb000a0178008900780021000700bf
:10151000480090000a004000400498000b00e000e2
:10152000040032000800780097ff07000000e00088
:1015300014003a008a8444001904e000d2ff3a0003
:1015400000802000180060000600320008007800cb
:101550008dff0700800078000080eb000100e000b4
:1015600009003a0001c02000988060000000eb00f4
:101570000500320048009000600498000000eb0075
:10158000010037000080eb004f05be004f04be0095
:10159000000006008001780002003700b159780091
:1015a0000201e9000200e000fcff3a000000060032
:1015b00080007800010178003104e000fdff3a006e
:1015c00000005100000006000001eb00000278005e
:1015d000b041780081cf510001003a000401780049
:1015e0000304e000f9ff3a00020078000000060062
:1015f000889fbe008a1f780000047800c800900011
:10160000680190000000eb00828f50003c00390020
:10161000180078002200290002016000e20f51004a
:1016200007003200012020000000e000010035002a
:1016300001202400008c70000080eb003000370097
:101640000200260002006000820f500009003a00ec
:1016500038009000808f50000600390008007800a4
:1016600049ff0700800078000080eb000100e000e7
:1016700023003a001805780000c020000000650033
:1016800018003a00a8049000600220000800400002
:10169000808f540013003a00002020007b030700d5
:1016a000200498000000e00005003a00290498009a
:1016b000490498008904e8003904980008003700bc
:1016c0000a60a0000a0c7800400498000120200065
:1016d0008080400031049800400c9800500c980025
:1016e0000c0007002800900050049800380090007b
:1016f0006004980000002600180c70000000eb0049
:101700004f0578004f04be0000000600c0c2200054
:1017100062003700881f7800081421001804e000d8
:1017200003003a00f9ff070020c0b300004c780026
:101730004f04780000000600889fbe000004780077
:101740000800780010ff07008004780000042000e3
:10175000180060000200320028009000920207008a
:101760000000eb0020049800384090000004e000e6
:10177000050035000000fb0027fd07000000e00029
:10178000010032008084eb00181090000000e0009f
:10179000080032006bfd07000000e000010032008d
:1017a0008084eb00181090007f0207000000eb001f
:1017b0001014980000082000180060001500320086
:1017c0000001eb006000b8000202d000830b210092
:1017d00003024200940f140005003a00000040008c
:1017e00081804800008041000008eb0006003700bf
:1017f00061004000e08048000201e800e80f50006e
:10180000e08f5800f0ff3a000800780066020700f9
:101810000e003700000c780000c0eb003044980048
:101820006002200008004000200498004004980056
:1018300050049800400c980060049800500c9800e8
:101840007004980076004400000c980009007800ad
:101850004f04be0000000600881f78000004eb0063
:101860006140b800e2ff2f00f3ff2f003c060700a5
:10187000620c210080004100110078000000e000af
:1018800001003200acff07000804e800e80f540034
:10189000f3ff3a004f04780000000600010020002a
:1018a0000100e00009003200010080000100e000ba
:1018b000060032008100e900010088008100d000ac
:1018c000020080008280400080087800000006004e
:1018d000889fbe0000047800010078008204780030
:1018e00088017800090178001100200060020700db
:1018f000890f5000010032000004eb00080078005e
:101900004f04be00000006000000fa00e881570006
:101910004fb997008106210080c62000cc00070047
:101920000080fa0000000600889fbe0000047800d6
:101930000203be0081047800080278008901780063
:10194000120020000600be002d050700890f500080
:10195000010032000004eb00080078004f04be00d4
:10196000000006006800fa00889fbe008a9fbe0043
:10197000800478000104780082057800030578006f
:101980008400780000f92f000f0040001a050700be
:10199000d98f9f00fb8f9f000000eb00a09f9f004e
:1019a000e88f9f009a84fb000904fb008904ea0089
:1019b000cf4cde0050022000800f54000d0032009a
:1019c000e18f54000b003a00090178008a0078008a
:1019d0007f889700df89970003000100f08f9f0048
:1019e0000000e000950032002f9897000000e8000a
:1019f000a09f9f000905450050022000800f540061
:101a0000040032000800e000e6ff3a002f9897003b
:101a10008b0037000000eb00809f9f00f0979f0035
:101a2000e0979f00d0979f00c0979f00b0979f00be
:101a300007003700e11121000100500000004000c4
:101a400021112100808040004f9897001100700004
:101a5000c09f9f000a04780008057800ba44780007
:101a60008900fb00e0112100bc0207000000e0003b
:101a7000f0ff3a00a1c2b30081cf54000e003a003b
:101a80008f8897000180e900808f9f001000780008
:101a9000b09f9f000000e00005003d000000ea004c
:101aa000b09f9f004f9897000020a000c09f9f000c
:101ab0000804e80010003700b09f9f0088007800fd
:101ac0000000eb0005003700f3ff2700830f5000f4
:101ad00002003200ea00b900000041000104780071
:101ae000880078003101fb000203b100e90f5100ca
:101af000f5ff3600b09f9f00e0c2b300984f100082
:101b0000020032000080eb0019003700a0c2b300d1
:101b1000d84f100007003a008f8897000180e90035
:101b2000808f9f0010007800909f9f000804e800bd
:101b3000100037000000eb00909f9f0088007800a5
:101b400005003700f3ff2700830f5000020032002a
:101b5000ea00b90000004100010478008800780024
:101b60003101fb000203b100e90f5100f5ff36001f
:101b7000909f9f00984478008900fb00a0102100ee
:101b8000760207000000e000020032000804e800ce
:101b9000010037008044eb00a97f9f0080c6b3009e
:101ba00080cf540006003a0098cf140010003a008d
:101bb00066405000a07f9f000804e8000c0037003a
:101bc000c0c6b30080cf540009003a0098cf14007b
:101bd00007003a0067404000d84f100002003a006a
:101be0006e4050000100370010c7b300a07f9f0077
:101bf0001801fb00c3fb2f008f81410001f92f006a
:101c00008f80400020f92f000f00400015000700d2
:101c10000000e00009003a00c1fb2f008f80400067
:101c200020f92f000f004000990307000000e0009a
:101c3000020035000805e8005aff37000080eb007d
:101c40004f05be004f04be000080fa0000000600f1
:101c500003027800820178000101780041c9200068
:101c600040ff3700889fbe008a1f7800000478007c
:101c70000100780082407800e2c6b30082cf5000b5
:101c8000c700320015003c006b41510082cf50006c
:101c9000240032000a003c007041510082cf500005
:101ca000000132006541410082cf50006d003200da
:101cb00050c2b30080cf50002f013a002b013700f3
:101cc00042c6b30082cf50001c0032006541410083
:101cd00082cf500028013a001800370032c7b30005
:101ce00082cf5000ef00320007003c0064415100f9
:101cf00082cf50005b0032000241e80082cf5000ea
:101d00001d013a00d900370052c7b30082cf5000fe
:101d1000540032006341410082cf500016013a0066
:101d2000500037009080e9000108780028089000f2
:101d300080814100914978001501370008699000c1
:101d4000c4c6b300844f510007003a001002780067
:101d500064015200020878001202be004fabde00a0
:101d6000860378001100370014c7b300844f510078
:101d700003003200a4c6b300844f510006003a00ad
:101d80001002780068015200020878003202be009a
:101d90002203be00050037001081e9000208780028
:101da00012027800cfa2de00612bb900049cbe00b5
:101db0000694be000868900082c6b300824f5000af
:101dc0000d00320022c6b300824f500004003a00da
:101dd0000402fb00cfa2de00612bb900080037002f
:101de00042c7b300824f50000300320066414100f9
:101df000824f500004003a00cfa2de00612bb900f0
:101e0000049cbe000694be003802be002803be003b
:101e100028089000e00f5200e08f5a00e00f5b00ae
:101e2000e08f5b0003003d0000814100d4c2b3009d
:101e30000a003700381190000218a3000300320096
:101e400000814100b4c2b300040037000208a300bf
:101e50004f0032000081410004c2b3000449780001
:101e60004900370008699000c4c6b300844f510090
:101e700006003a001002780064015200020878005f
:101e80001202be006033b8001100370014c7b3005f
:101e9000844f510003003200a4c6b300844f5100a8
:101ea00006003a001002780068015200020878002b
:101eb0003202be002203be00050037001081e90097
:101ec00002087800120278008002eb006033b8004c
:101ed000049cbe000694be000868900082c6b30051
:101ee000824f50000d00320022c6b300824f5000d6
:101ef00004003a000482fb008002eb006033b8006b
:101f00000800370042c7b300824f50000300320080
:101f100066414100824f500004003a008002eb000d
:101f20006033b800049cbe000694be0038109000d8
:101f30000038a300160032003802be002803be009d
:101f4000e00f5200e08f5a00e00f5b00e08f5b0073
:101f50000f00320080c7b30080cf50000300320072
:101f600080c5b30080cf500009003a0028089000d7
:101f70000081410004c3b300044978000000e80078
:101f800000814100014978000000e800200c980021
:101f90002808900080814100730498003e003700bb
:101fa00008699000c3c6b3009080e900834f5100d8
:101fb000220032000a003c00e4c15100834f51006e
:101fc0002500320083c1e800834f51001300320026
:101fd000e8c15100834f51001e003a000a0037004b
:101fe00043c7b300834f51001b003200e6c14100dc
:101ff000834f510018003200e9c15100834f510056
:1020000014003a000500370001087800110078003c
:1020100028649000084878005f00370001087800c5
:102020001100780018129000cfa2de00612bb900d9
:102030000498be000690be005700370001087800e3
:102040001100780018119000cf91de000288be00c8
:10205000510037009080e9000108780011007800f5
:1020600018149000080878004b0037009080e900b1
:102070000108780011027800cfa2de00612bb900c0
:10208000049cbe000694be00280890008081410098
:102090007304980081c7b300080078004501070069
:1020a0003d0037000869900051c6b300814f5100d0
:1020b0001a003a0010017800e4005100010878008d
:1020c0001100be00000c9800110c980088119000bf
:1020d0000300e00007003d008081eb000001eb0001
:1020e000e20307000001be00880890008100510053
:1020f000080037000001eb00dc03070000817000de
:1021000003003200080990008200500001003700ef
:1021100088109000410c98001f0037009080e90063
:1021200001087800110578007a049800881490005e
:102130000900e00004003d000a0078001cfd0700d3
:102140008004780007003700090178008000eb0068
:102150000a007800f70007000000e00001003200ec
:102160008a045000490c98000b00370028089000a2
:1021700080814100050037002808900080814100df
:102180000104e00001003a0051c2b3008149780027
:102190000000e800200c98000000eb004f057800dc
:1021a0004f04be00000006000000e0002f003200d7
:1021b000c0017800e38f51002c0036000308a30013
:1021c0002a003a00f18980000100e000020032009c
:1021d000810f50000400310011009800f089880040
:1021e0001600370082007800110190000200e00024
:1021f00002003200800f5100faff3900110278000e
:1022000084824000850f500018003900808f5200f2
:1022100003003a00830842000100780007003700fd
:102220000200e0000300320083014000830f5100f0
:102230000e00390012009800900098009000900065
:102240000100e0000900320010014000828f5000c0
:1022500006003a00c21321000009eb0010017800cb
:102260001108410091009000110098000000060044
:10227000889fbe008a9fbe008c9fbe008e1f780084
:1022800000067800010478000200780083047800da
:102290008881b900020778000e00e0004200320099
:1022a0000800e000410032008e057800c90090006f
:1022b00069009000808f5000040039000900780008
:1022c000cbfc07000000e0002900350000402000a2
:1022d000190060000a0032000b017800a100200004
:1022e0000c00780093000700800678000d00e000e5
:1022f00006003200610516000a854600040037001a
:102300000b0578008006eb00010037000b05780014
:1023100049009000e9009000808050008a8f5000b2
:1023200002003100010578008006eb000a01780008
:102330008c00780097fc07008a85550049009000c2
:102340000a004000c00498000d00e00004003200c4
:10235000090078000cfc07000000e00004003a00cf
:102360000b00e000020032000a064600cfff3700f3
:10237000008020001900600002003200090078008f
:1023800001fc070000c020001900600002003200bc
:1023900049009000e00498008b05570005000900f3
:1023a0008885d800010037000000eb004f07780057
:1023b0004f06be004f05be004f04be0000000600e1
:1023c000889fbe0000047800e18980000100e000e1
:1023d00002003200010078000d003700f189800012
:1023e000e013210004003700910f5400250036004f
:1023f0000180e800910090000100e000faff3a003f
:1024000010003700920f54001e0036000280e800d2
:10241000100178000200e000faff3a001101780094
:10242000f1898000e013210004003700910f54006f
:10243000140036000180e80091009000828f500067
:10244000faff3a00198a8000888f54000100310099
:1024500088047800090078004c0007000000e000c4
:1024600004003a00888f5400050032008904d1002e
:10247000f5ff3700091878004bff0700d2ff37003f
:102480000000eb004f04be0000000600881f78002b
:10249000630440000800a1008000eb00800f54009e
:1024a00021003600e30f540001003e0048002000e8
:1024b00008007800c2ff07008000eb000000e00089
:1024c0001900320090007800910178006481510079
:1024d000880f5100030031001101900002087800bc
:1024e0000700370008814000020878009101900041
:1024f0001301980010017800110914008808780071
:10250000100178000000eb000200e000040032003f
:10251000920190000300e000010032000280e80018
:10252000e08988008180e800010078004f0478008d
:102530000000060003003700b0cf10000500320095
:102540000201e900800178000200e000faff3a0091
:1025500000000500030078000000060002003700bc
:102560000304e00006003200000178000200780059
:10257000b041780081cf5100f9ff3a0001003700e7
:102580000001eb00020078000000060080007800e7
:102590000000eb000100e0000500340001007800bd
:1025a000f1f90700e10f400001003a000000eb00e4
:1025b00000000600fc874700889fbe008a9fbe007f
:1025c0008c9fbe008e1f78000006780080c5b30087
:1025d00080cf50000a0032007740400080cf50008a
:1025e0000a0032006940400080cf50000b003200ea
:1025f000900d210080bf9f00ae0020000a00370030
:10260000820c210082bf9f0006003700930d21003d
:1026100083bf9f008e00200003003700940d21002f
:1026200084bf9f000e0120003c02be002c03be00b0
:102630000605be000404be0040c6b30080cf5000b3
:10264000030032006540400080cf50000b003a008c
:10265000e00f5200e08f5a00e00f5b00e08f5b005c
:1026600006003d006000b8006011b800040450008e
:10267000858458000605590087855900e80f5700e2
:102680000400320040002000f00f57003a003a00ea
:102690000100370030002000e00f5400e08f5c00a4
:1026a000e00f5d00e08f5d0004003a008c109000a8
:1026b0008d0120000100e000070032008e00e900db
:1026c000888060008fba9700818042009140780036
:1026d000f1ef9f007d012000800078008100e9007b
:1026e000050033008b05d1000a85d3008984d3000f
:1026f0000884d300f9ff3700089ebe000a96be008a
:10270000130037008d06e9008e00e9008480600028
:102710000fb99700810041001141780083fd2f001f
:102720008d81410082f77900800178008301e90002
:10273000050033008783d1000683d3008582d30050
:102740000482d300f9ff3700049ebe000696be0047
:102750003c02be002c03be00e00f5200e08f5a0086
:10276000e00f5b00e08f5b00910034000d00e000a3
:10277000e4ff3c008e0037000c68900081c6b30077
:10278000814f50000b00320006003c000004e000c6
:1027900008003200e6c05000814f500052003a005d
:1027a00004003700c1c6b300814f50004e003a000c
:1027b000230037000800e00004003a000c109000ed
:1027c0008d0120000000e000070032000500090034
:1027d0000e84d8000fba9700010042001040780024
:1027e000f0ef9f007d012000050009000e84d80055
:1027f0000b003700050009000e04d8008d06e90023
:102800008e81b900020454008fb8970008844000fc
:102810009841780082fd2f000d01410083777900f7
:10282000000478000800e000020032000d00e00023
:10283000f0ff3c00cfc4de00614db9002700370037
:10284000e00f5400e08f5c0004003a000c10900090
:102850008d0120000000e000080032006171b90025
:102860000800be003b0207000fba9700800042003c
:1028700091407800f1ef9f007d0120006171b90067
:102880000800be00230207000c0037006171b90088
:102890000800be00100207008d06e90080f1b900b3
:1028a000020454008fba97000884420098417800cf
:1028b00082fd2f000d014100837779000004be00e6
:1028c000e00f5000e08f5800020032000d00e000e1
:1028d000eeff3c004fcdde008a057800089ebe006a
:1028e0000a96be0032003700e00f5400e08f5c0013
:1028f000e00f5d00e08f5d0004003a000c109000d6
:102900008d0120000000e0000a0032006172b90071
:10291000612bb9000800be000a01be00b602070024
:102920000fba97008000420091407800f1ef9f00bd
:102930007d0120006172b900612bb9000800be0062
:102940000a01be00a50207000e0037006172b9003f
:10295000612bb9000800be000a01be00aa020700f0
:102960008d06e90080f2b900040454008fba970084
:10297000088442009842780084fd2f000d02420036
:1029800085777a00009ebe000296be003c04be0021
:102990002c05be00e00f5400e08f5c00e00f5d00ee
:1029a000e08f5d00020034000d00e000e7ff3c0016
:1029b000e80f570010003a003c1090000038a300c8
:1029c0000d003200f78f560006003e0080fd2f00fc
:1029d0000d004000ef40780000c3b30080cf5000ee
:1029e0000500320002c3b30071fd2f008d8040004e
:1029f0008d06e90082f7780078811600420e980073
:102a00007c00900083fd2f008f8141008d8041006c
:102a1000e0fa07004c0890008c109000810f5000e5
:102a200006003d0000805000300e98003c109000e1
:102a30000040a100301698000f0037000100e000b0
:102a40000d003d00bc109000f4806000f08f50003d
:102a500009003a002c119000ac0890008100510050
:102a60003c09900082805000008050004240a90044
:102a700001003400300e98004f0778004f06be006a
:102a80004f05be004f04be00cf01b100000006009c
:102a90000400fa00889fbe008a9fbe008c1f780049
:102aa0000004780001067800a8149000280890001f
:102ab00080845400380890008084540048089000b6
:102ac0008084540058089000808454006808900066
:102ad0008084540078089000808454000002220012
:102ae00090bf9f0000032300a0bf9f0038109000fc
:102af0000028a30015003a000900e000130034008c
:102b0000090578008a057800e20f550001003600bb
:102b10002b002000c80190000b017800ee805700c8
:102b20006800900003000100600498000000e000cd
:102b3000aa003200181090000b00400010149800fa
:102b40000b0555004240a900eeff3c00280990000b
:102b50000200e0000c003400c80190008c007800f6
:102b60006800900003000100600498008080eb0082
:102b70000000e0009a0032009810900028089000b1
:102b80000080400010149800380d90000a00e0000a
:102b9000110034008a057800e20f5500010036006c
:102ba0002b002000c80190000b017800ec8057003a
:102bb0006800900003000100600498000000e0003d
:102bc00086003200181090000b004000101498008e
:102bd0000b055500edff370008699000c80890000c
:102be00050c6b300804f510008003a000100e000d9
:102bf00015003400580290000809900098099000d0
:102c00006800900004000100070037000100e000a8
:102c10000d003400c801900001017800f800900018
:102c20006800900003000100600498008080eb00c1
:102c30000000e0006a003200981090004808900000
:102c40000080400010149800580d90000a00e00029
:102c5000110034008a057800e20f550001003600ab
:102c60002b002000c80190000b017800ec80570079
:102c70006800900003000100600498000000e0007c
:102c800056003200181090000b00400010149800fd
:102c90000b055500edff37000869900068089000ab
:102ca00051c6b300814f51000d003a000000e00012
:102cb0001c00340078019000c80890000101410018
:102cc0006111b800828fd2008381d2005802900037
:102cd00080007800680090000400010009003700bf
:102ce0000000e0000f00340078019000c808900058
:102cf00081004100c8019000000178006800900048
:102d000003000100600498008080eb000000e000f8
:102d10003300320098109000680890000080400056
:102d200010149800780d90000a00e00011003400a3
:102d30008a057800e20f5500010036002b002000c4
:102d4000c80190000b017800ec80570068009000eb
:102d500003000100600498000000e0001f00320042
:102d6000181090000b004000101498000b0555003f
:102d7000edff3700381090008000eb000028a30022
:102d8000170032000900e000150034000905780042
:102d9000e28f5400010036002a002000c801900094
:102da0000a017800ee8057006800900003000100df
:102db000600498000000e000080032001810900045
:102dc0000a004000101498008a8454004240a90070
:102dd000eeff3c008000eb00010037008080eb003c
:102de000010078004f0678004f05be004f04be007a
:102df0000080fa00000006000108780000000600cc
:102e0000e6874700889fbe008a9fbe008c9fbe0059
:102e10008e1f780082bf9f00040478008299b90059
:102e2000f2b79f000200e000590032000fb997008e
:102e30000200e000570032000006be007fb7970096
:102e4000c800900068009000808f50000400390096
:102e500008007800e6f907000000e0003b003500bc
:102e600000402000180060000a0032008e01780047
:102e7000a20020000c00be007c0007000005be0080
:102e800000807500070032008c0455008904e800ba
:102e9000050037008e0478000a0020000b00200097
:102ea000010037008e04780048019000680090000f
:102eb00002005000890f50000300310080047800a8
:102ec0000a0020000b0020006111b800828fd200a0
:102ed0008381d200090278000c00be003a0007008e
:102ee000090757004800900009004000400498007e
:102ef0000a857500040032000800780022f90700f6
:102f00000000e00011003a000e00e0000f00320067
:102f10006148b800808fd2008180d2000000780024
:102f200000f0a1000c01d0008001d0000306410098
:102f30004220a80081864e004200a9004220ae0037
:102f40004200a8000c86d300bdff3700008020009f
:102f50001800600002003200080078000af907003b
:102f600000c02000180060000200320048009000fd
:102f7000600498007fb197000e0751000fb99700c9
:102f8000050009000287d8008001780001003700a1
:102f90008001eb00030078004f0778004f06be0069
:102fa0004f05be004f04be006f00b10000000600d8
:102fb00000c0da000000060000c0da0000000600d1
:102fc00000c0da00000006003400f8003200f8000b
:102fd0000203be00820270008502720002f0a600a9
:102fe0008301e800a301880000f0a6008100e8004a
:102ff000910188001500b2000c00320010497800e1
:103000000402e900150032006101410002003900ac
:103010003420ec000200280061004000f7ff390076
:103020003220ec0000002800f4ff3700100978007f
:103030000482e90009003200620141000200390007
:103040003420ec000200280062004000f7ff390045
:103050003220ec0000002800f4ff37003200f900b5
:103060003400f9000601be00000006000300e00085
:10307000070032009501800001d0fe001042780068
:1030800005d0fe000402fb00820f52001100320046
:103090008301e9009501800001d0fe001042780014
:1030a00005d0fe000404e0000800320000027800b1
:1030b0001000b00000026a004260af0000f0a00003
:1030c0000482d2000180b000e8ff37000000200039
:1030d0000100200000000600839f68000100e0005e
:1030e00002003d0060001000e08018000300e000d6
:1030f00002003d0060011100e08119000500070099
:103100004f00e00002003b0060001000e08018006b
:10311000000006006022b800060220000000d00077
:103120008180d2000482d2008582d2000000a000fb
:103130000202520083825a00030031000202420060
:1031400083824a000000a1000603e900f3ff3a0071
:1031500000000600efff07000400be0000000600ac
:10316000020ab900001bb9000200b8008100420049
:103170008100430000000600889fbe008a9fbe00b9
:1031800030044200b0844a0030054b0090854b006b
:103190006000b1000898be000a90be000440e10043
:1031a00005c8e10006d0e10007d8e10002003100c7
:1031b000680040001008e8004f05be004f04be0044
:1031c00000000600889fbe008a9fbe003004be003b
:1031d0002005be000418540005985c0006185d0028
:1031e00007985d00110020000440e10005c8e100df
:1031f00006d0e10007d8e100010039008000eb00b3
:10320000108810004f05be004f04be0000000600ed
:103210001200fa00889fbe008a9fbe008c9fbe00ed
:10322000e0b79f00f1b79f0082bf9f0093bf9f0050
:103230000605be000404be000000eb00d0b79f00ee
:10324000c0b79f00b0b79f00a0b79f0090b79f0086
:10325000000678005fb19700cfb09700820141006f
:103260003fb097000200e00004003d003700070077
:103270007e805700c0ff07000300370033000700bf
:103280007e805700cfff0700dfb697000d00e000fb
:103290000c0035006fb29700ffb297000fbb97008c
:1032a0009fbb970010002000010020006011b800b3
:1032b0000002720081827200020373008383730034
:1032c0001b0007000c06e80001042000810f5600d7
:1032d000e0ff3a000d00e00004003d000802be00df
:1032e0000a03be007e805700a3ff07005fa8970077
:1032f0000000e00005003a001fb29700afb297004f
:103300003fb39700cfb39700090007006fb0970055
:10331000ffb097000fb997009fb997004f06be0006
:103320004f05be004f04be000080fa0000000600fa
:103330000100070000000600a4b79f00b5b79f007a
:10334000c6b79f00d7b79f00000006004f09de00f8
:1033500082817100b3b79f004f01de008180400081
:1033600082807000a1b79f008fb097004f09de00e8
:10337000000040000200700090b79f007fa89700f7
:103380004f01de00818040008280700081b79f0085
:103390000d0007004f3ade000000400004007000fe
:1033a000f0af9f00080007000402420085824a0037
:1033b00006034b0087834b00dfff07000802be00b7
:1033c0000a03be00000006002fb29700bfb29700ac
:1033d0004fb39700dfb3970000000600881f780006
:1033e00018002000881f780089ff07008f87e900f8
:1033f0004f04780000000600801feb0084ff0700e8
:103400008f87e90000000600889fbe008a9fbe00eb
:10341000e00f5000e08f5800e00f5900e08f590096
:103420000c003d006044b8006055b8000000540036
:1034300081805c0002015d0083815d001800200036
:103440001500070008003d00180007000004eb000d
:10345000050037000004eb000f00070002003d00ec
:103460001200070018002000dcff07000800e00041
:10347000060032006022b8006033b800000052003d
:1034800081805a0002015b0083815b004f05be0012
:103490004f04be0000000600e00f5200e08f5a000b
:1034a000e00f5b00e08f5b00000006006044b800a6
:1034b0006055b8000402540085825c0006035d007c
:1034c00087835d0000000600889fbe008a9fbe00c3
:1034d0008c1f7800e00f5000e08f5800e00f59007b
:1034e000e08f59000d003d006044b8006055b80001
:1034f0000000540081805c0002015d0083815d005a
:103500001c0020000820e10009a8e1000ab0e10049
:103510000bb8e1000d003d00080037000006eb008d
:10352000e00f5200e08f5a00e00f5b00e08f5b007d
:1035300006003d006044b8006055b8000402540025
:1035400085825c0006035d0087835d00aaff07009b
:103550000c00e000060032006022b8006033b800c2
:103560000000520081805a0002015b0083815b00f1
:103570004f0678004f05be004f04be000000060055
:020000040000fa
:103580004c56000000500000524500004348000027
:1035900041520000474900004e470000004800002b
:1035a000565f0000454e0000414200004c450000bf
:1035b000440000004452000049560000450000004d
:1035c00046410000554c0000540000004e4f0000e2
:1035d0004e450000004400005249000056450000de
:1035e0005f52000045510000554500005354000053
:1035f0005f460000524f00004d5f00004c56000037
:10360000004300004f4e000053450000525600009a
:103610004154000049560000455f00005449000035
:103620004d450000525f00004d410000584500002c
:103630004400000042520000414b0000455f000082
:103640004e4f0000545f00005052000045530000f0
:103650005345000044000000485600005f4400004d
:1036600049530000414200004c450000445f000007
:1036700057480000494c0000455f000044520000dc
:103680004956000045000000534500004e5300001d
:103690004f5200005f4400004953000043520000b5
:1036a00045500000414e0000435900000042000018
:1036b000524100004b4500005f4900004d500000a2
:1036c0004c41000055530000494200004c450000a9
:1036d00000250000732000002d3e00002025000082
:1036e000730d00000a00000045720000726f0000b8
:1036f000723a000020250000730d00000a0000004f
:1037000074680000726f0000747400006c65000043
:10371000313a000020250000640d00000a0000007e
:1037200074680000726f0000747400006c65000023
:10373000315f00006d610000783a00002025000034
:10374000640d00000a00000074680000726f000041
:10375000747400006c650000315f00006d6900004a
:103760006e3a000020250000640d00000a000000f1
:1037700074680000726f0000747400006c650000d3
:10378000323a000020250000640d00000a0000000d
:1037900074680000726f0000747400006c650000b3
:1037a000325f00006d610000783a000020250000c3
:1037b000640d00000a00000074680000726f0000d1
:1037c000747400006c650000325f00006d690000d9
:1037d0006e3a000020250000640d00000a00000081
:1037e00062720000616b0000653a00002025000055
:1037f000640d00000a00000062720000616b0000ae
:10380000655f00006d610000783a0000202500002f
:10381000640d00000a00000062720000616b00008d
:10382000655f00006d6900006e3a00002025000011
:10383000640d00000a000000537400006174000071
:10384000653a000020250000730d00000a0000000a
:1038500054680000726f0000747400006c65000012
:10386000203100003a200000256400000d0a00000d
:1038700000540000687200006f740000746c000057
:1038800065200000323a000020250000640d000091
:103890000a00000042720000616b0000653a0000ff
:1038a00020250000640d00000a0000005374000091
:1038b00061720000746900006e67000020690000fa
:1038c0006e2000002573000020730000746100006a
:1038d00074650000002d00002d2d00002d2d00002e
:1038e0002d2d00002d2d00002d2d00002d2d000070
:1038f0002d2d00002d2d00002d2d00002d2d000060
:083900002d2d00000d00000058
:020000040000fa
:103908000000fa000040eb000080fa00000006000a
:103918000000fa000040eb000080fa0000000600fa
:103928000200fa00000f7800d0808000e40f5000f9
:1039380004003a001e007800e40f50000100320035
:103948001c30ef001e00780080004000401221006b
:103958000080400090007800d08080000001400086
:10396800401221000000410010007800811f7800fb
:10397800801f780090b62900801f7800e0f70700c4
:10398800e68757009e007800d18088000080fa0002
:10399800000006000200fa00000f78004000200036
:1039a800dfff07001e00780080004000e0122100c1
:1039b8000080400010007800801f780040b7290080
:1039c800801f7800cef70700e48757009e00780034
:1039d800e18088000080fa00000006000000fa007c
:1039e8003cd0bf000004e0000b0032000630ef00be
:1039f800f0ff2700c08188000830ef00f0ff2700a3
:103a0800d08188001230ef00f0ff2700a0808800e6
:103a18003c70ef005a003700118080003080800031
:103a2800808f5000020036001080800030808800af
:103a380011808000c0818000808f5000020031001a
:103a480010808000c0818800218080004080800034
:103a5800808f50000200360020808000408088005f
:103a680021808000d0818000808f500002003100ca
:103a780020808000d0818800818080009080800034
:103a8800808f50000200360080808000908088007f
:103a980081808000a0808000808f5000020031006b
:103aa80080808000a080880010808000801f7800bf
:103ab80000b82900801f780091f70700e4875700b5
:103ac80030808000801f780000b92900801f7800ae
:103ad8008bf70700e4875700c0818000801f7800bb
:103ae80040ba2900801f780085f70700e48757004f
:103af80020808000801f780080bb2900801f78000c
:103b08007ff70700e487570040808000801f780017
:103b180080bc2900801f780079f70700e4875700e8
:103b2800d0818000801f7800c0bd2900801f7800e8
:103b380073f70700e487570080808000801f7800b3
:103b480000bf2900801f78006df70700e487570041
:103b580090808000801f7800c0bf2900801f7800f7
:103b680067f70700e4875700a0808000801f78006f
:103b7800c0c02900801f780061f70700e48757005c
:103b88000080fa00000006000400fa00889fbe00ca
:103b980011808000010f7800308080009e0078003e
:103ba800808f50000300360031808000010f7800bc
:103bb80006003700c08180009e007800808f50008a
:103bc80002003100c1818000010f7800c0818000af
:103bd8001e0010008000eb00e4f407000004be00a3
:103be80031808000c0818000008050008000eb00a0
:103bf800def407000001be000800be007af40700ea
:103c080002002000832c24002df50700bcf40700d7
:103c180000007800608088002180800011079800eb
:103c2800408080009e009000808f50000300360086
:103c3800418080001107980006003700d08180007d
:103c48009e009000808f500002003100d1818000da
:103c580011079800d08180009e00900000805000dd
:103c68008000eb00c1f407000004be004180800022
:103c7800d0818000008050008000eb00bbf407007a
:103c88000001be000800be0057f407000200200033
:103c9800832c24000af5070099f407000000780037
:103ca80070808800608080008000780070808000cc
:103cb800008050008000780001f0a7008100ea0031
:103cc80010c0b300ea8f500001003c000040eb0038
:103cd8004f04be000080fa00000006000400fa004d
:103ce800889fbe008a1f7800118080001107980005
:103cf8008280800051808000b0aa2a000008b800a5
:103d08004208de00000f5100908080009e0078007d
:103d1800808f50000200360091808000010f7800eb
:103d2800a08080009e007800808f50000200310043
:103d3800a1808000010f7800a08080001e00100084
:103d48008000eb0089f4070002002000832c240087
:103d5800dbf407000004be00508080008000eb0008
:103d680082f407000001be000800be001ef4070030
:103d780063f40700000f7800d0808000e40f500043
:103d880019003a00e0808000e60f500016003a0063
:103d98001e0090008000eb0074f407000004be00d1
:103da800508080008000eb0070f4070002002000c3
:103db80003e82300c2f407001ac0b3000001be00e4
:103dc8000800be004af407000000e00001003500ca
:103dd8000045eb000a4078000004a2000080fb00c8
:103de800004078001a0037001e0078000000e0004c
:103df800150032001e0090008000eb005bf4070005
:103e08000004be00508080008000eb0057f40700db
:103e18000200200003e82300a9f407001ac0b30039
:103e28000001be000800be0033f407000000e000f7
:103e380001003c000045eb000a04e00002003200eb
:103e480010002000010037000000eb00004078005f
:103e58004f0578004f04be000080fa0000000600fd
:103e68000000fa00d080800080004000401221004d
:103e78000080400010007800801f7800c0c1290031
:103e8800801f78009ef60700e487570010808000a6
:103e9800801f780080c22900801f780098f60700ec
:103ea800e487570020808000801f780090c3290095
:103eb800801f780092f60700e48757008080800012
:103ec800801f7800a0c42900801f78008cf60700a6
:103ed800e4875700e0808000e50f500009003200b9
:103ee80029ff07000004e00006003200d0808000af
:103ef800f0808800e0808000008188005000200069
:103f0800a4fe07000080fa00000006000000fa0086
:103f1800fc040700d080800080004000401221008f
:103f28000080400010007800801f780060c52900dc
:103f3800801f780072f60700e4875700b0c6290092
:103f4800ddf40700d0808000e20f50002b00320023
:103f5800e20f500005003e000000e00008003200bb
:103f6800e10f50001b003200f4ff3700e30f500050
:103f780036003200e40f500047003200efff3700f0
:103f880096fe070062fe07000004e000030032000e
:103f9800100020007ffe07008200370058fe07004f
:103fa8000004e0000a00320031808000c0818000f7
:103fb800008050005080880091808000a0808000a0
:103fc80000805000b08088001000200054fe0700d8
:103fd80074003700c1808000f0f92000808f500005
:103fe80003003600200020006afe07006d0037003d
:103ff800200020004afe07006a00370098ff0700eb
:104008003ffe07000004e00003003a000000eb0058
:1040180043fe0700630037003dfe07000004e00090
:104028000900320081808000c0fc2000808f500091
:10403800030036003000200039fe07000200370078
:104048003000200053fe07005600370084ff0700a9
:104058002ffe07000004e00003003a0020002000c3
:104068002ffe07004f00370025fe07000004e00080
:1040780003003a004000200046fe070049003700d0
:1040880016ff07000004e000020032006000200074
:1040980040fe070043003700e0808000e30f500037
:1040a8001d003200e30f500005003e00e10f5000f4
:1040b8000a003200e20f50000e00320038003700cc
:1040c800e50f500021003200e50f500018003900bc
:1040d800e60f50002b003200310037000cfe0700bd
:1040e8000004e00002003a000000eb000cfe0700ac
:1040f8002b00370002fe07000004e00005003a002c
:1041080003fe07000004e00002003a000000eb0094
:1041180003fe070022003700fdfd07000004e00051
:1041280002003a0020002000fdfd07001c003700b7
:104138004bff0700f6fd07000004e00002003a000c
:104148000000eb00f6fd07001500370044ff0700ec
:104158008dfe07000004a2000004e0000800320001
:10416800f0808000e40f500003003a0000818000d6
:1041780008fe070002003700f0808000e8fd070015
:104188000700370036ff0700d4fe07000004a2002e
:104198000004e0000200320030002000e0fd0700cb
:1041a8000000000065ff37000000fa00002bef0058
:1041b8000006200010588800042bef00062bef00a3
:1041c800082bef000a2bef00102bef00122bef004b
:1041d800142bef00202bef00f0012000105988006d
:1041e800382bef00402bef00482bef00502bef004f
:1041f8003a2bef00422bef004a2bef00522bef0037
:104208003c2bef00442bef004c2bef00542bef001e
:104218003e2bef00462bef004e2bef00562bef0006
:1042280000402000505b880000402000705b880040
:1042380000402000905b880000402000b05b8800b0
:10424800a02bef00a42bef00a82bef00ac2bef0066
:10425800d02bef00d22bef00f02bef00f22bef006a
:10426800022cef00e01b220045000700c01e2200c0
:104278005b000700e02122007200070000252200f1
:104288008900070020282200a0000700402b2200f8
:10429800b7000700602e2200ce000700a02f2200e2
:1042a800d6000700e0302200de000700203222009e
:1042b800e600070060332200ee0007000d68a90041
:1042c8002d68a8000d88a9002d88a8000da8a900b0
:1042d8002da8a8000dc8a9002dc8a8000de8a900a0
:1042e8002de8a8001160800000f020000100700097
:1042f8001060880001eba8001300070010102000d0
:10430800005c880010102000105c8800100020005d
:10431800205c8800862bef00882bef008a2bef00ab
:104328008c2bef008e2bef0010102000805c880093
:1043380010102000905c880010002000a05c88000d
:104348000080fa00000006000000fa0000eca80057
:10435800000000000160800000002800008060006c
:104368000000e000fbff32000aeba8000080fa0022
:10437800000006000000fa000080fa0000000600b5
:104388000200fa00000f78001e00780010818800f3
:104398000080fa00000006000000fa00514080008a
:1043a80000402000008060000000e00006003200ad
:1043b800108180000000e0000200320010818000bf
:1043c800000001000b48a9000080fa000000060068
:1043d8000200fa00000f78000080fa0000000600d2
:1043e8000200fa00000f78001e0078002081880083
:1043f8000080fa00000006000200fa0080598000e0
:10440800610060000000e000080032006160800088
:10441800010f7800208180000000e00003003200d6
:10442800218180001e007800010001000080fa0050
:10443800000006000200fa00000f78000080fa0071
:10444800000006000200fa00000f78001e00780045
:10445800308188000080fa00000006000200fa009f
:1044680080598000620060000000e000080032000f
:1044780071608000010f7800308180000000e0004a
:1044880003003200318180001e0078000100010025
:104498000080fa00000006000200fa00000f780011
:1044a8000080fa00000006000200fa00000f780001
:1044b8001e007800408188000080fa000000060095
:1044c8000200fa0080598000640060000000e000eb
:1044d8000800320081608000010f78004081800070
:1044e8000000e00003003200418180001e007800d7
:1044f800010001000080fa00000006000200fa0036
:10450800000f78000080fa00000006000200fa00a0
:10451800000f78001e007800508188000080fa00a3
:10452800000006000200fa00805980006800600060
:104538000000e0000800320091608000010f780060
:10454800508180000000e0000300320051818000ab
:104558001e007800010001000080fa00000006003b
:104568000200fa00000f78000080fa000000060040
:104578000200fa00000f78001e00780060818800b1
:104588000080fa00000006000200fa00805980004e
:10459800700060000000e00008003200a1608000a8
:1045a800010f7800608180000000e0000300320005
:1045b800618180001e007800010001000080fa007f
:1045c800000006000200fa00000f78000080fa00e0
:1045d800000006000200fa00000f78001e007800b4
:1045e800708188000080fa00000006000200fa00ce
:1045f800000f78000080fa00000006000200fa00b0
:10460800000f78001e007800808188000080fa0082
:10461800000006000200fa00000f78000080fa008f
:10462800000006000200fa00000f78001e00780063
:10463800908188000080fa00000006000200fa005d
:10464800000f78000080fa00000006000200fa005f
:10465800000f78001e007800a08188000080fa0012
:10466800000006000200fa00000f78000080fa003f
:10467800000006000200fa00000f78001e00780013
:10468800b08188000080fa00000006000000fa00ef
:10469800f0f1210020228800e00720003022880065
:1046a8000080fa00000006000000fa0041e4a800bb
:1046b8000040200010228800400020000b00070066
:1046c8000000e00007003a00007629000022880078
:1046d8004264a9004284a900ecff070060002000a2
:1046e800020007000080fa00000006000400fa003b
:1046f800100798000000eb00000f78002a00070060
:10470800e40f5000060032001e009000e10f500038
:10471800030032001e009000e40f50001d003a0014
:104728001e00900000407800674060000080fb0099
:10473800670060004800dd0012228000f18f2f0022
:104748008100610001007000102288000900370014
:10475800e122800000002100008060000000e000ed
:104768000400320020002000000f78000000000044
:104778000a0037001022800075800a00000000003f
:104788008080fb001e009000808f5000f0ff3a00f0
:104798000200370010002000000f78001e0078008b
:1047a8000080fa00000006000000fa0010228000d5
:1047b80075800a00000000000080fb000080fa00fd
:1047c800000006000000fa00b023800055800a00af
:1047d800000000000080fb0000f0a7000000ea00d5
:1047e8000000ea004f00de00004078000080fa0078
:1047f800000006000000fa005dc4a9005fc4a8001c
:104808002428a80010002000b8ff07000080fa0044
:10481800000006000000fa000080fa000000060010
:104828000000fa000080fa00000006000000fa000c
:104838000080fa00000006000000fa000080fa007c
:10484800000006000000fa000080fa0000000600e0
:104858000000fa00e12280000000280000806000cb
:104868000000e00002003200eaff07005de4a90052
:10487800e122800000002200008060000000e000cb
:1048880002003200e9ff07005da4a900e0228000d1
:10489800680060000000e00002003200e6ff070048
:1048a8005c64a900e1228000000021000080600013
:1048b8000000e00002003200e2ff07005d84a9006a
:1048c8000080fa00000006000000fa00f0f1210064
:1048d800202e8800e0072000302e88000080fa0093
:1048e800000006000000fa00c1e5a8000040200012
:1048f800102e8800400020000b0007000000e00098
:1049080007003a0000762900002e8800c265a90039
:10491800c285a900ecff0700600020000200070024
:104928000080fa00000006000400fa001007980052
:104938000000eb00000f78002a000700e40f500089
:10494800060032001e009000e10f50000300320004
:104958001e009000e40f50001d003a001e00900059
:1049680000407800674060000080fb00670060003e
:104978004800dd00122e8000f18f2f0081006100b9
:1049880001007000102e880009003700e12e800019
:1049980000002100008060000000e00004003200f8
:1049a80020002000000f7800000000000a003700f7
:1049b800102e800075800a00000000008080fb0037
:1049c8001e009000808f5000f0ff3a000200370070
:1049d80010002000000f78001e0078000080fa0008
:1049e800000006000000fa00102e800075800a0002
:1049f800000000000080fb000080fa0000000600b4
:104a08000000fa00b02f800055800a000000000066
:104a18000080fb0000f0a7000000ea000000ea00a8
:104a28004f00de00004078000080fa000000060019
:104a38000000fa00ddc5a900dfc5a8002328a800ea
:104a480010002000b8ff07000080fa0000000600f0
:104a58000000fa000080fa00000006000000fa00da
:104a68000080fa00000006000000fa000080fa004a
:104a7800000006000000fa000080fa0000000600ae
:104a88000000fa000080fa00000006000000fa00aa
:104a9800e12e800000002800008060000000e00097
:104aa80002003200eaff0700dde5a900e12e8000e0
:104ab80000002200008060000000e00002003200d8
:104ac800e9ff0700dda5a900e02e8000680060006e
:104ad8000000e00002003200e6ff0700dc65a900e4
:104ae800e12e800000002100008060000000e0004e
:104af80002003200e2ff0700dd85a9000080fa000d
:104b0800000006000000fa00007c80000080fa0027
:104b1800000006000200fa00faff0700000f780004
:104b28001e007800240007000004e00002003200a4
:104b380000002800710007001e0078002a00070006
:104b48000004e00002003200000024006b000700af
:104b58001e007800320007000004e0000200320066
:104b680000202000650007001e0078003a000700ba
:104b78000004e00002003200000820005f00070087
:104b88001e007800420007000004e0000200320026
:104b980000042000590007001e0078004a000700a2
:104ba8000004e0000200320000012000530007006a
:104bb8000080fa00000006000400fa0010079800c0
:104bc8000040eb00004f78001e0090000000e0005d
:104bd80002003d0010c0b300004f78001e4078006e
:104be8000080fa00000006000400fa001007980090
:104bf8000040eb00004f78009e0090000000240069
:104c0800008060000000e0000200320010c0b30025
:104c1800004f78001e4078000080fa00000006006f
:104c28000400fa00100798000040eb00004f7800dd
:104c38009e00900000202000008060000000e0003e
:104c48000200320010c0b300004f78001e40780008
:104c58000080fa00000006000400fa00100798001f
:104c68000040eb00004f78009e00900000082000f4
:104c7800008060000000e0000200320010c0b300b5
:104c8800004f78001e4078000080fa0000000600ff
:104c98000400fa00100798000040eb00004f78006d
:104ca8009e00900000042000008060000000e000ea
:104cb8000200320010c0b300004f78001e40780098
:104cc8000080fa00000006000400fa0010079800af
:104cd8000040eb00004f78001e009000700060005c
:104ce8000000e0000200320010c0b300004f78005e
:104cf8001e4078000080fa00000006000200fa005a
:104d0800000f78009e80ea00007c80000080600030
:104d1800007c88000080fa00000006000000fa000d
:0c4d2800802fef000080fa000000060061
:020000040000fa
:104d3400ea10000020000000800000003e10000087
:104d44000200000082000000ffff000022100000ab
:104d5400160000008000000024110000180000006c
:104d640082000000c09ac3009acf9a00da9ae00049
:104d74009ae69a00eb9a01009b1a9b002c9b440034
:104d84009b579b00001000002200000080000000e0
:104d9400381000000600000082000000ff7fff00c2
:104da4007f01000040100000880000008200000025
:104db4000100000000661000671066001066100015
:104dc400661066001056100000000000000000008d
:104dd40000000000000000000000000000000000cf
:104de400000000000002080001018e00108f100076
:104df4008e108e00108e10008e107e0010000000a9
:104e0400000000000000000000000000000000009e
:104e14000000000000000000000002000802020080
:104e2400b610b70010b61000b610b60010b61000d9
:104e3400a6100000000000000000000000000000b8
:104e4400000000000000000000000000000000005e
:104e540040106800109010000000000000000000e6
:104e640000000000000000004011000002000000eb
:104e7400800000000a1100001a00000082000000f7
:104e8400686a6c00747a4c000000010000020000a3
:104e94000400080000100000000020002b2d230057
:104ea40030000000421100000200000082000000f7
:104eb400040000003c110000040000008000000019
:104ec400c8100000220000008200000030313200cf
:104ed4003334350036373800394142004344450005
:104ee400460030003132330034353600373839006b
:104ef4006162630064656600000000004411000004
:104f040002000000820000000100000046110000c1
:0c4f14000200000080000000000000000f
:020000040000fa
:104f20000000fa0000082000c01188003a22ef00bb
:104f30003c22ef0020022000f011880070062000c3
:104f4000001288004222ef004c22ef004e22ef00b8
:104f50005022ef005222ef005422ef005622ef00c1
:104f60005822ef005a22ef005c22ef0039e2a8003d
:104f700038a2a8003882a8000080fa0000000600cd
:104f80000000fa0000000000f011800062006000e4
:104f90000000e000fcff3a00e011800062006000c9
:104fa0000000e000010032003c22a9002012800035
:104fb000004078000080fa00000006000200fa00bd
:104fc000004f780000000000f011800070006000c9
:104fd0000000e000fcff3a001e80fb004012880049
:104fe0000080fa00000006000000fa00f0118000c6
:104ff0006200600000f0a7000000ea000000e90085
:105000004f00de00004078000080fa00000006003b
:105010000000fa00f0118000700060000000e00065
:1050200007003a00c11180000002200000806000eb
:105030000000e000020032001000200001003700f4
:105040000000eb00004078000080fa00000006003d
:105050000000fa00e011800077800a0000000000e4
:105060000080fb0000f0a7000000ea000000ea005a
:105070004f00de00004078000080fa0000000600cb
:105080000400fa00f01180008000eb00008fbe00e9
:105090001e00be00c001dd0002002000e011800003
:1050a0008000eb0000007100818071000080fa0038
:1050b000000006000000fa0039e2a80038a2a800ab
:1050c0003882a8000080fa00000006000000fa0004
:1050d00039e2a90038a2a9003882a9000080fa00ac
:1050e000000006000000fa00062eef00222eef005e
:1050f0003e2eef005a2eef00f001200010708800c5
:10510000d0cb2f00f0708800f0dc2200d071880036
:1051100020502200b07288000c2eef00282eef00e5
:10512000442eef00602eef000a2eef00262eef0037
:10513000422eef005e2eef00082eef00242eef002f
:10514000402eef005c2eef00f00120000070880080
:1051500070002000e0708800f00c2000c071880012
:1051600000402200a07288000000eb0051052000e2
:10517000b1468800a10a2000b14688000068880076
:10518000416c800000fc2f00008060006001b300d3
:10519000406c8800c16c8000f00f2c000080600023
:1051a0000080a000c06c8800316c800000fc2f00e3
:1051b000008060005001b300306c880080c3b300f1
:1051c00028edb70050c2b30038edb70070c2b3008d
:1051d00039edb7000080200051052000b14688005d
:1051e000a10a2000b1468800006888000080fa000b
:1051f000000006000000fa0010002300307c880048
:1052000060092000407c88008c2fef0010042000f3
:10521000507c880010102000707c880060092000fd
:10522000807c880010042000907c8800e0a028008a
:10523000d07c8800b82fef00ba2fef00be2fef0010
:10524000002def00a42fef00a62fef00a82fef00f6
:10525000aa2fef00ae2fef00b02fef00b22fef001c
:105260007200200080072000a109200053f82000d0
:105270008049780081497800824978000001eb007c
:10528000600420007105200043f820008049780068
:1052900081497800824978000080fa000000060009
:1052a0000000fa00707c8000ee800a000000000020
:1052b0000080fb0000f0a7000000ea000000ea0008
:1052c0004f00de00004078000080fa000000060079
:1052d0000200fa00000f780021028000200f200059
:1052e000008060001e007000200288000080fa002c
:1052f000000006000000fa00c3e8a800000000005b
:10530000000000000080fa00000006000000fa0023
:1053100074ff07000a000700b6ff0700e4fc07005f
:1053200072fd0700fefe0700a1fb0700f1ff07006a
:1053300000022000e6ff07000080fa0000000600df
:105340000000fa00b1438000f08f2f000080600061
:105350000080a000b0438800b1438000f0f82f0027
:10536000008060000040a000b0438800b14380008e
:1053700080ff2f00008060000000a000b043880084
:10538000a1438000f0ff28000080600000c0a00062
:10539000a0438800b1438000f0ff28000080600037
:1053a00000c0a000b04388000080fa0000000600a2
:1053b0000200fa00000f78009e007800f18188005a
:1053c000ffff37000000fa00a00e210080077800e0
:1053d00020102100000188000080fa000000060073
:020000040000fa
:020000040005f5
:047e0000ffff000080
:020000040000fa
:020000040005f5
:047e2000ffffff0061
:020000040000fa
:020000040005f5
:047e30007fffff00d1
:020000040000fa
:020000040005f5
:047e3800bbffff008d
:020000040000fa
:020000040005f5
:047e40006003ff00dc
:020000040000fa
:020000040005f5
:047e4800ffffff0039
:020000040000fa
:020000040005f5
:047e5000deffff0052
:020000040000fa
:020000040005f5
:047e58000000ff0027
:020000040000fa
:020000040005f5
:047e60000000ff001f
